:100000000C94B4010C9486080C94D1010C94D10189
:100010000C94D1010C94D1010C94D1010C94D10118
:100020000C94D1010C94D1010C94D1010C94D10108
:100030000C94D1010C94D1010C94D1010C94D101F8
:100040000C94D1010C94D1010C94D1010C94D101E8
:100050000C94D1010C94D1010C94D1010C94D101D8
:100060000C94D1010C94D1010C94D1010C94D101C8
:10007000000000000000000000065F5F06000000B6
:100080000007070007070000147F7F147F7F14001C
:10009000242E6B6B3A120000466630180C66620024
:1000A000307A4F5D377A48000407030000000000F3
:1000B000001C3E63410000000041633E1C00000044
:1000C000082A3E1C1C3E2A0808083E3E080800007C
:1000D00000A0E06000000000080808080808000010
:1000E00000006060000000006030180C0603010092
:1000F0003E7F594D7F3E000042427F7F40400000DE
:10010000627359496F660000226349497F360000D7
:10011000181C16137F7F1000276745457D390000A6
:100120003C7E4B4979300000036371190F070000D2
:10013000367F49497F360000064F49693F1E00005F
:1001400000006C6C0000000000A0EC6C00000000DF
:10015000081C366341000000141414141414000029
:10016000004163361C080000020351590F060000CD
:100170003E7F415D5D1F1E007C7E13137E7C000070
:10018000417F7F49497F36001C3E63414163220025
:10019000417F7F41637F1C00417F7F495D41630058
:1001A000417F7F491D0103001C3E63415173720072
:1001B0007F7F08087F7F000000417F7F41000000B3
:1001C000307040417F3F0100417F7F081C77630012
:1001D000417F7F41406070007F7F060C067F7F007B
:1001E0007F7F060C187F7F001C3E6341633E1C002E
:1001F000417F7F49090F06001E3F21717F5E00008D
:10020000417F7F19396F460026674D597B320000C8
:1002100003417F7F410300007F7F40407F7F0000DC
:100220001F3F60603F1F00007F7F3018307F7F00DE
:1002300063771C081C776300074F78784F0700002E
:100240006773594D47637100007F7F414100000093
:100250000103060C183060000041417F7F00000060
:10026000080C0603060C0800808080808080808057
:100270000000030704000000207454543C78400040
:10028000413F7F44447C3800387C44446C28000063
:10029000307848493F7F4000387C54545C18000057
:1002A000487E7F490302000098BCA4A4F87C0400A7
:1002B000417F7F08047C780000447D7D4000000081
:1002C00040C484FD7D000000417F7F10386C4400F5
:1002D00000417F7F400000007C7C0C180C7C780083
:1002E0007C7C04047C780000387C44447C3800002A
:1002F00084FCF8A4243C1800183C24A4F8FC8400D6
:10030000447C78441C180000485C54547424000059
:1003100000043E7F442400003C7C40403C7C400084
:100320001C3C60603C1C00003C7C6030607C3C00FD
:10033000446C3810386C44009CBCA0A0FC7C0000CD
:100340004C64745C4C64000008083E774141000036
:1003500000000077770000004141773E0808000068
:10036000020301030203010011241FBECFEFD4E0FA
:10037000DEBFCDBF13E0A0E0B1E0E6E6FCE102C0E5
:1003800005900D92AC39B107D9F723E0ACE9B3E0A1
:1003900001C01D92AC3EB207E1F70E94D3010C945C
:1003A000310E0C940000CF93DF93CDB7DEB72B97BF
:1003B0000FB6F894DEBF0FBECDBF0E947E020E9432
:1003C00099060E944D050E94C9080E949B070E9441
:1003D000B40281E090E09A83898386E08B830F2EBC
:1003E000FEE3AF2EF2E0BF2EF02D6894662461F894
:1003F000772473940F2EF6ECCF2EF1E0DF2EF02D44
:100400000F2EF6EEEF2EF1E0FF2EF02D0BE112E0B5
:1004100080919C03882399F10E949802882E992E3E
:100420000E94A6028C829D828E839F830E94B702C7
:100430008887CE0101960E94B2078D811F928F930B
:100440008C811F928F93DF92CF920E9483098F81BC
:100450001F928F938E811F928F93FF92EF920E9433
:1004600083090E94B7021F928F931F930F930E94DC
:1004700083090FB6F894DEBF0FBECDBFC9CF9FEF83
:100480002FE781E0915020408040E1F700C000C09C
:100490000E9425064C01009709F4BACF6DE272E084
:1004A0000E942F09892B11F4198611C062E372E0B2
:1004B000C4010E942F09892B11F4798608C069E3D1
:1004C00072E0C4010E942F09892B09F4698689858D
:1004D0001F928F93BF92AF920E9483090F900F904B
:1004E0000F900F9095CF5D9BFECF8CB980E090E090
:1004F00008955F9BFECF8CB190E0089510BC8FE112
:1005000089B988E18AB98EE880BD69E772E083E73E
:1005100092E00E943809089500C000C00000E0E0A9
:10052000F4E1808382E68A95F1F7000080810895E6
:10053000CF9385E090E00E948C02C82F84E090E089
:100540000E948C02982F8C2FCF910895CF9386E034
:1005500090E00E948C02C82F87E090E00E948C02FD
:10056000982F8C2FCF910895B898C09A089586B38C
:1005700081700895CF93DF93EC010E949802BE0131
:1005800061587F4F4FE750E04C1B5D0B292F30E047
:100590004217530764F4261737074CF4E82FF0E0AE
:1005A0004E175F0784F5E617F7076CF58FC06217E3
:1005B00073079CF4E82FF0E04E175F0724F5E61769
:1005C000F7070CF581E492E09F938F930E948309D3
:1005D0000F900F9081E090E084C0241735079CF4C1
:1005E000E82FF0E04E175F0774F4E617F7075CF4A6
:1005F00085E492E09F938F930E9483090F900F9060
:1006000082E090E06EC090E0681779079CF4421792
:1006100053070CF05EC0261737070CF05AC083E66C
:1006200092E09F938F930E9483090F900F9083E035
:1006300090E057C0841795074CF5421753070CF00C
:100640004CC0261737070CF048C08FE692E09F9306
:100650008F930E9483090F900F9084E090E041C037
:100660008BE492E09F938F930E9483090F900F90E9
:1006700085E090E036C085E592E09F938F930E94DD
:1006800083090F900F9086E090E02BC02417350768
:10069000E4F4681779075CF48EE592E09F938F93FA
:1006A0000E9483090F900F9087E090E01AC0841792
:1006B00095075CF48AE692E09F938F930E948309EA
:1006C0000F900F9088E090E00CC00BC080E090E0AD
:1006D00008C06217730724F2D9CF621773075CF260
:1006E000D5CFDF91CF910895E0910301F0910401FE
:1006F00080830895E0910101F091020180830895C3
:10070000E0910301F09104011082E0910301F09166
:10071000040180E18083E0910301F091040180EB0A
:1007200080831092E1031092E003089590EB980FFC
:10073000E0910301F091040190838093E103089517
:10074000882394F0982F9F70E0910301F0910401A9
:100750009083982F92959F70905FE0910301F091A4
:10076000040190838093E0030895CF93C62F0E94E5
:1007700096038C2F0E94A003CF910895CF93909160
:10078000E003973700F5282F880F330B20523109EB
:10079000220F331F220F331F220F331FF901E0599D
:1007A000FF4F28583F4F8491A0910101B091020161
:1007B0008C938091E0038F5F8093E0033196E21782
:1007C000F30789F70CC0C82F8091E1038F5F8093F6
:1007D000E10360E00E94B5038C2F0E94BE03CF911D
:1007E0000895CF93DF93EC018881882331F021961F
:1007F0000E94BE0389918111FBCFDF91CF910895B3
:100800000E94960380E890E0E0910101F0910201DE
:1008100010820197C9F70895CF93C0E08C2F0E94F2
:100820000004CF5FC830D1F70E948003CF910895B4
:100830000E940C040E948003089585E792E09F9334
:100840008F930E948309E0910301F09104018EEAE5
:100850008083E0910301F091040181EA8083E091BB
:100860000301F09104018AED8083E0910301F0918E
:10087000040182E18083E0910301F091040188EC9E
:100880008083E0910301F091040188EA8083E09184
:100890000301F09104018FE38083E0910301F09163
:1008A000040185ED8083E0910301F091040180E86B
:1008B0008083E0910301F091040181E88083E0915D
:1008C0000301F091040180E58083E0910301F09140
:1008D000040189ED8083E0910301F091040181E23C
:1008E0008083E0910301F091040180E28083E09134
:1008F0000301F091040182E08083E0910301F09113
:1009000004018BED8083E0910301F091040180E309
:100910008083E0910301F09104018DEA8083E091EE
:100920000301F09104011082E0910301F0910401B0
:1009300084EA8083E0910301F091040186EA8083D8
:10094000E0910301F09104018FEA808385E992E050
:100950009F938F930E9483090F900F900F900F9099
:1009600008950F931F93CF93DF93CDB7DEB72897EA
:100970000FB6F894DEBF0FBECDBF09831A832B8359
:100980003C834D835E836F83788728E0FE01319638
:10099000DC0101900D922A95E1F7FC011186108689
:1009A00013861286158614861786168628960FB625
:1009B000F894DEBF0FBECDBFDF91CF911F910F9195
:1009C0000895CF93DF9360E00E94B503C0E1D0E0CB
:1009D00080E00E947A032197D9F7DF91CF910895A3
:1009E000CF93DF93EC010297039778F48091BD03D6
:1009F00090E00E94E10460E08C2F0E94B5038FE03C
:100A000091E00E94F103C093BD038FEF9FE724E0C4
:100A1000815090402040E1F700C00000DF91CF916D
:100A20000895CF93DF93EC010E940C04D093DF0371
:100A3000C093DE0382E08093BD0382E090E00E94D9
:100A4000F0046AE080E00E94B503888199810E94E9
:100A5000F10364E182E00E94B5038A819B810E94D8
:100A6000F10364E183E00E94B5038C819D810E94C3
:100A7000F10364E184E00E94B5038E819F810E94AE
:100A8000F1032FEF8FE797E0215080409040E1F78E
:100A900000C00000DF91CF9108950F931F93CF9373
:100AA000DF93CDB7DEB7E0970FB6F894DEBF0FBE89
:100AB000CDBF0E941D040E940C042FEF8FE797E02A
:100AC000215080409040E1F700C000008CEB91E0A5
:100AD000082F9A83898382EB91E0282F9C838B8354
:100AE00086EA91E0482F9E838D838DE991E0682FFF
:100AF00098878F8382E991E09A8789878DE891E0D2
:100B00009C878B8786E891E09E878D8781E891E0BE
:100B1000988B8F8786E791E09A8B898B84E691E0AA
:100B20009C8B8B8B80E591E09E8B8D8B8EE391E08F
:100B3000988F8F8B85E391E09A8F898F89E291E07E
:100B40009C8F8B8F8EE191E09E8F8D8F82E191E063
:100B500098A38F8F1A813C815E817885CE01819622
:100B60000E94B10480E1FE01B196AEEBB3E00190CA
:100B70000D928A95E1F709851A852B853C854D856F
:100B80005E856F857889CE0181960E94B10480E1EF
:100B9000FE01B196AEECB3E001900D928A95E1F7BB
:100BA00009891A892B893C894D895E896F89788DDD
:100BB000CE0181960E94B10480E1FE01B196ADE9BB
:100BC000B3E001900D928A95E1F7098D1A8D2B8D76
:100BD0003C8D4D8D5E8D6F8D78A1CE0181960E94EA
:100BE000B10480E1FE01B196ADEAB3E001900D924F
:100BF0008A95E1F7EEEBF3E02EEC33E033872287C2
:100C00008DE993E0958784874DEA53E057874687BF
:100C1000D9011996FC93EE931897DC011996FC9371
:100C2000EE931897DA011996FC93EE931897CF017B
:100C30000E941105E0960FB6F894DEBF0FBECDBF3F
:100C4000DF91CF911F910F910895CF93DF9382E3AE
:100C500090E00E94BA02EC018130910539F4809154
:100C6000BD0390E001970E94F0041AC08230910504
:100C700049F48091BD0390E001960E94F00480E069
:100C800090E050C0049761F4E091DE03F091DF033F
:100C900080859185009709F443C00E94110540C0EA
:100CA0002397C1F58091BD038330A1F0843011F109
:100CB000823099F5E091DE03F091DF038285938520
:100CC000009729F00E94110580E090E02BC08281FE
:100CD000938128C0E091DE03F091DF038485958540
:100CE000009729F00E94110580E090E01BC08481EC
:100CF000958118C0E091DE03F091DF03868597852A
:100D0000009729F00E94110580E090E00BC08681D9
:100D1000978108C080E090E005C080E090E002C0CC
:100D200080E090E0DF91CF91089585B7806885BF1E
:100D30000895CF92DF92EF92FF920F931F93CF937C
:100D4000DF930E94950686EB92E00E9499090E942B
:100D50001F097C010E942409C12CD12CC0E0D0E0E5
:100D60000CEC12E00E941F09F601F85E80832081DE
:100D70002817A1F099279F938F931F922F93DF92AB
:100D8000CF921F930F930E94830921968DB79EB730
:100D900008960FB6F8949EBF0FBE8DBF9FEFC91A7D
:100DA000D90AC11488E0D806E9F6C7010E942409CF
:100DB00000E010E0E12CF12C0F2EF5E0CF2EF3E057
:100DC000DF2EF02D0E941F09F801F85E2081281700
:100DD000B1F099279F938F931F922F931F930F9397
:100DE000DF92CF920E9483099FEFE91AF90A8DB72B
:100DF0009EB708960FB6F8949EBF0FBE8DBF0F5FCB
:100E00001F4F011598E01907E9F6FF92EF92DF9363
:100E1000CF9382E493E09F938F930E9483090F9076
:100E20000F900F900F900F900F90DF91CF911F9127
:100E30000F91FF90EF90DF90CF90089580EB87BBEC
:100E400081E58DB908958FB9779BFECF8FB1089555
:100E5000C4980895C49A08950E94280780EC0E94BF
:100E600023070E942A070895CF93C82F0E942807BE
:100E700083E00E9423078C2F0E9423078C2F0E945F
:100E80002307C82F0E942A078C2FCF9108950E9414
:100E90001E070E942C078FEF9FE20197F1F700C019
:100EA000000080E00895CF93DF93D82FC62F0E94D3
:100EB000280782E00E9423078D2F0E9423078C2F92
:100EC0000E9423070E942A07DF91CF910895CF93B4
:100ED000C82F0E9428078C2F0E9423070E942A07F0
:100EE000CF910895CF930E94280780EA0E9423079C
:100EF00080E00E942307C82F0E942A078C2FCF91E1
:100F000008951F93CF93DF93182FD62FC42F0E94DD
:100F1000280785E00E942307812F0E9423078D2F39
:100F20000E9423078C2F0E9423070E942A07DF912B
:100F3000CF911F9108950E94470740E060EE8FE037
:100F40000E94810743E063E08BE20E94810740E654
:100F500060E680E60E94810740E064E080E60E944F
:100F6000810708950F931F93CF938C01FC0140815B
:100F700051815695479556954795569547956FEFEC
:100F800081E30E948107F80140814295440F407E31
:100F90006FEF82E30E948107F80142816FE085E3F1
:100FA0000E948107F8018281882379F0C0E0F8016E
:100FB000EC0FF11D43816FEF86E38C0F0E948107D8
:100FC000CF5FF8018281C81790F381E80E9467071C
:100FD000CF911F910F9108959F92AF92BF92CF92A0
:100FE000DF92EF92FF920F931F93CF93DF93CDB7D2
:100FF000DEB72B970FB6F894DEBF0FBECDBF5C01F6
:101000008CE20E94340780FF31C081E60E943407E1
:10101000E82E82E60E943407829586958770F12C2F
:10102000EE0CFF1CEE0CFF1CEE0CFF1CE82A85E604
:101030000E943407082F0F7099F06E0184E0C80EEB
:10104000D11C0F2EF6E69F2EF02D900E16E6812F66
:101050000E943407F60181936F011F5F1911F7CFCA
:1010600040E061E08CE20E94810732C081FF30C025
:1010700081E70E943407E82E82E70E9434078295B8
:1010800086958770F12CEE0CFF1CEE0CFF1CEE0C0D
:10109000FF1CE82A85E70E943407082F0F7099F09B
:1010A0006E01F4E0CF0ED11C0F2EF6E79F2EF02D2F
:1010B000900E16E7812F0E943407F60181936F018D
:1010C0001F5F1911F7CF40E062E08CE20E948107B8
:1010D000FA82E9820B838BE0FE013196D501019003
:1010E0000D928A95E1F7C5012B960FB6F894DEBFF5
:1010F0000FBECDBFDF91CF911F910F91FF90EF9069
:10110000DF90CF90BF90AF909F9008951F920F9265
:101110000FB60F9211242F933F934F935F936F93CA
:101120007F938F939F93AF93BF93EF93FF93CF934F
:10113000DF93CDB7DEB72B97DEBFCDBFCE010196D3
:101140000E94EC078A818F9389818F9389E292E0D4
:101150009F938F930E9483090F900F900F900F9091
:101160002B960FB6F894DEBF0FBECDBFDF91CF91A7
:10117000FF91EF91BF91AF919F918F917F916F916F
:101180005F914F913F912F910F900FBE0F901F9045
:1011900018953298F89486B7816086BF8BB78064C3
:1011A0008BBF789408958F929F92AF92BF92CF9207
:1011B000DF92EF92FF92CF93DF93EC016881798108
:1011C0008A819B81611571058105910521F464E295
:1011D00079ED8BE597E02DE133EF41E050E00E949F
:1011E000970D49015A019B01AC01A7EAB1E40E94A5
:1011F000B60D6B017C01ACEEB4EFA50194010E9429
:10120000C40DDC01CB018C0D9D1DAE1DBF1DB7FFB4
:1012100003C00197A109B04888839983AA83BB833F
:101220009F77DF91CF91FF90EF90DF90CF90BF90AD
:10123000AF909F908F9008950E94D308089585E005
:1012400091E00E94D3080895A0E0B0E080930501EA
:1012500090930601A0930701B09308010895FB0144
:10126000DC018D91019080190110D9F3990B08953B
:101270000F931F93CF93DF93009731F4611571059E
:1012800019F480E090E03AC08B01EC016EE070E070
:1012900081E090E00E949B0BFC01892B91F380E898
:1012A00083830115110571F01387028781E8838319
:1012B0008091E2039091E303892B21F4F093E303FF
:1012C000E093E2032097C9F0D187C08783818260D1
:1012D00083838091E4039091E503892B71F4F0936B
:1012E000E503E093E4038091E6039091E703892B03
:1012F00021F4F093E703E093E603CF01DF91CF9170
:101300001F910F910895A0E0B0E0E9E8F9E00C9496
:10131000D90DAE014B5F5F4FFA0161917191AF0141
:101320008091E4039091E5030E94C909E2E00C94E6
:10133000F50D0F931F93CF93DF93E091E403F091AA
:10134000E503238121FF1BC08C01D0E0C0E0F80140
:1013500081918F016091E4037091E503DB011896A0
:10136000ED91FC911997882331F00995892B79F338
:10137000DFEFCFEFECCF8AE00995892B19F08FEFE3
:101380009FEF02C08D2F9C2FDF91CF911F910F9166
:101390000895ACE0B0E0EFECF9E00C94C90D7C01ED
:1013A0006B018A01FC0117821682838181FFBDC116
:1013B000CE0101964C01F7019381F60193FD8591D1
:1013C00093FF81916F01882309F4ABC1853239F411
:1013D00093FD859193FF81916F01853229F4B701C7
:1013E00090E00E94010DE7CF512C312C20E02032FB
:1013F000A0F48B3269F030F4803259F0833269F412
:1014000020612CC08D3239F0803339F4216026C040
:101410002260246023C0286021C027FD27C030ED52
:10142000380F3A3078F426FF06C0FAE05F9E300DA0
:101430001124532E13C08AE0389E300D1124332E10
:1014400020620CC08E3221F426FD6BC1206406C0E0
:101450008C3611F4206802C0883641F4F60193FD01
:10146000859193FF81916F018111C1CF982F9F7D4D
:101470009554933028F40C5F1F4FFFE3F9830DC0A0
:10148000833631F0833771F0833509F05BC022C0B9
:10149000F801808189830E5F1F4F44244394512CAF
:1014A000540115C03801F2E06F0E711CF801A080E4
:1014B000B18026FF03C0652D70E002C06FEF7FEFA3
:1014C000C5012C870E94F60C2C0183012C852F77F7
:1014D000222E17C03801F2E06F0E711CF801A080B7
:1014E000B18026FF03C0652D70E002C06FEF7FEF73
:1014F000C5012C870E94E40C2C012C852068222E2B
:10150000830123FC1BC0832D90E048165906B0F4DC
:10151000B70180E290E00E94010D3A94F4CFF5010A
:1015200027FC859127FE81915F01B70190E00E9421
:10153000010D31103A94F1E04F1A51084114510451
:1015400071F7E5C0843611F0893639F5F80127FFC7
:1015500007C060817181828193810C5F1F4F08C039
:1015600060817181072E000C880B990B0E5F1F4F55
:101570002F76722E97FF09C0909580957095619592
:101580007F4F8F4F9F4F2068722E2AE030E0A401DA
:101590000E94390DA82EA81844C0853729F42F7E43
:1015A000B22E2AE030E025C0F22FF97FBF2E8F3611
:1015B000C1F018F4883579F0B4C0803719F0883755
:1015C00021F0AFC02F2F2061B22EB4FE0DC08B2DA5
:1015D0008460B82E09C024FF0AC09F2F9660B92EE0
:1015E00006C028E030E005C020E130E002C020E184
:1015F00032E0F801B7FE07C060817181828193817A
:101600000C5F1F4F06C06081718180E090E00E5F2B
:101610001F4FA4010E94390DA82EA818FB2DFF779B
:101620007F2E76FE0BC0372D3E7FA51450F474FE3E
:101630000AC072FC08C0372D3E7E05C0BA2C372D7B
:1016400003C0BA2C01C0B52C34FF0DC0FE01EA0D59
:10165000F11D8081803311F4397E09C032FF06C04C
:10166000B394B39404C0832F867809F0B39433FD08
:1016700013C030FF06C05A2CB31418F4530C5B1877
:10168000B32CB31468F4B70180E290E03C870E9469
:10169000010DB3943C85F5CFB31410F43B1801C091
:1016A000312C34FF12C0B70180E390E03C870E94E8
:1016B000010D3C8532FF17C031FD03C088E790E083
:1016C00002C088E590E0B7010CC0832F867859F0FE
:1016D00031FF02C08BE201C080E237FD8DE2B7012D
:1016E00090E00E94010DA51438F4B70180E390E06A
:1016F0000E94010D5A94F7CFAA94F401EA0DF11D4E
:101700008081B70190E00E94010DA110F5CF332038
:1017100009F451CEB70180E290E00E94010D3A94A5
:10172000F6CFF7018681978102C08FEF9FEF2C964D
:10173000E2E10C94E50D0F931F93CF93DF93869F07
:101740008001879F100D969F100D1124C8010E94E3
:10175000B70BEC01009729F0A80160E070E00E944F
:10176000EF0CCE01DF91CF911F910F910895CF9390
:10177000DF938230910510F482E090E0E091EA037B
:10178000F091EB0320E030E0C0E0D0E0309711F1C1
:101790004081518148175907C0F04817590761F433
:1017A00082819381209719F09B838A832BC0909329
:1017B000EB038093EA0326C02115310519F0421787
:1017C000530718F49A01BE01DF01EF010280F38193
:1017D000E02DDCCF2115310509F1281B390B243010
:1017E000310590F412968D919C91139761157105B6
:1017F00021F0FB019383828304C09093EB038093D9
:10180000EA03FD01329644C0FD01E20FF31F81930C
:101810009193225031092D933C933AC02091E803D3
:101820003091E903232B41F420910B0130910C01FD
:101830003093E9032093E8032091090130910A01D4
:101840002115310541F42DB73EB740910D0150915E
:101850000E01241B350BE091E803F091E903E21738
:10186000F307A0F42E1B3F0B2817390778F0AC01C3
:101870004E5F5F4F2417350748F04E0F5F1F5093A0
:10188000E9034093E8038193919302C0E0E0F0E024
:10189000CF01DF91CF9108950F931F93CF93DF93E3
:1018A000009709F48CC0FC013297138212820091D8
:1018B000EA031091EB030115110581F420813181B8
:1018C000820F931F2091E8033091E903281739070D
:1018D00079F5F093E903E093E80371C0D80140E0A3
:1018E00050E0AE17BF0750F412962D913C9113971C
:1018F000AD012115310509F1D901F3CF9D01DA01BF
:101900003383228360817181860F971F821793072B
:1019100069F4EC0128813981260F371F2E5F3F4F74
:10192000318320838A819B8193838283452B29F491
:10193000F093EB03E093EA0342C01396FC93EE931B
:101940001297ED01499159919E01240F351FE2171D
:10195000F30771F480819181840F951F029611968F
:101960009C938E938281938113969C938E9312976E
:10197000E0E0F0E0D80112968D919C9113970097CA
:1019800019F0F8018C01F6CF8D919C9198012E5F92
:101990003F4F820F931F2091E8033091E9032817EE
:1019A000390769F4309729F41092EB031092EA0397
:1019B00002C0138212821093E9030093E803DF91BF
:1019C000CF911F910F910895FC01059061507040D7
:1019D0000110D8F7809590958E0F9F1F0895DC0118
:1019E00001C06D9341505040E0F70895FC016150F3
:1019F000704001900110D8F7809590958E0F9F1F31
:101A000008950F931F93CF93DF93FB01238121FD53
:101A100003C08FEF9FEF28C022FF16C04681578179
:101A2000248135814217530744F4A081B1819D017F
:101A30002F5F3F4F318320838C93268137812F5F27
:101A40003F4F3783268310C0EB01092F182F0084E6
:101A5000F185E02D0995892BE1F68E819F81019614
:101A60009F838E83812F902FDF91CF911F910F91B4
:101A70000895FA01AA27283051F1203181F1E89424
:101A80006F936E7F6E5F7F4F8F4F9F4FAF4FB1E071
:101A90003ED0B4E03CD0670F781F891F9A1FA11D6C
:101AA000680F791F8A1F911DA11D6A0F711D811D6D
:101AB000911DA11D20D009F468943F912AE0269F32
:101AC00011243019305D3193DEF6CF010895462F91
:101AD0004770405D4193B3E00FD0C9F7F6CF462F72
:101AE0004F70405D4A3318F0495D31FD40524193DB
:101AF00002D0A9F7EACFB4E0A69597958795779598
:101B00006795BA95C9F700976105710508959B011E
:101B1000AC010A2E06945795479537952795BA95A7
:101B2000C9F7620F731F841F951FA01D0895052E0E
:101B300097FB1EF400940E94AE0D57FD07D00E9443
:101B4000000E07FC03D04EF40C94AE0D509540955A
:101B5000309521953F4F4F4F5F4F08959095809559
:101B6000709561957F4F8F4F9F4F08950E94220E71
:101B7000A59F900DB49F900DA49F800D911D1124E1
:101B80000895B7FF0C94B60D0E94B60D821B930BFF
:101B900008952F923F924F925F926F927F928F9211
:101BA0009F92AF92BF92CF92DF92EF92FF920F93EC
:101BB0001F93CF93DF93CDB7DEB7CA1BDB0B0FB6F6
:101BC000F894DEBF0FBECDBF09942A8839884888B3
:101BD0005F846E847D848C849B84AA84B984C88449
:101BE000DF80EE80FD800C811B81AA81B981CE0F40
:101BF000D11D0FB6F894DEBF0FBECDBFED01089525
:101C0000A1E21A2EAA1BBB1BFD010DC0AA1FBB1F00
:101C1000EE1FFF1FA217B307E407F50720F0A21B72
:101C2000B30BE40BF50B661F771F881F991F1A94DF
:101C300069F760957095809590959B01AC01BD0109
:101C4000CF010895A29FB001B39FC001A39F700D63
:101C5000811D1124911DB29F700D811D1124911DB4
:061C60000895F894FFCF87
:101C66000A00120010010000000000EC0320002D05
:101C76003E00417765736F6D656E657373004272E2
:101C8600696768746E6573730053656E736974690A
:101C9600766974790053657474696E677300486970
:101CA600676853636F726573202D20486172640004
:101CB6004869676853636F726573202D204D6564AC
:101CC60069756D004869676853636F726573202D87
:101CD6002045617379004869676853636F7265735D
:101CE6000048617264004D656469756D00456173F5
:101CF6007900446966666963756C74790053657426
:101D060074696E677300486967682053636F72650C
:101D16007300506C61792047616D65004D61696E95
:101D2600204D656E75005820706F736974696F6E0B
:101D36003A2025642C205920706F736974696F6E80
:101D46003A2025640A00536C69646572204C656606
:101D56007420706F736974696F6E3A2025642C2045
:101D6600536C6964657220726967687420706F735A
:101D76006974696F6E3A2025640A00425554544FBF
:101D86004E2050524553533A2025640A004561734C
:101D960079004D656469756D00486172640025645B
:101DA6000055500D00444F574E0D0055502D5249C9
:101DB6004748540D0055502D4C4546540D00444F90
:101DC600574E2D52494748540D00444F574E2D4CFF
:101DD6004546540D005374617274696E67204F4C0A
:101DE600454420496E697469616C697A696E672E2B
:101DF6002E2E0A0D002E2E2E4F4C454420496E697C
:101E06007469616C697A696E6720436F6D706C6581
:101E16007465210A0D005374617274696E672053EC
:101E260052414D20746573742E2E2E0057726974BC
:101E360065207068617365206572726F723A2065FD
:101E460078745F72616D5B2534645D203D202530BA
:101E56003258202873686F756C64206265202530BF
:101E66003258290A0052657472696576616C207071
:101E760068617365206572726F723A206578745F67
:101E860072616D5B2534645D203D2025303258201B
:101E96002873686F756C6420626520253032582976
:101EA6000A005352414D207465737420636F6D7040
:101EB6006C657465642077697468200A253464202B
:101EC6006572726F727320696E207772697465200D
:101ED600706861736520616E64200A25346420652C
:101EE60072726F727320696E20726574726965769C
:0C1EF600616C2070686173650A0A0000CE
:00000001FF
