:100000000C94B4010C947C020C94D1010C94D10199
:100010000C94D1010C94D1010C94D1010C94D10118
:100020000C94D1010C94D1010C94D1010C94D10108
:100030000C94D1010C94D1010C94D1010C94D101F8
:100040000C94D1010C94D1010C94D1010C94D101E8
:100050000C94D1010C94D1010C94D1010C94D101D8
:100060000C94D1010C94D1010C94D1010C94D101C8
:10007000000000000000000000065F5F06000000B6
:100080000007070007070000147F7F147F7F14001C
:10009000242E6B6B3A120000466630180C66620024
:1000A000307A4F5D377A48000407030000000000F3
:1000B000001C3E63410000000041633E1C00000044
:1000C000082A3E1C1C3E2A0808083E3E080800007C
:1000D00000A0E06000000000080808080808000010
:1000E00000006060000000006030180C0603010092
:1000F0003E7F594D7F3E000042427F7F40400000DE
:10010000627359496F660000226349497F360000D7
:10011000181C16137F7F1000276745457D390000A6
:100120003C7E4B4979300000036371190F070000D2
:10013000367F49497F360000064F49693F1E00005F
:1001400000006C6C0000000000A0EC6C00000000DF
:10015000081C366341000000141414141414000029
:10016000004163361C080000020351590F060000CD
:100170003E7F415D5D1F1E007C7E13137E7C000070
:10018000417F7F49497F36001C3E63414163220025
:10019000417F7F41637F1C00417F7F495D41630058
:1001A000417F7F491D0103001C3E63415173720072
:1001B0007F7F08087F7F000000417F7F41000000B3
:1001C000307040417F3F0100417F7F081C77630012
:1001D000417F7F41406070007F7F060C067F7F007B
:1001E0007F7F060C187F7F001C3E6341633E1C002E
:1001F000417F7F49090F06001E3F21717F5E00008D
:10020000417F7F19396F460026674D597B320000C8
:1002100003417F7F410300007F7F40407F7F0000DC
:100220001F3F60603F1F00007F7F3018307F7F00DE
:1002300063771C081C776300074F78784F0700002E
:100240006773594D47637100007F7F414100000093
:100250000103060C183060000041417F7F00000060
:10026000080C0603060C0800808080808080808057
:100270000000030704000000207454543C78400040
:10028000413F7F44447C3800387C44446C28000063
:10029000307848493F7F4000387C54545C18000057
:1002A000487E7F490302000098BCA4A4F87C0400A7
:1002B000417F7F08047C780000447D7D4000000081
:1002C00040C484FD7D000000417F7F10386C4400F5
:1002D00000417F7F400000007C7C0C180C7C780083
:1002E0007C7C04047C780000387C44447C3800002A
:1002F00084FCF8A4243C1800183C24A4F8FC8400D6
:10030000447C78441C180000485C54547424000059
:1003100000043E7F442400003C7C40403C7C400084
:100320001C3C60603C1C00003C7C6030607C3C00FD
:10033000446C3810386C44009CBCA0A0FC7C0000CD
:100340004C64745C4C64000008083E774141000036
:1003500000000077770000004141773E0808000068
:10036000020301030203010011241FBECFEFD4E0FA
:10037000DEBFCDBF13E0A0E0B1E0E0EBFCE102C0E6
:1003800005900D92A431B107D9F723E0A4E1B3E0C1
:1003900001C01D92A836B207E1F70E94D3010C9468
:1003A000560E0C940000CF93DF93CDB7DEB766975F
:1003B0000FB6F894DEBF0FBECDBF0E9496020E941A
:1003C0009A060E949E0684E193E00E9424050E9402
:1003D000B9080E94CE070E94CC0281E090E09A8387
:1003E000898384E08B830F2EFBECCF2EF1E0DF2E90
:1003F000F02D6894882481F8992493940F2EFDE8B9
:10040000AF2EF1E0BF2EF02D04E113E09091180320
:10041000992389F10E94B002F82E0E94BE02FC824C
:100420009D830E94CF028E83CE0101960E94E50734
:1004300080911703882351F310921703CE010C9675
:100440000E941F088F858111E1CF10921803BF927F
:10045000AF920E949809F888F80180810F900F9060
:100460008F15C8F5F08237C0F8019183F282C80178
:100470000E942405CBCF0E942A067C01009731F20E
:100480006AEB71E00E941F09892B21F41F82909270
:10049000180315C06FEB71E0C7010E941F09892B7B
:1004A00021F49F82909218030AC066EC71E0C701A4
:1004B0000E941F09892B19F48F82909218038F8153
:1004C0001F928F93DF92CF920E9498090F900F9006
:1004D0000F900F909BCFF801918181818F1510F4BF
:1004E0009083F182C8010E942405F80192818281E3
:1004F0008F1508F4B9CFBBCF1F920F920FB60F9292
:1005000011248F9381E0809317038F910F900FBE7A
:100510000F901F9018955D9BFECF8CB980E090E006
:1005200008955F9BFECF8CB190E0089510BC8FE1E1
:1005300089B988E18AB98EE880BD61E972E08BE80B
:1005400092E00E944D09089500C000C00000E0E064
:10055000F4E1808382E68A95F1F7000080810895B6
:10056000CF9385E090E00E94A402C82F84E090E041
:100570000E94A402982F8C2FCF910895CF9386E0EC
:1005800090E00E94A402C82F87E090E00E94A4029D
:10059000982F8C2FCF910895B898C09A089586B35C
:1005A00081700895CF93DF93EC010E94B002BE01E9
:1005B00061587F4F4FE750E04C1B5D0B292F30E017
:1005C0004217530764F4261737074CF4E82FF0E07E
:1005D0004E175F07DCF4E617F707C4F436C062175E
:1005E00073074CF4E82FF0E04E175F077CF4E61732
:1005F000F70764F42DC02417350744F4E82FF0E022
:100600004E175F071CF4E617F7072CF190E0681708
:1006100079073CF442175307BCF526173707A4F5B2
:100620001DC0841795073CF4421753074CF5261755
:10063000370734F516C02417350734F468177907DF
:100640009CF0841795079CF023C080E090E020C0C8
:1006500081E090E01DC082E090E01AC083E090E06D
:1006600017C084E090E014C087E090E011C088E0FB
:1006700090E00EC086E090E00BC085E090E008C0FE
:1006800062177307BCF3D7CF62177307B4F3D3CFE6
:10069000DF91CF910895E0910201F09103018083F1
:1006A0000895E0910001F091010180830895E091A7
:1006B0000201F09103011082E0910201F091030127
:1006C00080E18083E0910201F091030180EB80835F
:1006D00010925D0310925C03089590EB980FE091E7
:1006E0000201F0910301908380935D0308958823B4
:1006F00094F0982F9F70E0910201F0910301908394
:10070000982F92959F70905FE0910201F091030104
:10071000908380935C030895CF93C62F0E946D034E
:100720008C2F0E947703CF910895CF9390915C0313
:10073000973700F5282F880F330B20523109220FED
:10074000331F220F331F220F331FF901E059FF4FD0
:1007500028583F4F8491A0910001B09101018C93E2
:1007600080915C038F5F80935C033196E217F307FF
:1007700089F70CC0C82F80915D038F5F80935D0364
:1007800060E00E948C038C2F0E949503CF91089506
:10079000CF93DF93EC018881882331F021960E946A
:1007A000950389918111FBCFDF91CF9108950E942C
:1007B0006D0380E890E0E0910001F091010110826A
:1007C0000197C9F70895CF93C0E08C2F0E94D703FB
:1007D000CF5FC830D1F70E945703CF9108950E9490
:1007E000E3030E94570308958EEC91E09F938F934B
:1007F0000E949809E0910201F09103018EEA808342
:10080000E0910201F091030181EA8083E09102010D
:10081000F09103018AED8083E0910201F0910301E0
:1008200082E18083E0910201F091030188EC8083F2
:10083000E0910201F091030188EA8083E0910201D6
:10084000F09103018FE38083E0910201F0910301B5
:1008500085ED8083E0910201F091030180E88083BF
:10086000E0910201F091030181E88083E0910201AF
:10087000F091030180E58083E0910201F091030192
:1008800089ED8083E0910201F091030181E2808390
:10089000E0910201F091030180E28083E091020186
:1008A000F091030182E08083E0910201F091030165
:1008B0008BED8083E0910201F091030180E380835E
:1008C000E0910201F09103018DEA8083E091020141
:1008D000F09103011082E0910201F091030184EA9A
:1008E0008083E0910201F091030186EA8083E09128
:1008F0000201F09103018FEA80838EEE91E09F93D5
:100900008F930E9498090F900F900F900F90089569
:100910000F931F93CF93DF93CDB7DEB728970FB612
:10092000F894DEBF0FBECDBF09831A832B833C83AF
:100930004D835E836F83788728E0FE013196DC016A
:1009400001900D922A95E1F7FC011186108613861D
:100950001286158614861786168628960FB6F89482
:10096000DEBF0FBECDBFDF91CF911F910F910895D4
:10097000CF93DF9360E00E948C03C0E1D0E080E081
:100980000E9451032197D9F7DF91CF910895CF931A
:10099000DF93EC010297039778F48091390390E09C
:1009A0000E94B80460E08C2F0E948C038EE091E0DE
:1009B0000E94C803C09339038FEF9FE724E0815062
:1009C00090402040E1F700C00000DF91CF910895F2
:1009D000CF93DF93EC010E94E303D0935B03C093BA
:1009E0005A0382E08093390382E090E00E94C704BA
:1009F0006AE080E00E948C03888199810E94C8038C
:100A000064E182E00E948C038A819B810E94C8037A
:100A100064E183E00E948C038C819D810E94C80365
:100A200064E184E00E948C038E819F810E94C80350
:100A30002FEF8FE797E0215080409040E1F700C012
:100A40000000DF91CF910895CF92DF92EF92FF9255
:100A50000F931F93CF93DF93CDB7DEB7C056D10965
:100A60000FB6F894DEBF0FBECDBF8C010E94F40319
:100A70000E94E3032FEF8FE797E0215080409040E2
:100A8000E1F700C0000083E891E09A83898389E759
:100A900091E09C838B838DE691E09E838D8384E639
:100AA00091E098878F8389E591E09A87898784E52B
:100AB00091E09C878B878DE491E09E878D8788E409
:100AC00091E0988B8F878DE391E09A8B898BD80189
:100AD0008C917E01B1E2EB0EF11C4AE0B70190E08F
:100AE0000E942809F80181816E01F1E3CF0ED11C2B
:100AF0004AE0B60190E00E942809D80112968C9134
:100B00008E010F5B1F4F4AE0B80190E00E94280958
:100B10001C8B0B8BDE8ACD8AF88EEF8A84E391E002
:100B20009A8F898F88E291E09C8F8B8F8DE191E085
:100B30009E8F8D8F81E191E098A38F8F09811A811B
:100B40002B813C814D815E816F817885CE018F5AEA
:100B50009F4F0E94880480E1FE01EF5AFF4FAAE3F5
:100B6000B3E001900D928A95E1F709851A852B85EE
:100B70003C854D855E856F857889CE018F5A9F4F64
:100B80000E94880480E1FE01EF5AFF4FAAE4B3E01F
:100B900001900D928A95E1F709891A892B893C8980
:100BA0004D895E896F89788DCE018F5A9F4F0E9443
:100BB000880480E1FE01EF5AFF4FA9E1B3E0019004
:100BC0000D928A95E1F7098D1A8D2B8D3C8D4D8DF7
:100BD0005E8D6F8D78A1CE018F5A9F4F0E94880441
:100BE00080E1FE01EF5AFF4FA9E2B3E001900D92C0
:100BF0008A95E1F7EAE3F3E02AE433E033872287DA
:100C000089E193E09587848749E253E057874687D7
:100C1000D9011996FC93EE931897DC011996FC9371
:100C2000EE931897DA011996FC93EE931897CF017B
:100C30000E94E804C05ADF4F0FB6F894DEBF0FBE23
:100C4000CDBFDF91CF911F910F91FF90EF90DF907B
:100C5000CF900895CF93DF9382E390E00E94D20279
:100C6000EC018130910539F48091390390E00197CE
:100C70000E94C7041AC08230910549F4809139035B
:100C800090E001960E94C70480E090E050C0049775
:100C900061F4E0915A03F0915B03808591850097A0
:100CA00009F443C00E94E80440C02397C1F5809135
:100CB00039038330A1F0843011F1823099F5E0914D
:100CC0005A03F0915B0382859385009729F00E9477
:100CD000E80480E090E02BC08281938128C0E091FD
:100CE0005A03F0915B0384859585009729F00E9453
:100CF000E80480E090E01BC08481958118C0E091F9
:100D00005A03F0915B0386859785009729F00E942E
:100D1000E80480E090E00BC08681978108C080E005
:100D200090E005C080E090E002C080E090E0DF91BC
:100D3000CF91089585B7806885BF0895CF92DF92DF
:100D4000EF92FF920F931F93CF93DF938FE092E088
:100D50000E94AE090E940F097C010E941409C12C57
:100D6000D12CC0E0D0E005E212E00E940F09F601AC
:100D7000F85E808320812817A1F099279F938F9395
:100D80001F922F93DF92CF921F930F930E94980987
:100D900021968DB79EB708960FB6F8949EBF0FBEEA
:100DA0008DBF9FEFC91AD90AC11488E0D806E9F6A9
:100DB000C7010E94140900E010E0E12CF12C0F2E75
:100DC000FEE5CF2EF2E0DF2EF02D0E940F09F80194
:100DD000F85E20812817B1F099279F938F931F9277
:100DE0002F931F930F93DF92CF920E9498099FEF4A
:100DF000E91AF90A8DB79EB708960FB6F8949EBF08
:100E00000FBE8DBF0F5F1F4F011598E01907E9F660
:100E1000FF92EF92DF93CF938BE992E09F938F93B2
:100E20000E9498090F900F900F900F900F900F90C5
:100E3000DF91CF911F910F91FF90EF90DF90CF90B6
:100E40000895FC01808180930019818180930119AC
:100E50008281809302190895EF92FF920F931F935E
:100E6000CF93DF937C01C0E0D9E104EF12E08881E9
:100E70001F928F931F930F930E9498098991F701F6
:100E800081937F010F900F900F900F90C330F9E185
:100E9000DF0769F7DF91CF911F910F91FF90EF90DE
:100EA000089580EB87BB81E58DB908958FB9779B55
:100EB000FECF8FB10895C4980895C49A08950E94F2
:100EC0005B0780EC0E9456070E945D070895CF9350
:100ED000C82F0E945B0783E00E9456078C2F0E9458
:100EE00056078C2F0E945607C82F0E945D078C2F33
:100EF000CF9108950E9451070E945F078FEF9FE2F4
:100F00000197F1F700C0000080E00895CF93DF93D0
:100F1000D82FC62F0E945B0782E00E9456078D2FB4
:100F20000E9456078C2F0E9456070E945D07DF9192
:100F3000CF910895CF93C82F0E945B078C2F0E94FA
:100F400056070E945D07CF910895CF930E945B07DB
:100F500080EA0E94560780E00E945607C82F0E9430
:100F60005D078C2FCF9108951F93CF93DF93182F98
:100F7000D62FC42F0E945B0785E00E945607812F61
:100F80000E9456078D2F0E9456078C2F0E945607ED
:100F90000E945D07DF91CF911F9108950E947A070B
:100FA00040E060EE8FE00E94B40743E063E08BE234
:100FB0000E94B40740E660E680E60E94B40740E085
:100FC00064E080E60E94B40708950F931F93CF93C7
:100FD0008C01FC0140815181569547955695479566
:100FE000569547956FEF81E30E94B407F801408161
:100FF0004295440F407E6FEF82E30E94B407F801F0
:1010000042816FE085E30E94B407F8018281882362
:1010100079F0C0E0F801EC0FF11D43816FEF86E33A
:101020008C0F0E94B407CF5FF8018281C81790F33C
:1010300081E80E949A07CF911F910F9108959F9286
:10104000AF92BF92CF92DF92EF92FF920F931F93D6
:10105000CF93DF93CDB7DEB72B970FB6F894DEBFF3
:101060000FBECDBF5C018CE20E94670780FF31C0DC
:1010700081E60E946707E82E82E60E946707829554
:1010800086958770F12CEE0CFF1CEE0CFF1CEE0C0D
:10109000FF1CE82A85E60E946707082F0F7099F069
:1010A0006E0184E0C80ED11C0F2EF6E69F2EF02DA7
:1010B000900E16E6812F0E946707F60181936F015B
:1010C0001F5F1911F7CF40E061E08CE20E94B40786
:1010D00032C081FF30C081E70E946707E82E82E7B7
:1010E0000E946707829586958770F12CEE0CFF1C95
:1010F000EE0CFF1CEE0CFF1CE82A85E70E94670738
:10110000082F0F7099F06E01F4E0CF0ED11C0F2E56
:10111000F6E79F2EF02D900E16E7812F0E946707AD
:10112000F60181936F011F5F1911F7CF40E062E074
:101130008CE20E94B407FA82E9820B838BE0FE0105
:101140003196D50101900D928A95E1F7C5012B9654
:101150000FB6F894DEBF0FBECDBFDF91CF911F91C8
:101160000F91FF90EF90DF90CF90BF90AF909F9046
:1011700008953298F89486B7816086BF8BB78064F3
:101180008BBF789408958F929F92AF92BF92CF9227
:10119000DF92EF92FF92CF93DF93EC016881798128
:1011A0008A819B81611571058105910521F464E2B5
:1011B00079ED8BE597E02DE133EF41E050E00E94BF
:1011C000BC0D49015A019B01AC01A7EAB1E40E94A0
:1011D000DB0D6B017C01ACEEB4EFA50194010E9424
:1011E000E90DDC01CB018C0D9D1DAE1DBF1DB7FFB0
:1011F00003C00197A109B04888839983AA83BB8360
:101200009F77DF91CF91FF90EF90DF90CF90BF90CD
:10121000AF909F908F9008950E94C308089584E036
:1012200091E00E94C3080895A0E0B0E0809304011B
:1012300090930501A0930601B09307010895FB0167
:10124000DC018D91019080190110D9F3990B08955B
:10125000BB274A3031F4992322F4BDE29095819561
:101260009F4F0C943409BB27FB015527AA27880FF1
:10127000991FAA1FA41710F0A41B83955051B9F70A
:10128000A05DAA3308F0A95DA193009779F7B11189
:10129000B1931192CB010C94160D0F931F93CF9322
:1012A000DF93009731F46115710519F480E090E047
:1012B0003AC08B01EC016EE070E081E090E00E94AA
:1012C000B00BFC01892B91F380E883830115110594
:1012D00071F01387028781E8838380915E03909188
:1012E0005F03892B21F4F0935F03E0935E03209763
:1012F000C9F0D187C0878381826083838091600336
:1013000090916103892B71F4F0936103E093600382
:101310008091620390916303892B21F4F09363031E
:10132000E0936203CF01DF91CF911F910F91089558
:10133000A0E0B0E0EEE9F9E00C94FE0DAE014B5FE9
:101340005F4FFA0161917191AF01809160039091BB
:1013500061030E94DE09E2E00C941A0E0F931F93C2
:10136000CF93DF93E0916003F0916103238121FF2C
:101370001BC08C01D0E0C0E0F80181918F01609129
:10138000600370916103DB011896ED91FC91199750
:10139000882331F00995892B79F3DFEFCFEFECCF7C
:1013A0008AE00995892B19F08FEF9FEF02C08D2FEE
:1013B0009C2FDF91CF911F910F910895ACE0B0E089
:1013C000E4EEF9E00C94EE0D7C016B018A01FC0166
:1013D00017821682838181FFBDC1CE0101964C0127
:1013E000F7019381F60193FD859193FF81916F0140
:1013F000882309F4ABC1853239F493FD859193FFBD
:1014000081916F01853229F4B70190E00E94260D89
:10141000E7CF512C312C20E02032A0F48B3269F040
:1014200030F4803259F0833269F420612CC08D325F
:1014300039F0803339F4216026C02260246023C053
:10144000286021C027FD27C030ED380F3A3078F4EE
:1014500026FF06C0FAE05F9E300D1124532E13C004
:101460008AE0389E300D1124332E20620CC08E325B
:1014700021F426FD6BC1206406C08C3611F420686F
:1014800002C0883641F4F60193FD859193FF819166
:101490006F018111C1CF982F9F7D9554933028F40F
:1014A0000C5F1F4FFFE3F9830DC0833631F08337A4
:1014B00071F0833509F05BC022C0F8018081898317
:1014C0000E5F1F4F44244394512C540115C0380122
:1014D000F2E06F0E711CF801A080B18026FF03C0FE
:1014E000652D70E002C06FEF7FEFC5012C870E9471
:1014F0000B0D2C0183012C852F77222E17C038016C
:10150000F2E06F0E711CF801A080B18026FF03C0CD
:10151000652D70E002C06FEF7FEFC5012C870E9440
:10152000F90C2C012C852068222E830123FC1BC082
:10153000832D90E048165906B0F4B70180E290E0A0
:101540000E94260D3A94F4CFF50127FC859127FEE1
:1015500081915F01B70190E00E94260D31103A940D
:10156000F1E04F1A51084114510471F7E5C0843677
:1015700011F0893639F5F80127FF07C060817181C4
:10158000828193810C5F1F4F08C060817181072E9B
:10159000000C880B990B0E5F1F4F2F76722E97FF52
:1015A00009C090958095709561957F4F8F4F9F4FA3
:1015B0002068722E2AE030E0A4010E945E0DA82E61
:1015C000A81844C0853729F42F7EB22E2AE030E0D7
:1015D00025C0F22FF97FBF2E8F36C1F018F4883561
:1015E00079F0B4C0803719F0883721F0AFC02F2FC1
:1015F0002061B22EB4FE0DC08B2D8460B82E09C0C0
:1016000024FF0AC09F2F9660B92E06C028E030E064
:1016100005C020E130E002C020E132E0F801B7FE71
:1016200007C060817181828193810C5F1F4F06C06A
:101630006081718180E090E00E5F1F4FA4010E94E5
:101640005E0DA82EA818FB2DFF777F2E76FE0BC00F
:10165000372D3E7FA51450F474FE0AC072FC08C0FA
:10166000372D3E7E05C0BA2C372D03C0BA2C01C0E1
:10167000B52C34FF0DC0FE01EA0DF11D80818033D1
:1016800011F4397E09C032FF06C0B394B39404C08C
:10169000832F867809F0B39433FD13C030FF06C062
:1016A0005A2CB31418F4530C5B18B32CB31468F40D
:1016B000B70180E290E03C870E94260DB3943C8500
:1016C000F5CFB31410F43B1801C0312C34FF12C015
:1016D000B70180E390E03C870E94260D3C8532FFF5
:1016E00017C031FD03C088E790E002C088E590E0B4
:1016F000B7010CC0832F867859F031FF02C08BE20E
:1017000001C080E237FD8DE2B70190E00E94260D16
:10171000A51438F4B70180E390E00E94260D5A9496
:10172000F7CFAA94F401EA0DF11D8081B70190E092
:101730000E94260DA110F5CF332009F451CEB70138
:1017400080E290E00E94260D3A94F6CFF701868160
:10175000978102C08FEF9FEF2C96E2E10C940A0E66
:101760000F931F93CF93DF93869F8001879F100D68
:10177000969F100D1124C8010E94CC0BEC0100971C
:1017800029F0A80160E070E00E94040DCE01DF9115
:10179000CF911F910F910895CF93DF9382309105E0
:1017A00010F482E090E0E0916603F091670320E09E
:1017B00030E0C0E0D0E0309711F14081518148170E
:1017C0005907C0F04817590761F482819381209727
:1017D00019F09B838A832BC09093670380936603E1
:1017E00026C02115310519F04217530718F49A0144
:1017F000BE01DF01EF010280F381E02DDCCF211576
:10180000310509F1281B390B2430310590F412966B
:101810008D919C9113976115710521F0FB019383C4
:10182000828304C09093670380936603FD01329620
:1018300044C0FD01E20FF31F8193919322503109BF
:101840002D933C933AC02091640330916503232B80
:1018500041F420910A0130910B01309365032093EC
:10186000640320910801309109012115310541F4EB
:101870002DB73EB740910C0150910D01241B350B43
:10188000E0916403F0916503E217F307A0F42E1BC7
:101890003F0B2817390778F0AC014E5F5F4F2417D4
:1018A000350748F04E0F5F1F509365034093640364
:1018B0008193919302C0E0E0F0E0CF01DF91CF91FE
:1018C00008950F931F93CF93DF93009709F48CC073
:1018D000FC01329713821282009166031091670314
:1018E0000115110581F420813181820F931F209110
:1018F0006403309165032817390779F5F093650380
:10190000E093640371C0D80140E050E0AE17BF0718
:1019100050F412962D913C911397AD01211531058C
:1019200009F1D901F3CF9D01DA013383228360816C
:101930007181860F971F8217930769F4EC01288144
:101940003981260F371F2E5F3F4F318320838A81D5
:101950009B8193838283452B29F4F0936703E09363
:10196000660342C01396FC93EE931297ED014991E2
:1019700059919E01240F351FE217F30771F48081FE
:101980009181840F951F029611969C938E9382816C
:10199000938113969C938E931297E0E0F0E0D80128
:1019A00012968D919C911397009719F0F8018C0174
:1019B000F6CF8D919C9198012E5F3F4F820F931F20
:1019C00020916403309165032817390769F4309733
:1019D00029F4109267031092660302C013821282E8
:1019E0001093650300936403DF91CF911F910F91D2
:1019F0000895FC010590615070400110D8F7809562
:101A000090958E0F9F1F0895DC0101C06D9341508A
:101A10005040E0F70895FC016150704001900110C2
:101A2000D8F7809590958E0F9F1F0895DC01FC01DB
:101A3000672F71917723E1F7329704C07C916D9302
:101A400070836291AE17BF07C8F308950F931F9379
:101A5000CF93DF93FB01238121FD03C08FEF9FEF25
:101A600028C022FF16C04681578124813581421744
:101A7000530744F4A081B1819D012F5F3F4F318313
:101A800020838C93268137812F5F3F4F37832683B6
:101A900010C0EB01092F182F0084F185E02D099566
:101AA000892BE1F68E819F8101969F838E83812F02
:101AB000902FDF91CF911F910F910895FA01AA27DE
:101AC000283051F1203181F1E8946F936E7F6E5F81
:101AD0007F4F8F4F9F4FAF4FB1E03ED0B4E03CD02F
:101AE000670F781F891F9A1FA11D680F791F8A1F12
:101AF000911DA11D6A0F711D811D911DA11D20D079
:101B000009F468943F912AE0269F11243019305D32
:101B10003193DEF6CF010895462F4770405D419323
:101B2000B3E00FD0C9F7F6CF462F4F70405D4A3370
:101B300018F0495D31FD4052419302D0A9F7EACF38
:101B4000B4E0A6959795879577956795BA95C9F767
:101B500000976105710508959B01AC010A2E06945A
:101B60005795479537952795BA95C9F7620F731F13
:101B7000841F951FA01D0895052E97FB1EF4009449
:101B80000E94D30D57FD07D00E94250E07FC03D0FD
:101B90004EF40C94D30D50954095309521953F4FC0
:101BA0004F4F5F4F089590958095709561957F4F49
:101BB0008F4F9F4F08950E94470EA59F900DB49F91
:101BC000900DA49F800D911D11240895B7FF0C94D2
:101BD000DB0D0E94DB0D821B930B08952F923F9229
:101BE0004F925F926F927F928F929F92AF92BF922D
:101BF000CF92DF92EF92FF920F931F93CF93DF93D9
:101C0000CDB7DEB7CA1BDB0B0FB6F894DEBF0FBE35
:101C1000CDBF09942A88398848885F846E847D8482
:101C20008C849B84AA84B984C884DF80EE80FD8084
:101C30000C811B81AA81B981CE0FD11D0FB6F894FA
:101C4000DEBF0FBECDBFED010895A1E21A2EAA1B83
:101C5000BB1BFD010DC0AA1FBB1FEE1FFF1FA2175C
:101C6000B307E407F50720F0A21BB30BE40BF50B59
:101C7000661F771F881F991F1A9469F760957095E2
:101C8000809590959B01AC01BD01CF010895A29F65
:101C9000B001B39FC001A39F700D811D1124911D40
:101CA000B29F700D811D1124911D0895F894FFCFEE
:101CB00000120010010000000000680320002D3E0B
:101CC00000417765736F6D656E657373004272696D
:101CD0006768746E6573730053656E7369746976B3
:101CE0006974790053657474696E67730048696735
:101CF0006853636F7265730048617264004D656478
:101D000069756D004561737900446966666963753C
:101D10006C74790053657474696E67730048696701
:101D2000682053636F72657300506C61792047615E
:101D30006D65004D61696E204D656E750043414EC5
:101D4000204D45535341474520524543494556454B
:101D500044202D2047414D45204F564552212120FA
:101D600056455244492025640A0045617379004D67
:101D7000656469756D004861726400256400537480
:101D8000617274696E67204F4C454420496E6974D6
:101D900069616C697A696E672E2E2E0A0D002E2EEF
:101DA0002E4F4C454420496E697469616C697A69AB
:101DB0006E6720436F6D706C657465210A0D00536A
:101DC00074617274696E67205352414D207465735B
:101DD000742E2E2E005772697465207068617365C9
:101DE000206572726F723A206578745F72616D5B04
:101DF0002534645D203D2025303258202873686FDB
:101E0000756C642062652025303258290A005265BD
:101E10007472696576616C207068617365206572A3
:101E2000726F723A206578745F72616D5B253464FD
:101E30005D203D2025303258202873686F756C6412
:101E40002062652025303258290A005352414D2026
:101E50007465737420636F6D706C6574656420774E
:101E6000697468200A253464206572726F72732069
:101E7000696E20777269746520706861736520618E
:101E80006E64200A253464206572726F7273206953
:101E90006E2072657472696576616C20706861731A
:101EA000650A0A0052657472696576656420766118
:101EB0006C75652066726F6D205352414D3A202536
:041EC000640A0000B0
:00000001FF
