:100000000C94B4010C948D020C94D1010C94D10188
:100010000C94D1010C94D1010C94D1010C94D10118
:100020000C94D1010C94D1010C94D1010C94D10108
:100030000C94D1010C94D1010C94D1010C94D101F8
:100040000C94D1010C94D1010C94D1010C94D101E8
:100050000C94D1010C94D1010C94D1010C94D101D8
:100060000C94D1010C94D1010C94D1010C94D101C8
:10007000000000000000000000065F5F06000000B6
:100080000007070007070000147F7F147F7F14001C
:10009000242E6B6B3A120000466630180C66620024
:1000A000307A4F5D377A48000407030000000000F3
:1000B000001C3E63410000000041633E1C00000044
:1000C000082A3E1C1C3E2A0808083E3E080800007C
:1000D00000A0E06000000000080808080808000010
:1000E00000006060000000006030180C0603010092
:1000F0003E7F594D7F3E000042427F7F40400000DE
:10010000627359496F660000226349497F360000D7
:10011000181C16137F7F1000276745457D390000A6
:100120003C7E4B4979300000036371190F070000D2
:10013000367F49497F360000064F49693F1E00005F
:1001400000006C6C0000000000A0EC6C00000000DF
:10015000081C366341000000141414141414000029
:10016000004163361C080000020351590F060000CD
:100170003E7F415D5D1F1E007C7E13137E7C000070
:10018000417F7F49497F36001C3E63414163220025
:10019000417F7F41637F1C00417F7F495D41630058
:1001A000417F7F491D0103001C3E63415173720072
:1001B0007F7F08087F7F000000417F7F41000000B3
:1001C000307040417F3F0100417F7F081C77630012
:1001D000417F7F41406070007F7F060C067F7F007B
:1001E0007F7F060C187F7F001C3E6341633E1C002E
:1001F000417F7F49090F06001E3F21717F5E00008D
:10020000417F7F19396F460026674D597B320000C8
:1002100003417F7F410300007F7F40407F7F0000DC
:100220001F3F60603F1F00007F7F3018307F7F00DE
:1002300063771C081C776300074F78784F0700002E
:100240006773594D47637100007F7F414100000093
:100250000103060C183060000041417F7F00000060
:10026000080C0603060C0800808080808080808057
:100270000000030704000000207454543C78400040
:10028000413F7F44447C3800387C44446C28000063
:10029000307848493F7F4000387C54545C18000057
:1002A000487E7F490302000098BCA4A4F87C0400A7
:1002B000417F7F08047C780000447D7D4000000081
:1002C00040C484FD7D000000417F7F10386C4400F5
:1002D00000417F7F400000007C7C0C180C7C780083
:1002E0007C7C04047C780000387C44447C3800002A
:1002F00084FCF8A4243C1800183C24A4F8FC8400D6
:10030000447C78441C180000485C54547424000059
:1003100000043E7F442400003C7C40403C7C400084
:100320001C3C60603C1C00003C7C6030607C3C00FD
:10033000446C3810386C44009CBCA0A0FC7C0000CD
:100340004C64745C4C64000008083E774141000036
:1003500000000077770000004141773E0808000068
:10036000020301030203010011241FBECFEFD4E0FA
:10037000DEBFCDBF12E0A0E0B1E0EEEBFCE102C0D9
:1003800005900D92A23DB107D9F723E0A2EDB2E0AE
:1003900001C01D92A732B207E1F70E94D3010C946D
:1003A0005D0E0C940000CF93DF93CDB7DEB7669758
:1003B0000FB6F894DEBF0FBECDBF0E94A7020E9409
:1003C0009B060E949F0683ED92E00E9425050E94F5
:1003D000BA080E94CF070E94DD020E94C40881E093
:1003E00090E09A83898384E08B8311E00F2EFBECED
:1003F000CF2EF1E0DF2EF02D6894772471F80F2EC8
:10040000FDE8AF2EF1E0BF2EF02D0F2EF3EDEF2E15
:10041000F2E0FF2EF02D0E94C70881111093D20246
:100420009091D2029923B9F39091D702992399F12F
:100430000E94C102082F0E94CF020C839D830E945C
:10044000E0028E83CE0101960E94E6078091D602DB
:10045000882309F31092D6021092D202CE010C9694
:100460000E9420088F858111D6CF1092D702BF92AB
:10047000AF920E949F090889F70180810F900F9029
:100480008017D0F5008338C0F70191830283C7013C
:100490000E942505C0CF0E942B064C01009709F44D
:1004A000BACF6AEB71E00E942609892B21F41F82E2
:1004B0001093D70215C06FEB71E0C4010E942609AA
:1004C000892B21F41F831093D7020AC066EC71E0D8
:1004D000C4010E942609892B19F47F821093D70248
:1004E0008F811F928F93DF92CF920E949F090F906E
:1004F0000F900F900F908FCFF7019181818180171E
:1005000010F490830183C7010E942505F7019281B1
:100510008281801708F4B8CFBACF1F920F920FB61E
:100520000F9211248F9381E08093D6028F910F90C8
:100530000FBE0F901F9018955D9BFECF8CB980E089
:1005400090E008955F9BFECF8CB190E0089510BCC1
:100550008FE189B988E18AB98EE880BD62EA72E0EC
:100560008CE992E00E945409089500C000C0000088
:10057000E0E0F4E1808382E68A95F1F70000808173
:100580000895CF9385E090E00E94B502C82F84E0E3
:1005900090E00E94B502982F8C2FCF910895CF93B1
:1005A00086E090E00E94B502C82F87E090E00E94AC
:1005B000B502982F8C2FCF910895B898C09A0895BE
:1005C00086B381700895CF93DF93EC010E94C1023E
:1005D000BE0161587F4F4FE750E04C1B5D0B292F48
:1005E00030E04217530764F4261737074CF4E82F1E
:1005F000F0E04E175F07DCF4E617F707C4F436C0E7
:10060000621773074CF4E82FF0E04E175F077CF495
:10061000E617F70764F42DC02417350744F4E82FD4
:10062000F0E04E175F071CF4E617F7072CF190E097
:10063000681779073CF442175307BCF526173707AC
:10064000A4F51DC0841795073CF4421753074CF5D9
:100650002617370734F516C02417350734F4681702
:1006600079079CF0841795079CF023C080E090E008
:1006700020C081E090E01DC082E090E01AC083E0DD
:1006800090E017C084E090E014C087E090E011C0D3
:1006900088E090E00EC086E090E00BC085E090E03E
:1006A00008C062177307BCF3D7CF62177307B4F3A0
:1006B000D3CFDF91CF910895E0910201F091030132
:1006C00080830895E0910001F091010180830895F5
:1006D000E0910201F09103011082E0910201F0919A
:1006E000030180E18083E0910201F091030180EB3E
:1006F000808310921C0310921B03089590EB980FB7
:10070000E0910201F0910301908380931C0308950E
:10071000882394F0982F9F70E0910201F0910301DB
:100720009083982F92959F70905FE0910201F091D5
:100730000301908380931B030895CF93C62F0E94DB
:100740007E038C2F0E948803CF910895CF939091C0
:100750001B03973700F5282F880F330B20523109E0
:10076000220F331F220F331F220F331FF901E059CD
:10077000FF4F28583F4F8491A0910001B091010193
:100780008C9380911B038F5F80931B033196E2173C
:10079000F30789F70CC0C82F80911C038F5F8093EB
:1007A0001C0360E00E949D038C2F0E94A603CF9142
:1007B0000895CF93DF93EC018881882331F021964F
:1007C0000E94A60389918111FBCFDF91CF910895FB
:1007D0000E947E0380E890E0E0910001F091010129
:1007E00010820197C9F70895CF93C0E08C2F0E9423
:1007F000E803CF5FC830D1F70E946803CF91089516
:100800000E94F4030E9468030895E0910201F091B0
:1008100003018EEA8083E0910201F091030181EAF5
:100820008083E0910201F09103018AED8083E091E1
:100830000201F091030182E18083E0910201F091D5
:10084000030188EC8083E0910201F091030188EAC2
:100850008083E0910201F09103018FE38083E091B6
:100860000201F091030185ED8083E0910201F09196
:10087000030180E88083E0910201F091030181E8A7
:100880008083E0910201F091030180E58083E09193
:100890000201F091030189ED8083E0910201F09162
:1008A000030181E28083E0910201F091030180E283
:1008B0008083E0910201F091030182E08083E09166
:1008C0000201F09103018BED8083E0910201F09130
:1008D000030180E38083E0910201F09103018DEA3E
:1008E0008083E0910201F09103011082E091020106
:1008F000F091030184EA8083E0910201F091030109
:1009000086EA8083E0910201F09103018FEA8083FF
:1009100008950F931F93CF93DF93CDB7DEB728973A
:100920000FB6F894DEBF0FBECDBF09831A832B83A9
:100930003C834D835E836F83788728E0FE01319688
:10094000DC0101900D922A95E1F7FC0111861086D9
:1009500013861286158614861786168628960FB675
:10096000F894DEBF0FBECDBFDF91CF911F910F91E5
:100970000895CF93DF9360E00E949D03C0E1D0E033
:1009800080E00E9462032197D9F7DF91CF9108950B
:10099000CF93DF93EC010297039778F48091F802EC
:1009A00090E00E94B90460E08C2F0E949D038EE0CD
:1009B00091E00E94D903C093F8028FEF9FE724E0F3
:1009C000815090402040E1F700C00000DF91CF91BE
:1009D0000895CF93DF93EC010E94F403D0931A03A0
:1009E000C093190382E08093F80282E090E00E94B5
:1009F000C8046AE080E00E949D03888199810E947A
:100A0000D90364E182E00E949D038A819B810E9458
:100A1000D90364E183E00E949D038C819D810E9443
:100A2000D90364E184E00E949D038E819F810E942E
:100A3000D9032FEF8FE797E0215080409040E1F7F6
:100A400000C00000DF91CF910895CF92DF92EF9226
:100A5000FF920F931F93CF93DF93CDB7DEB7C056AE
:100A6000D1090FB6F894DEBF0FBECDBF8C010E9436
:100A700005040E94F4032FEF8FE797E02150804098
:100A80009040E1F700C0000083E891E09A838983F9
:100A900089E791E09C838B838DE691E09E838D8333
:100AA00084E691E098878F8389E591E09A8789872A
:100AB00084E591E09C878B878DE491E09E878D870C
:100AC00088E491E0988B8F878DE391E09A8B898BF6
:100AD000D8018C917E01B1E2EB0EF11C4AE0B70126
:100AE00090E00E942F09F80181816E01F1E3CF0EA1
:100AF000D11C4AE0B60190E00E942F09D80112965D
:100B00008C918E010F5B1F4F4AE0B80190E00E946C
:100B10002F091C8B0B8BDE8ACD8AF88EEF8A84E33B
:100B200091E09A8F898F88E291E09C8F8B8F8DE185
:100B300091E09E8F8D8F81E191E098A38F8F098145
:100B40001A812B813C814D815E816F817885CE0138
:100B50008F5A9F4F0E94890480E1FE01EF5AFF4F98
:100B6000A9EFB2E001900D928A95E1F709851A8507
:100B70002B853C854D855E856F857889CE018F5AA2
:100B80009F4F0E94890480E1FE01EF5AFF4FA9E0C8
:100B9000B3E001900D928A95E1F709891A892B89B2
:100BA0003C894D895E896F89788DCE018F5A9F4F20
:100BB0000E94890480E1FE01EF5AFF4FA8EDB2E0E8
:100BC00001900D928A95E1F7098D1A8D2B8D3C8D40
:100BD0004D8D5E8D6F8D78A1CE018F5A9F4F0E94F3
:100BE000890480E1FE01EF5AFF4FA8EEB2E00190C8
:100BF0000D928A95E1F7E9EFF2E029E033E03387DF
:100C0000228788ED92E09587848748EE52E05787E7
:100C10004687D9011996FC93EE931897DC01199633
:100C2000FC93EE931897DA011996FC93EE931897BC
:100C3000CF010E94E904C05ADF4F0FB6F894DEBF1F
:100C40000FBECDBFDF91CF911F910F91FF90EF901D
:100C5000DF90CF900895CF93DF9382E390E00E94DE
:100C6000E302EC018130910539F48091F80290E0C3
:100C700001970E94C8041AC08230910549F48091FE
:100C8000F80290E001960E94C80480E090E050C015
:100C9000049761F4E0911903F0911A03808591851E
:100CA000009709F443C00E94E90440C02397C1F5AE
:100CB0008091F8028330A1F0843011F1823099F5EF
:100CC000E0911903F0911A0382859385009729F02A
:100CD0000E94E90480E090E02BC08281938128C0CB
:100CE000E0911903F0911A0384859585009729F006
:100CF0000E94E90480E090E01BC08481958118C0C7
:100D0000E0911903F0911A0386859785009729F0E1
:100D10000E94E90480E090E00BC08681978108C0C2
:100D200080E090E005C080E090E002C080E090E0CC
:100D3000DF91CF91089585B7806885BF0895CF92E0
:100D4000DF92EF92FF920F931F93CF93DF938EEC7E
:100D500091E00E94B5090E9416097C010E941B09BE
:100D6000C12CD12CC0E0D0E004EE11E00E941609A5
:100D7000F601F85E808320812817A1F099279F93C0
:100D80008F931F922F93DF92CF921F930F930E9406
:100D90009F0921968DB79EB708960FB6F8949EBF0F
:100DA0000FBE8DBF9FEFC91AD90AC11488E0D806BB
:100DB000E9F6C7010E941B0900E010E0E12CF12CCC
:100DC0000F2EFDE1CF2EF2E0DF2EF02D0E9416094E
:100DD000F801F85E20812817B1F099279F938F932F
:100DE0001F922F931F930F93DF92CF920E949F0920
:100DF0009FEFE91AF90A8DB79EB708960FB6F894D7
:100E00009EBF0FBE8DBF0F5F1F4F011598E01907E2
:100E1000E9F6FF92EF92DF93CF938AE592E09F93FA
:100E20008F930E949F090F900F900F900F900F903B
:100E30000F90DF91CF911F910F91FF90EF90DF9076
:100E4000CF900895FC018081809300198181809367
:100E500001198281809302190895EF92FF920F93F6
:100E60001F93CF93DF937C01C0E0D9E103EB12E045
:100E700088811F928F931F930F930E949F098991DE
:100E8000F70181937F010F900F900F900F90C33067
:100E9000F9E1DF0769F7DF91CF911F910F91FF9083
:100EA000EF90089580EB87BB81E58DB908958FB9E8
:100EB000779BFECF8FB10895C4980895C49A089582
:100EC0000E945C0780EC0E9457070E945E0708950D
:100ED000CF93C82F0E945C0783E00E9457078C2F96
:100EE0000E9457078C2F0E945707C82F0E945E0749
:100EF0008C2FCF9108950E9452070E9460078FEFB8
:100F00009FE20197F1F700C0000080E00895CF93C1
:100F1000DF93D82FC62F0E945C0782E00E945707FC
:100F20008D2F0E9457078C2F0E9457070E945E0743
:100F3000DF91CF910895CF93C82F0E945C078C2F2B
:100F40000E9457070E945E07CF910895CF930E9499
:100F50005C0780EA0E94570780E00E945707C82F6D
:100F60000E945E078C2FCF9108951F93CF93DF933C
:100F7000182FD62FC42F0E945C0785E00E945707C8
:100F8000812F0E9457078D2F0E9457078C2F0E9498
:100F900057070E945E07DF91CF911F9108950E942D
:100FA0007B0740E060EE8FE00E94B50743E063E01E
:100FB0008BE20E94B50740E660E680E60E94B50736
:100FC00040E064E080E60E94B50708950F931F9308
:100FD000CF938C01FC0140815181569547955695E0
:100FE0004795569547956FEF81E30E94B507F80145
:100FF00040814295440F407E6FEF82E30E94B50727
:10100000F80142816FE085E30E94B507F801828113
:10101000882379F0C0E0F801EC0FF11D43816FEFF8
:1010200086E38C0F0E94B507CF5FF8018281C81755
:1010300090F381E80E949B07CF911F910F91089533
:101040009F92AF92BF92CF92DF92EF92FF920F9357
:101050001F93CF93DF93CDB7DEB72B970FB6F894DE
:10106000DEBF0FBECDBF5C018CE20E94680780FF2F
:1010700031C081E60E946807E82E82E60E94680778
:10108000829586958770F12CEE0CFF1CEE0CFF1CF0
:10109000EE0CFF1CE82A85E60E946807082F0F70F7
:1010A00099F06E0184E0C80ED11C0F2EF6E69F2E3B
:1010B000F02D900E16E6812F0E946807F6018193AD
:1010C0006F011F5F1911F7CF40E061E08CE20E94D1
:1010D000B50732C081FF30C081E70E946807E82E63
:1010E00082E70E946807829586958770F12CEE0C46
:1010F000FF1CEE0CFF1CEE0CFF1CE82A85E70E948B
:101100006807082F0F7099F06E01F4E0CF0ED11C24
:101110000F2EF6E79F2EF02D900E16E7812F0E94DE
:101120006807F60181936F011F5F1911F7CF40E047
:1011300062E08CE20E94B507FA82E9820B838BE0C1
:10114000FE013196D50101900D928A95E1F7C50116
:101150002B960FB6F894DEBF0FBECDBFDF91CF91B7
:101160001F910F91FF90EF90DF90CF90BF90AF90C5
:101170009F9008953298F89486B7816086BF8BB7A8
:1011800080648BBF78940895B998C198089586B308
:10119000827008958F929F92AF92BF92CF92DF920A
:1011A000EF92FF92CF93DF93EC01688179818A817E
:1011B0009B81611571058105910521F464E279ED4A
:1011C0008BE597E02DE133EF41E050E00E94C30D45
:1011D00049015A019B01AC01A7EAB1E40E94E20D6A
:1011E0006B017C01ACEEB4EFA50194010E94F00DFF
:1011F000DC01CB018C0D9D1DAE1DBF1DB7FF03C0D3
:101200000197A109B04888839983AA83BB839F77FC
:10121000DF91CF91FF90EF90DF90CF90BF90AF9094
:101220009F908F9008950E94CA08089584E091E0ED
:101230000E94CA080895A0E0B0E080930401909352
:101240000501A0930601B09307010895FB01DC019D
:101250008D91019080190110D9F3990B0895BB2746
:101260004A3031F4992322F4BDE2909581959F4F45
:101270000C943B09BB27FB015527AA27880F991F10
:10128000AA1FA41710F0A41B83955051B9F7A05DB5
:10129000AA3308F0A95DA193009779F7B111B19332
:1012A0001192CB010C941D0D0F931F93CF93DF93DD
:1012B000009731F46115710519F480E090E03AC0AF
:1012C0008B01EC016EE070E081E090E00E94B70BD2
:1012D000FC01892B91F380E883830115110571F0DE
:1012E0001387028781E8838380911D0390911E03F9
:1012F000892B21F4F0931E03E0931D032097C9F07E
:10130000D187C08783818260838380911F039091FE
:101310002003892B71F4F0932003E0931F03809145
:10132000210390912203892B21F4F0932203E0936F
:101330002103CF01DF91CF911F910F910895A0E07C
:10134000B0E0E5EAF9E00C94050EAE014B5F5F4FAB
:10135000FA0161917191AF0180911F039091200377
:101360000E94E509E2E00C94210E0F931F93CF93A6
:10137000DF93E0911F03F0912003238121FF1BC025
:101380008C01D0E0C0E0F80181918F0160911F03D2
:1013900070912003DB011896ED91FC911997882339
:1013A00031F00995892B79F3DFEFCFEFECCF8AE0AD
:1013B0000995892B19F08FEF9FEF02C08D2F9C2F7D
:1013C000DF91CF911F910F910895ACE0B0E0EBEE6B
:1013D000F9E00C94F50D7C016B018A01FC01178288
:1013E0001682838181FFBDC1CE0101964C01F701B8
:1013F0009381F60193FD859193FF81916F0188237D
:1014000009F4ABC1853239F493FD859193FF819145
:101410006F01853229F4B70190E00E942D0DE7CFCE
:10142000512C312C20E02032A0F48B3269F030F4C2
:10143000803259F0833269F420612CC08D3239F04A
:10144000803339F4216026C02260246023C02860E4
:1014500021C027FD27C030ED380F3A3078F426FF41
:1014600006C0FAE05F9E300D1124532E13C08AE0AF
:10147000389E300D1124332E20620CC08E3221F4A0
:1014800026FD6BC1206406C08C3611F4206802C0B2
:10149000883641F4F60193FD859193FF81916F01A8
:1014A0008111C1CF982F9F7D9554933028F40C5F04
:1014B0001F4FFFE3F9830DC0833631F0833771F09E
:1014C000833509F05BC022C0F801808189830E5FFB
:1014D0001F4F44244394512C540115C03801F2E0AD
:1014E0006F0E711CF801A080B18026FF03C0652D2E
:1014F00070E002C06FEF7FEFC5012C870E94120DD4
:101500002C0183012C852F77222E17C03801F2E0A1
:101510006F0E711CF801A080B18026FF03C0652DFD
:1015200070E002C06FEF7FEFC5012C870E94000DB5
:101530002C012C852068222E830123FC1BC0832DC7
:1015400090E048165906B0F4B70180E290E00E949E
:101550002D0D3A94F4CFF50127FC859127FE81915A
:101560005F01B70190E00E942D0D31103A94F1E037
:101570004F1A51084114510471F7E5C0843611F037
:10158000893639F5F80127FF07C0608171818281B2
:1015900093810C5F1F4F08C060817181072E000C82
:1015A000880B990B0E5F1F4F2F76722E97FF09C085
:1015B00090958095709561957F4F8F4F9F4F2068D4
:1015C000722E2AE030E0A4010E94650DA82EA81812
:1015D00044C0853729F42F7EB22E2AE030E025C0A2
:1015E000F22FF97FBF2E8F36C1F018F4883579F0CD
:1015F000B4C0803719F0883721F0AFC02F2F206199
:10160000B22EB4FE0DC08B2D8460B82E09C024FF0D
:101610000AC09F2F9660B92E06C028E030E005C0B2
:1016200020E130E002C020E132E0F801B7FE07C05F
:1016300060817181828193810C5F1F4F06C0608140
:10164000718180E090E00E5F1F4FA4010E94650D44
:10165000A82EA818FB2DFF777F2E76FE0BC0372D06
:101660003E7FA51450F474FE0AC072FC08C0372DEA
:101670003E7E05C0BA2C372D03C0BA2C01C0B52C54
:1016800034FF0DC0FE01EA0DF11D8081803311F49D
:10169000397E09C032FF06C0B394B39404C0832FCF
:1016A000867809F0B39433FD13C030FF06C05A2C7E
:1016B000B31418F4530C5B18B32CB31468F4B701CB
:1016C00080E290E03C870E942D0DB3943C85F5CFDD
:1016D000B31410F43B1801C0312C34FF12C0B70111
:1016E00080E390E03C870E942D0D3C8532FF17C0BF
:1016F00031FD03C088E790E002C088E590E0B701C3
:101700000CC0832F867859F031FF02C08BE201C0F4
:1017100080E237FD8DE2B70190E00E942D0DA51407
:1017200038F4B70180E390E00E942D0D5A94F7CF72
:10173000AA94F401EA0DF11D8081B70190E00E94A6
:101740002D0DA110F5CF332009F451CEB70180E261
:1017500090E00E942D0D3A94F6CFF7018681978193
:1017600002C08FEF9FEF2C96E2E10C94110E0F93C5
:101770001F93CF93DF93869F8001879F100D969FC5
:10178000100D1124C8010E94D30BEC01009729F021
:10179000A80160E070E00E940B0DCE01DF91CF91B7
:1017A0001F910F910895CF93DF938230910510F42C
:1017B00082E090E0E0912503F091260320E030E004
:1017C000C0E0D0E0309711F14081518148175907AE
:1017D000C0F04817590761F482819381209719F06E
:1017E0009B838A832BC0909326038093250326C076
:1017F0002115310519F04217530718F49A01BE015B
:10180000DF01EF010280F381E02DDCCF21153105EE
:1018100009F1281B390B2430310590F412968D9173
:101820009C9113976115710521F0FB0193838283CD
:1018300004C09093260380932503FD01329644C093
:10184000FD01E20FF31F81939193225031092D93F3
:101850003C933AC02091230330912403232B41F47D
:1018600020910A0130910B0130932403209323032C
:1018700020910801309109012115310541F42DB75E
:101880003EB740910C0150910D01241B350BE091A6
:101890002303F0912403E217F307A0F42E1B3F0B60
:1018A0002817390778F0AC014E5F5F4F24173507D2
:1018B00048F04E0F5F1F50932403409323038193FE
:1018C000919302C0E0E0F0E0CF01DF91CF91089565
:1018D0000F931F93CF93DF93009709F48CC0FC0103
:1018E000329713821282009125031091260301156D
:1018F000110581F420813181820F931F20912303F0
:10190000309124032817390779F5F0932403E093E5
:10191000230371C0D80140E050E0AE17BF0750F478
:1019200012962D913C911397AD012115310509F1C6
:10193000D901F3CF9D01DA01338322836081718164
:10194000860F971F8217930769F4EC01288139816C
:10195000260F371F2E5F3F4F318320838A819B8163
:1019600093838283452B29F4F0932603E093250388
:1019700042C01396FC93EE931297ED014991599151
:101980009E01240F351FE217F30771F480819181C6
:10199000840F951F029611969C938E93828193815A
:1019A00013969C938E931297E0E0F0E0D801129684
:1019B0008D919C911397009719F0F8018C01F6CF47
:1019C0008D919C9198012E5F3F4F820F931F209124
:1019D0002303309124032817390769F4309729F439
:1019E000109226031092250302C0138212821093D4
:1019F000240300932303DF91CF911F910F9108954A
:101A0000FC010590615070400110D8F780959095C9
:101A10008E0F9F1F0895DC0101C06D93415050400F
:101A2000E0F70895FC016150704001900110D8F773
:101A3000809590958E0F9F1F0895DC01FC01672F04
:101A400071917723E1F7329704C07C916D93708395
:101A50006291AE17BF07C8F308950F931F93CF93FA
:101A6000DF93FB01238121FD03C08FEF9FEF28C08F
:101A700022FF16C0468157812481358142175307C2
:101A800044F4A081B1819D012F5F3F4F31832083BA
:101A90008C93268137812F5F3F4F3783268310C079
:101AA000EB01092F182F0084F185E02D0995892B72
:101AB000E1F68E819F8101969F838E83812F902FE7
:101AC000DF91CF911F910F910895FA01AA27283035
:101AD00051F1203181F1E8946F936E7F6E5F7F4FFB
:101AE0008F4F9F4FAF4FB1E03ED0B4E03CD0670F77
:101AF000781F891F9A1FA11D680F791F8A1F911DCA
:101B0000A11D6A0F711D811D911DA11D20D009F419
:101B100068943F912AE0269F11243019305D31935B
:101B2000DEF6CF010895462F4770405D4193B3E044
:101B30000FD0C9F7F6CF462F4F70405D4A3318F0EB
:101B4000495D31FD4052419302D0A9F7EACFB4E09C
:101B5000A6959795879577956795BA95C9F7009754
:101B60006105710508959B01AC010A2E06945795F5
:101B7000479537952795BA95C9F7620F731F841F4C
:101B8000951FA01D0895052E97FB1EF400940E943A
:101B9000DA0D57FD07D00E942C0E07FC03D04EF43F
:101BA0000C94DA0D50954095309521953F4F4F4F4D
:101BB0005F4F089590958095709561957F4F8F4FF9
:101BC0009F4F08950E944E0EA59F900DB49F900DBB
:101BD000A49F800D911D11240895B7FF0C94E20D70
:101BE0000E94E20D821B930B08952F923F924F9219
:101BF0005F926F927F928F929F92AF92BF92CF929D
:101C0000DF92EF92FF920F931F93CF93DF93CDB7A5
:101C1000DEB7CA1BDB0B0FB6F894DEBF0FBECDBF1D
:101C200009942A88398848885F846E847D848C84EE
:101C30009B84AA84B984C884DF80EE80FD800C81F7
:101C40001B81AA81B981CE0FD11D0FB6F894DEBFDA
:101C50000FBECDBFED010895A1E21A2EAA1BBB1B3A
:101C6000FD010DC0AA1FBB1FEE1FFF1FA217B30768
:101C7000E407F50720F0A21BB30BE40BF50B661F7E
:101C8000771F881F991F1A9469F760957095809542
:101C900090959B01AC01BD01CF010895A29FB001B9
:101CA000B39FC001A39F700D811D1124911DB29F90
:0E1CB000700D811D1124911D0895F894FFCF31
:101CBE0000120010010000000000270320002D3E3E
:101CCE0000417765736F6D656E657373004272695F
:101CDE006768746E6573730053656E7369746976A5
:101CEE006974790053657474696E67730048696727
:101CFE006853636F7265730048617264004D65646A
:101D0E0069756D004561737900446966666963752E
:101D1E006C74790053657474696E677300486967F3
:101D2E00682053636F72657300506C617920476150
:101D3E006D65004D61696E204D656E750043414EB7
:101D4E00204D45535341474520524543494556453D
:101D5E0044202D2047414D45204F564552212120EC
:101D6E0056455244492025640A0045617379004D59
:101D7E00656469756D004861726400256400537472
:101D8E00617274696E67205352414D20746573748D
:101D9E002E2E2E005772697465207068617365204F
:101DAE006572726F723A206578745F72616D5B2531
:101DBE0034645D203D2025303258202873686F75BD
:101DCE006C642062652025303258290A00526574F1
:101DDE0072696576616C20706861736520657272D8
:101DEE006F723A206578745F72616D5B2534645D45
:101DFE00203D2025303258202873686F756C642082
:101E0E0062652025303258290A005352414D207404
:101E1E0065737420636F6D706C657465642077698B
:101E2E007468200A253464206572726F727320699B
:101E3E006E20777269746520706861736520616EBB
:101E4E0064200A253464206572726F727320696E85
:101E5E002072657472696576616C20706861736555
:101E6E000A0A005265747269657665642076616C43
:101E7E0075652066726F6D205352414D3A20256470
:021E8E000A0048
:00000001FF
