:100000000C94B4010C9481020C94D1010C94D10194
:100010000C94D1010C94D1010C94D1010C94D10118
:100020000C94D1010C94D1010C94D1010C94D10108
:100030000C94D1010C94D1010C94D1010C94D101F8
:100040000C94D1010C94D1010C94D1010C94D101E8
:100050000C94D1010C94D1010C94D1010C94D101D8
:100060000C94D1010C94D1010C94D1010C94D101C8
:10007000000000000000000000065F5F06000000B6
:100080000007070007070000147F7F147F7F14001C
:10009000242E6B6B3A120000466630180C66620024
:1000A000307A4F5D377A48000407030000000000F3
:1000B000001C3E63410000000041633E1C00000044
:1000C000082A3E1C1C3E2A0808083E3E080800007C
:1000D00000A0E06000000000080808080808000010
:1000E00000006060000000006030180C0603010092
:1000F0003E7F594D7F3E000042427F7F40400000DE
:10010000627359496F660000226349497F360000D7
:10011000181C16137F7F1000276745457D390000A6
:100120003C7E4B4979300000036371190F070000D2
:10013000367F49497F360000064F49693F1E00005F
:1001400000006C6C0000000000A0EC6C00000000DF
:10015000081C366341000000141414141414000029
:10016000004163361C080000020351590F060000CD
:100170003E7F415D5D1F1E007C7E13137E7C000070
:10018000417F7F49497F36001C3E63414163220025
:10019000417F7F41637F1C00417F7F495D41630058
:1001A000417F7F491D0103001C3E63415173720072
:1001B0007F7F08087F7F000000417F7F41000000B3
:1001C000307040417F3F0100417F7F081C77630012
:1001D000417F7F41406070007F7F060C067F7F007B
:1001E0007F7F060C187F7F001C3E6341633E1C002E
:1001F000417F7F49090F06001E3F21717F5E00008D
:10020000417F7F19396F460026674D597B320000C8
:1002100003417F7F410300007F7F40407F7F0000DC
:100220001F3F60603F1F00007F7F3018307F7F00DE
:1002300063771C081C776300074F78784F0700002E
:100240006773594D47637100007F7F414100000093
:100250000103060C183060000041417F7F00000060
:10026000080C0603060C0800808080808080808057
:100270000000030704000000207454543C78400040
:10028000413F7F44447C3800387C44446C28000063
:10029000307848493F7F4000387C54545C18000057
:1002A000487E7F490302000098BCA4A4F87C0400A7
:1002B000417F7F08047C780000447D7D4000000081
:1002C00040C484FD7D000000417F7F10386C4400F5
:1002D00000417F7F400000007C7C0C180C7C780083
:1002E0007C7C04047C780000387C44447C3800002A
:1002F00084FCF8A4243C1800183C24A4F8FC8400D6
:10030000447C78441C180000485C54547424000059
:1003100000043E7F442400003C7C40403C7C400084
:100320001C3C60603C1C00003C7C6030607C3C00FD
:10033000446C3810386C44009CBCA0A0FC7C0000CD
:100340004C64745C4C64000008083E774141000036
:1003500000000077770000004141773E0808000068
:10036000020301030203010011241FBECFEFD4E0FA
:10037000DEBFCDBF13E0A0E0B1E0EAE1FCE102C0E6
:1003800005900D92AE39B107D9F723E0AEE9B3E09D
:1003900001C01D92AF3EB207E1F70E94D3010C9459
:1003A0000B0E0C940000CF93DF93CDB7DEB76697AA
:1003B0000FB6F894DEBF0FBECDBF0E949B020E9415
:1003C000B6060E946A050E94A3080E94B8070E9410
:1003D000D10281E090E09A83898384E08B83552465
:1003E00053940F2EF1E48F2EF2E09F2EF02D68949F
:1003F000442441F80F2EF6ECAF2EF1E0BF2EF02D85
:100400000F2EF6EDCF2EF1E0DF2EF02D0F2EF1EFB7
:10041000EF2EF1E0FF2EF02D0F2EF3E06F2EF2E025
:100420007F2EF02D80919F038823F1F10E94B50269
:10043000182F0E94C3021C839D830E94D4028E83C6
:10044000CE0101960E94CF078C811F928F93BF929D
:10045000AF920E945D098D811F928F93DF92CF92A0
:100460000E945D098E811F928F93FF92EF920E94EE
:100470005D0980919E030FB6F894DEBF0FBECDBF1D
:10048000882381F210929E03CE010C960E940908E7
:100490008F858111C7CF10929F037F926F920E9428
:1004A0005D090F900F90BECF0E9442068C0100970D
:1004B00009F4B8CF60E372E00E940909892B11F4B6
:1004C0001F8211C065E372E0C8010E940909892BEF
:1004D00011F45F8208C06CE372E0C8010E94090950
:1004E000892B09F44F8250929F038F811F928F9323
:1004F0009F928F920E945D090F900F900F900F9026
:1005000091CF1F920F920FB60F9211248F9381E01B
:1005100080939E038F910F900FBE0F901F901895A0
:100520005D9BFECF8CB980E090E008955F9BFECF8D
:100530008CB190E0089510BC8FE189B988E18AB947
:100540008EE880BD66E972E080E992E00E941209BF
:10055000089500C000C00000E0E0F4E1808382E67E
:100560008A95F1F7000080810895CF9385E090E0AF
:100570000E94A902C82F84E090E00E94A902982F4F
:100580008C2FCF910895CF9386E090E00E94A9022E
:10059000C82F87E090E00E94A902982F8C2FCF915E
:1005A0000895B898C09A089586B381700895CF933E
:1005B000DF93EC010E94B502BE0161587F4F4FE707
:1005C00050E04C1B5D0B292F30E04217530764F4B9
:1005D000261737074CF4E82FF0E04E175F0784F535
:1005E000E617F7076CF58FC0621773079CF4E82FC6
:1005F000F0E04E175F0724F5E617F7070CF584E4E3
:1006000092E09F938F930E945D090F900F9081E07D
:1006100090E084C0241735079CF4E82FF0E04E17D3
:100620005F0774F4E617F7075CF488E492E09F93A1
:100630008F930E945D090F900F9082E090E06EC052
:1006400090E0681779079CF4421753070CF05EC0DE
:10065000261737070CF05AC086E692E09F938F93D7
:100660000E945D090F900F9083E090E057C08417BF
:1006700095074CF5421753070CF04CC02617370767
:100680000CF048C082E792E09F938F930E945D092F
:100690000F900F9084E090E041C08EE492E09F9331
:1006A0008F930E945D090F900F9085E090E036C017
:1006B00088E592E09F938F930E945D090F900F90C1
:1006C00086E090E02BC024173507E4F4681779071B
:1006D0005CF481E692E09F938F930E945D090F90F6
:1006E0000F9087E090E01AC0841795075CF48DE6C0
:1006F00092E09F938F930E945D090F900F9088E086
:1007000090E00CC00BC080E090E008C06217730757
:1007100024F2D9CF621773075CF2D5CFDF91CF9166
:100720000895E0910301F091040180830895E09120
:100730000101F091020180830895E0910301F0919D
:1007400004011082E0910301F091040180E18083B3
:10075000E0910301F091040180EB80831092E403A7
:100760001092E303089590EB980FE0910301F0914C
:10077000040190838093E4030895882394F0982FD4
:100780009F70E0910301F09104019083982F92955E
:100790009F70905FE0910301F0910401908380933A
:1007A000E3030895CF93C62F0E94B3038C2F0E94BA
:1007B000BD03CF910895CF939091E303973700F550
:1007C000282F880F330B20523109220F331F220F9D
:1007D000331F220F331FF901E059FF4F28583F4FB5
:1007E0008491A0910101B09102018C938091E30367
:1007F0008F5F8093E3033196E217F30789F70CC00C
:10080000C82F8091E4038F5F8093E40360E00E942F
:10081000D2038C2F0E94DB03CF910895CF93DF93F7
:10082000EC018881882331F021960E94DB038991B5
:100830008111FBCFDF91CF9108950E94B30380E82F
:1008400090E0E0910101F091020110820197C9F757
:100850000895CF93C0E08C2F0E941D04CF5FC83055
:10086000D1F70E949D03CF9108950E9429040E9410
:100870009D03089588E792E09F938F930E945D09FE
:10088000E0910301F09104018EEA8083E09103017D
:10089000F091040181EA8083E0910301F091040169
:1008A0008AED8083E0910301F091040182E180836D
:1008B000E0910301F091040188EC8083E091030151
:1008C000F091040188EA8083E0910301F091040132
:1008D0008FE38083E0910301F091040185ED808333
:1008E000E0910301F091040180E88083E09103012D
:1008F000F091040181E88083E0910301F09104010B
:1009000080E58083E0910301F091040189ED80830B
:10091000E0910301F091040181E28083E091030101
:10092000F091040180E28083E0910301F0910401E1
:1009300082E08083E0910301F09104018BED8083DC
:10094000E0910301F091040180E38083E0910301D1
:10095000F09104018DEA8083E0910301F09104019C
:100960001082E0910301F091040184EA8083E09118
:100970000301F091040186EA8083E0910301F09184
:1009800004018FEA808388E992E09F938F930E940D
:100990005D090F900F900F900F9008950F931F9384
:1009A000CF93DF93CDB7DEB728970FB6F894DEBFAD
:1009B0000FBECDBF09831A832B833C834D835E8397
:1009C0006F83788728E0FE013196DC0101900D925B
:1009D0002A95E1F7FC01118610861386128615868A
:1009E00014861786168628960FB6F894DEBF0FBEBB
:1009F000CDBFDF91CF911F910F910895CF93DF93DA
:100A000060E00E94D203C0E1D0E080E00E94970342
:100A10002197D9F7DF91CF910895CF93DF93EC0120
:100A20000297039778F48091C00390E00E94FE043F
:100A300060E08C2F0E94D2038FE091E00E940E04B0
:100A4000C093C0038FEF9FE724E081509040204087
:100A5000E1F700C00000DF91CF910895CF93DF93BD
:100A6000EC010E942904D093E203C093E10382E0E9
:100A70008093C00382E090E00E940D056AE080E070
:100A80000E94D203888199810E940E0464E182E071
:100A90000E94D2038A819B810E940E0464E183E05C
:100AA0000E94D2038C819D810E940E0464E184E047
:100AB0000E94D2038E819F810E940E042FEF8FE748
:100AC00097E0215080409040E1F700C00000DF91A6
:100AD000CF9108950F931F93CF93DF93CDB7DEB7D8
:100AE000E0970FB6F894DEBF0FBECDBF0E943A0468
:100AF0000E9429042FEF8FE797E02150804090401B
:100B0000E1F700C000008CEB91E0082F9A83898305
:100B100082EB91E0282F9C838B8386EA91E0482F1B
:100B20009E838D838DE991E0682F98878F8382E97A
:100B300091E09A8789878DE891E09C878B8786E88A
:100B400091E09E878D8781E891E0988B8F8786E77B
:100B500091E09A8B898B84E691E09C8B8B8B80E56E
:100B600091E09E8B8D8B8EE391E0988F8F8B85E348
:100B700091E09A8F898F89E291E09C8F8B8F8EE133
:100B800091E09E8F8D8F82E191E098A38F8F1A81E3
:100B90003C815E817885CE0181960E94CE0480E101
:100BA000FE01B196A1ECB3E001900D928A95E1F7B8
:100BB00009851A852B853C854D855E856F857889ED
:100BC000CE0181960E94CE0480E1FE01B196A1ED96
:100BD000B3E001900D928A95E1F709891A892B8972
:100BE0003C894D895E896F89788DCE0181960E94FE
:100BF000CE0480E1FE01B196A0EAB3E001900D922F
:100C00008A95E1F7098D1A8D2B8D3C8D4D8D5E8D6A
:100C10006F8D78A1CE0181960E94CE0480E1FE0105
:100C2000B196A0EBB3E001900D928A95E1F7E1EC6B
:100C3000F3E021ED33E03387228780EA93E0958764
:100C4000848740EB53E057874687D9011996FC9378
:100C5000EE931897DC011996FC93EE931897DA013E
:100C60001996FC93EE931897CF010E942E05E096FB
:100C70000FB6F894DEBF0FBECDBFDF91CF911F91AD
:100C80000F910895CF93DF9382E390E00E94D70203
:100C9000EC018130910539F48091C00390E0019717
:100CA0000E940D051AC08230910549F48091C0035D
:100CB00090E001960E940D0580E090E050C00497FE
:100CC00061F4E091E103F091E20380859185009762
:100CD00009F443C00E942E0540C02397C1F58091BE
:100CE000C0038330A1F0843011F1823099F5E09196
:100CF000E103F091E20382859385009729F00E9439
:100D00002E0580E090E02BC08281938128C0E09185
:100D1000E103F091E20384859585009729F00E9414
:100D20002E0580E090E01BC08481958118C0E09181
:100D3000E103F091E20386859785009729F00E94F0
:100D40002E0580E090E00BC08681978108C080E08E
:100D500090E005C080E090E002C080E090E0DF918C
:100D6000CF91089585B7806885BF0895CF92DF92AF
:100D7000EF92FF920F931F93CF93DF930E94B206DF
:100D800089EB92E00E9473090E94F9087C010E949D
:100D9000FE08C12CD12CC0E0D0E00FEC12E00E9484
:100DA000F908F601F85E808320812817A1F09927C1
:100DB0009F938F931F922F93DF92CF921F930F9346
:100DC0000E945D0921968DB79EB708960FB6F894DC
:100DD0009EBF0FBE8DBF9FEFC91AD90AC11488E00C
:100DE000D806E9F6C7010E94FE0800E010E0E12CF9
:100DF000F12C0F2EF8E0CF2EF3E0DF2EF02D0E9425
:100E0000F908F801F85E20812817B1F099279F931F
:100E10008F931F922F931F930F93DF92CF920E9475
:100E20005D099FEFE91AF90A8DB79EB708960FB6CC
:100E3000F8949EBF0FBE8DBF0F5F1F4F011598E046
:100E40001907E9F6FF92EF92DF93CF9385E493E0E1
:100E50009F938F930E945D090F900F900F900F90BA
:100E60000F900F90DF91CF911F910F91FF90EF9016
:100E7000DF90CF90089580EB87BB81E58DB9089511
:100E80008FB9779BFECF8FB10895C4980895C49A07
:100E900008950E94450780EC0E9440070E94470782
:100EA0000895CF93C82F0E94450783E00E94400712
:100EB0008C2F0E9440078C2F0E944007C82F0E9451
:100EC00047078C2FCF9108950E943B070E94490746
:100ED0008FEF9FE20197F1F700C0000080E00895D6
:100EE000CF93DF93D82FC62F0E94450782E00E9440
:100EF00040078D2F0E9440078C2F0E9440070E94C0
:100F00004707DF91CF910895CF93C82F0E944507DF
:100F10008C2F0E9440070E944707CF910895CF93DE
:100F20000E94450780EA0E94400780E00E94400737
:100F3000C82F0E9447078C2FCF9108951F93CF93FE
:100F4000DF93182FD62FC42F0E94450785E00E94FB
:100F50004007812F0E9440078D2F0E9440078C2F51
:100F60000E9440070E944707DF91CF911F9108958B
:100F70000E94640740E060EE8FE00E949E0743E01D
:100F800063E08BE20E949E0740E660E680E60E94F6
:100F90009E0740E064E080E60E949E0708950F935C
:100FA0001F93CF938C01FC01408151815695479549
:100FB00056954795569547956FEF81E30E949E079A
:100FC000F80140814295440F407E6FEF82E30E941A
:100FD0009E07F80142816FE085E30E949E07F801B9
:100FE0008281882379F0C0E0F801EC0FF11D438184
:100FF0006FEF86E38C0F0E949E07CF5FF80182811E
:10100000C81790F381E80E948407CF911F910F9138
:1010100008959F92AF92BF92CF92DF92EF92FF928C
:101020000F931F93CF93DF93CDB7DEB72B970FB6F8
:10103000F894DEBF0FBECDBF5C018CE20E94510769
:1010400080FF31C081E60E945107E82E82E60E94AF
:101050005107829586958770F12CEE0CFF1CEE0CE3
:10106000FF1CEE0CFF1CE82A85E60E945107082FA2
:101070000F7099F06E0184E0C80ED11C0F2EF6E6B9
:101080009F2EF02D900E16E6812F0E945107F6013B
:1010900081936F011F5F1911F7CF40E061E08CE28F
:1010A0000E949E0732C081FF30C081E70E94510735
:1010B000E82E82E70E945107829586958770F12C71
:1010C000EE0CFF1CEE0CFF1CEE0CFF1CE82A85E763
:1010D0000E945107082F0F7099F06E01F4E0CF0EB7
:1010E000D11C0F2EF6E79F2EF02D900E16E7812FC4
:1010F0000E945107F60181936F011F5F1911F7CF0D
:1011000040E062E08CE20E949E07FA82E9820B8353
:101110008BE0FE013196D50101900D928A95E1F7A1
:10112000C5012B960FB6F894DEBF0FBECDBFDF9181
:10113000CF911F910F91FF90EF90DF90CF90BF90D4
:10114000AF909F9008953298F89486B7816086BFDB
:101150008BB780648BBF789408958F929F92AF92E3
:10116000BF92CF92DF92EF92FF92CF93DF93EC0189
:10117000688179818A819B8161157105810591055D
:1011800021F464E279ED8BE597E02DE133EF41E066
:1011900050E00E94710D49015A019B01AC01A7EA80
:1011A000B1E40E94900D6B017C01ACEEB4EFA5019F
:1011B00094010E949E0DDC01CB018C0D9D1DAE1D86
:1011C000BF1DB7FF03C00197A109B0488883998369
:1011D000AA83BB839F77DF91CF91FF90EF90DF9041
:1011E000CF90BF90AF909F908F9008950E94AD08D0
:1011F000089585E091E00E94AD080895A0E0B0E078
:101200008093050190930601A0930701B093080114
:101210000895FB01DC018D91019080190110D9F333
:10122000990B08950F931F93CF93DF93009731F499
:101230006115710519F480E090E03AC08B01EC0172
:101240006EE070E081E090E00E94750BFC01892B5C
:1012500091F380E883830115110571F013870287EC
:1012600081E883838091E5039091E603892B21F443
:10127000F093E603E093E5032097C9F0D187C08798
:101280008381826083838091E7039091E803892BB7
:1012900071F4F093E803E093E7038091E903909100
:1012A000EA03892B21F4F093EA03E093E903CF01E9
:1012B000DF91CF911F910F910895A0E0B0E0E3E698
:1012C000F9E00C94B30DAE014B5F5F4FFA016191F1
:1012D0007191AF018091E7039091E8030E94A30907
:1012E000E2E00C94CF0D0F931F93CF93DF93E09127
:1012F000E703F091E803238121FF1BC08C01D0E0BC
:10130000C0E0F80181918F016091E7037091E803DB
:10131000DB011896ED91FC911997882331F009951E
:10132000892B79F3DFEFCFEFECCF8AE00995892B9A
:1013300019F08FEF9FEF02C08D2F9C2FDF91CF917F
:101340001F910F910895ACE0B0E0E9EAF9E00C9448
:10135000A30D7C016B018A01FC0117821682838137
:1013600081FFBDC1CE0101964C01F7019381F601C9
:1013700093FD859193FF81916F01882309F4ABC19F
:10138000853239F493FD859193FF81916F01853208
:1013900029F4B70190E00E94DB0CE7CF512C312CEF
:1013A00020E02032A0F48B3269F030F4803259F022
:1013B000833269F420612CC08D3239F0803339F4E6
:1013C000216026C02260246023C0286021C027FD40
:1013D00027C030ED380F3A3078F426FF06C0FAE027
:1013E0005F9E300D1124532E13C08AE0389E300DBD
:1013F0001124332E20620CC08E3221F426FD6BC1E5
:10140000206406C08C3611F4206802C0883641F48E
:10141000F60193FD859193FF81916F018111C1CFF9
:10142000982F9F7D9554933028F40C5F1F4FFFE356
:10143000F9830DC0833631F0833771F0833509F0BD
:101440005BC022C0F801808189830E5F1F4F442456
:101450004394512C540115C03801F2E06F0E711CF9
:10146000F801A080B18026FF03C0652D70E002C0A6
:101470006FEF7FEFC5012C870E94D00C2C018301F8
:101480002C852F77222E17C03801F2E06F0E711CC9
:10149000F801A080B18026FF03C0652D70E002C076
:1014A0006FEF7FEFC5012C870E94BE0C2C012C85AD
:1014B0002068222E830123FC1BC0832D90E0481658
:1014C0005906B0F4B70180E290E00E94DB0C3A9438
:1014D000F4CFF50127FC859127FE81915F01B701CB
:1014E00090E00E94DB0C31103A94F1E04F1A510861
:1014F0004114510471F7E5C0843611F0893639F58D
:10150000F80127FF07C060817181828193810C5FA0
:101510001F4F08C060817181072E000C880B990B4A
:101520000E5F1F4F2F76722E97FF09C09095809502
:10153000709561957F4F8F4F9F4F2068722E2AE0E4
:1015400030E0A4010E94130DA82EA81844C08537CE
:1015500029F42F7EB22E2AE030E025C0F22FF97F49
:10156000BF2E8F36C1F018F4883579F0B4C08037BB
:1015700019F0883721F0AFC02F2F2061B22EB4FEB2
:101580000DC08B2D8460B82E09C024FF0AC09F2F88
:101590009660B92E06C028E030E005C020E130E0BA
:1015A00002C020E132E0F801B7FE07C0608171811E
:1015B000828193810C5F1F4F06C06081718180E042
:1015C00090E00E5F1F4FA4010E94130DA82EA818D3
:1015D000FB2DFF777F2E76FE0BC0372D3E7FA514A7
:1015E00050F474FE0AC072FC08C0372D3E7E05C060
:1015F000BA2C372D03C0BA2C01C0B52C34FF0DC056
:10160000FE01EA0DF11D8081803311F4397E09C09D
:1016100032FF06C0B394B39404C0832F867809F0D8
:10162000B39433FD13C030FF06C05A2CB31418F422
:10163000530C5B18B32CB31468F4B70180E290E04C
:101640003C870E94DB0CB3943C85F5CFB31410F4B7
:101650003B1801C0312C34FF12C0B70180E390E089
:101660003C870E94DB0C3C8532FF17C031FD03C074
:1016700088E790E002C088E590E0B7010CC0832FB6
:10168000867859F031FF02C08BE201C080E237FD5D
:101690008DE2B70190E00E94DB0CA51438F4B7018D
:1016A00080E390E00E94DB0C5A94F7CFAA94F401F7
:1016B000EA0DF11D8081B70190E00E94DB0CA110C2
:1016C000F5CF332009F451CEB70180E290E00E94BB
:1016D000DB0C3A94F6CFF7018681978102C08FEF39
:1016E0009FEF2C96E2E10C94BF0D0F931F93CF93C5
:1016F000DF93869F8001879F100D969F100D112408
:10170000C8010E94910BEC01009729F0A80160E04C
:1017100070E00E94C90CCE01DF91CF911F910F9113
:101720000895CF93DF938230910510F482E090E02A
:10173000E091ED03F091EE0320E030E0C0E0D0E076
:10174000309711F14081518148175907C0F048176F
:10175000590761F482819381209719F09B838A83D2
:101760002BC09093EE038093ED0326C02115310525
:1017700019F04217530718F49A01BE01DF01EF0177
:101780000280F381E02DDCCF2115310509F1281B02
:10179000390B2430310590F412968D919C9113975A
:1017A0006115710521F0FB019383828304C090933E
:1017B000EE038093ED03FD01329644C0FD01E20F7C
:1017C000F31F81939193225031092D933C933AC09A
:1017D0002091EB033091EC03232B41F420910B017A
:1017E00030910C013093EC032093EB03209109011D
:1017F00030910A012115310541F42DB73EB74091D2
:101800000D0150910E01241B350BE091EB03F0917B
:10181000EC03E217F307A0F42E1B3F0B2817390740
:1018200078F0AC014E5F5F4F2417350748F04E0F3C
:101830005F1F5093EC034093EB038193919302C09D
:10184000E0E0F0E0CF01DF91CF9108950F931F9377
:10185000CF93DF93009709F48CC0FC013297138279
:1018600012820091ED031091EE030115110581F430
:1018700020813181820F931F2091EB033091EC0383
:101880002817390779F5F093EC03E093EB0371C067
:10189000D80140E050E0AE17BF0750F412962D91EA
:1018A0003C911397AD012115310509F1D901F3CF11
:1018B0009D01DA013383228360817181860F971F36
:1018C0008217930769F4EC0128813981260F371FAD
:1018D0002E5F3F4F318320838A819B819383828354
:1018E000452B29F4F093EE03E093ED0342C01396E9
:1018F000FC93EE931297ED01499159919E01240FAB
:10190000351FE217F30771F480819181840F951FD1
:10191000029611969C938E938281938113969C9349
:101920008E931297E0E0F0E0D80112968D919C9191
:101930001397009719F0F8018C01F6CF8D919C91C7
:1019400098012E5F3F4F820F931F2091EB03309140
:10195000EC032817390769F4309729F41092EE0345
:101960001092ED0302C0138212821093EC030093D5
:10197000EB03DF91CF911F910F910895FC0105902A
:10198000615070400110D8F7809590958E0F9F1F81
:101990000895DC0101C06D9341505040E0F7089577
:1019A000FC016150704001900110D8F7809590952E
:1019B0008E0F9F1F08950F931F93CF93DF93FB010B
:1019C000238121FD03C08FEF9FEF28C022FF16C0A7
:1019D00046815781248135814217530744F4A08101
:1019E000B1819D012F5F3F4F318320838C932681EE
:1019F00037812F5F3F4F3783268310C0EB01092FBC
:101A0000182F0084F185E02D0995892BE1F68E8150
:101A10009F8101969F838E83812F902FDF91CF919D
:101A20001F910F910895FA01AA27283051F1203112
:101A300081F1E8946F936E7F6E5F7F4F8F4F9F4F62
:101A4000AF4FB1E03ED0B4E03CD0670F781F891FA4
:101A50009A1FA11D680F791F8A1F911DA11D6A0F72
:101A6000711D811D911DA11D20D009F468943F9125
:101A70002AE0269F11243019305D3193DEF6CF0124
:101A80000895462F4770405D4193B3E00FD0C9F7EA
:101A9000F6CF462F4F70405D4A3318F0495D31FD57
:101AA0004052419302D0A9F7EACFB4E0A6959795AA
:101AB000879577956795BA95C9F700976105710580
:101AC00008959B01AC010A2E0694579547953795CA
:101AD0002795BA95C9F7620F731F841F951FA01D24
:101AE0000895052E97FB1EF400940E94880D57FD63
:101AF00007D00E94DA0D07FC03D04EF40C94880D39
:101B000050954095309521953F4F4F4F5F4F089529
:101B100090958095709561957F4F8F4F9F4F089559
:101B20000E94FC0DA59F900DB49F900DA49F800D69
:101B3000911D11240895B7FF0C94900D0E94900DF3
:101B4000821B930B08952F923F924F925F926F9258
:101B50007F928F929F92AF92BF92CF92DF92EF923D
:101B6000FF920F931F93CF93DF93CDB7DEB7CA1BBE
:101B7000DB0B0FB6F894DEBF0FBECDBF09942A88E9
:101B8000398848885F846E847D848C849B84AA8491
:101B9000B984C884DF80EE80FD800C811B81AA811E
:101BA000B981CE0FD11D0FB6F894DEBF0FBECDBFE9
:101BB000ED010895A1E21A2EAA1BBB1BFD010DC069
:101BC000AA1FBB1FEE1FFF1FA217B307E407F507ED
:101BD00020F0A21BB30BE40BF50B661F771F881FC9
:101BE000991F1A9469F760957095809590959B015F
:101BF000AC01BD01CF010895A29FB001B39FC00108
:101C0000A39F700D811D1124911DB29F700D811D28
:0A1C10001124911D0895F894FFCFF0
:101C1A000A00120010010000000000EF0320002D4E
:101C2A003E00417765736F6D656E6573730042722E
:101C3A00696768746E6573730053656E7369746956
:101C4A00766974790053657474696E6773004869BC
:101C5A00676853636F726573202D20486172640050
:101C6A004869676853636F726573202D204D6564F8
:101C7A0069756D004869676853636F726573202DD3
:101C8A002045617379004869676853636F726573A9
:101C9A000048617264004D656469756D0045617341
:101CAA007900446966666963756C74790053657472
:101CBA0074696E677300486967682053636F726559
:101CCA007300506C61792047616D65004D61696EE2
:101CDA00204D656E75005820706F736974696F6E58
:101CEA003A2025640A00536C696465722072696738
:101CFA00687420706F736974696F6E3A2025640A7C
:101D0A0000425554544F4E2050524553533A2025C1
:101D1A00640A0043414E204D4553534147452052E2
:101D2A0045434945564544202D2047414D45204FBE
:101D3A0056455221212056455244492025640A001D
:101D4A0045617379004D656469756D004861726417
:101D5A000025640055500D00444F574E0D00555054
:101D6A002D52494748540D0055502D4C4546540DA7
:101D7A0000444F574E2D52494748540D00444F577F
:101D8A004E2D4C4546540D005374617274696E674A
:101D9A00204F4C454420496E697469616C697A69BF
:101DAA006E672E2E2E0A0D002E2E2E4F4C454420E5
:101DBA00496E697469616C697A696E6720436F6DEF
:101DCA00706C657465210A0D005374617274696ED2
:101DDA0067205352414D20746573742E2E2E00577E
:101DEA0072697465207068617365206572726F72BA
:101DFA003A206578745F72616D5B2534645D203DBD
:101E0A002025303258202873686F756C642062650B
:101E1A002025303258290A00526574726965766144
:101E2A006C207068617365206572726F723A206502
:101E3A0078745F72616D5B2534645D203D202530C6
:101E4A003258202873686F756C64206265202530CB
:101E5A003258290A005352414D2074657374206325
:101E6A006F6D706C657465642077697468200A25E3
:101E7A003464206572726F727320696E207772699A
:101E8A00746520706861736520616E64200A253468
:101E9A0064206572726F727320696E207265747243
:0E1EAA00696576616C2070686173650A0A00D4
:00000001FF
