:100000000C94B4010C94D1010C94D1010C94D10145
:100010000C94D1010C94D1010C94D1010C94D10118
:100020000C94D1010C94D1010C94D1010C94D10108
:100030000C94D1010C94D1010C94D1010C94D101F8
:100040000C94D1010C94D1010C94D1010C94D101E8
:100050000C94D1010C94D1010C94D1010C94D101D8
:100060000C94D1010C94D1010C94D1010C94D101C8
:10007000000000000000000000065F5F06000000B6
:100080000007070007070000147F7F147F7F14001C
:10009000242E6B6B3A120000466630180C66620024
:1000A000307A4F5D377A48000407030000000000F3
:1000B000001C3E63410000000041633E1C00000044
:1000C000082A3E1C1C3E2A0808083E3E080800007C
:1000D00000A0E06000000000080808080808000010
:1000E00000006060000000006030180C0603010092
:1000F0003E7F594D7F3E000042427F7F40400000DE
:10010000627359496F660000226349497F360000D7
:10011000181C16137F7F1000276745457D390000A6
:100120003C7E4B4979300000036371190F070000D2
:10013000367F49497F360000064F49693F1E00005F
:1001400000006C6C0000000000A0EC6C00000000DF
:10015000081C366341000000141414141414000029
:10016000004163361C080000020351590F060000CD
:100170003E7F415D5D1F1E007C7E13137E7C000070
:10018000417F7F49497F36001C3E63414163220025
:10019000417F7F41637F1C00417F7F495D41630058
:1001A000417F7F491D0103001C3E63415173720072
:1001B0007F7F08087F7F000000417F7F41000000B3
:1001C000307040417F3F0100417F7F081C77630012
:1001D000417F7F41406070007F7F060C067F7F007B
:1001E0007F7F060C187F7F001C3E6341633E1C002E
:1001F000417F7F49090F06001E3F21717F5E00008D
:10020000417F7F19396F460026674D597B320000C8
:1002100003417F7F410300007F7F40407F7F0000DC
:100220001F3F60603F1F00007F7F3018307F7F00DE
:1002300063771C081C776300074F78784F0700002E
:100240006773594D47637100007F7F414100000093
:100250000103060C183060000041417F7F00000060
:10026000080C0603060C0800808080808080808057
:100270000000030704000000207454543C78400040
:10028000413F7F44447C3800387C44446C28000063
:10029000307848493F7F4000387C54545C18000057
:1002A000487E7F490302000098BCA4A4F87C0400A7
:1002B000417F7F08047C780000447D7D4000000081
:1002C00040C484FD7D000000417F7F10386C4400F5
:1002D00000417F7F400000007C7C0C180C7C780083
:1002E0007C7C04047C780000387C44447C3800002A
:1002F00084FCF8A4243C1800183C24A4F8FC8400D6
:10030000447C78441C180000485C54547424000059
:1003100000043E7F442400003C7C40403C7C400084
:100320001C3C60603C1C00003C7C6030607C3C00FD
:10033000446C3810386C44009CBCA0A0FC7C0000CD
:100340004C64745C4C64000008083E774141000036
:1003500000000077770000004141773E0808000068
:10036000020301030203010011241FBECFEFD4E0FA
:10037000DEBFCDBF12E0A0E0B1E0E2E2F8E102C0F2
:1003800005900D92AA3EB107D9F723E0AAEEB2E09C
:1003900001C01D92A933B207E1F70E94D3010C946A
:1003A0000F0C0C9400000E94020285B7806885BF84
:1003B0000E94B4050E9489040E946006C5EAD1E04B
:1003C0000E94610561EF8FE00E9466068FE00E9447
:1003D0004D061F928F93DF93CF930E94610784EAAB
:1003E0008A95F1F70F900F900F900F90E9CF5D9BDA
:1003F000FECF8CB980E090E008955F9BFECF8CB17A
:1004000090E0089510BC8FE189B988E18AB98EE83F
:1004100080BD6DEF71E087EF91E00E9416070895AF
:1004200000C000C00000E0E0F4E1808382E68A952D
:10043000F1F7000080810895CF9385E090E00E945D
:100440001002C82F84E090E00E941002982F8C2F99
:10045000CF910895CF9386E090E00E941002C82FBC
:1004600087E090E00E941002982F8C2FCF91089582
:10047000CF93DF93EC010E941C02BE0161587F4FB5
:100480002FE730E02C1B3D0B492F50E02417350798
:1004900064F4461757074CF4E82FF0E02E173F0797
:1004A00084F5E617F7076CF556C0641775079CF4DA
:1004B000E82FF0E02E173F0724F5E617F7070CF5B5
:1004C0008CEA91E09F938F930E9461070F900F90A9
:1004D00081E090E042C0421753079CF4E82FF0E01F
:1004E0002E173F0774F4E617F7075CF480EB91E0F2
:1004F0009F938F930E9461070F900F9082E090E08E
:100500002CC090E0681779078CF42417350714F590
:1005100046175707FCF486EB91E09F938F930E9458
:1005200061070F900F9083E090E017C08217930748
:100530008CF42417350774F4461757075CF48DEBD9
:1005400091E09F938F930E9461070F900F9084E03A
:1005500090E003C002C080E090E0DF91CF91089569
:10056000E0910301F091040180830895E09101017D
:10057000F091020180830895E0910301F09104015C
:100580001082E0910301F091040180E18083E09109
:100590000301F091040180EB808310922E031092EE
:1005A0002D03089590EB980FE0910301F091040161
:1005B000908380932E030895882394F0982F9F7042
:1005C000E0910301F09104019083982F92959F7020
:1005D000905FE0910301F0910401908380932D03DB
:1005E0000895CF93C62F0E94D2028C2F0E94DC0266
:1005F000CF910895CF9390912D03973700F5282F31
:10060000880F330B20523109220F331F220F331F63
:10061000220F331FF901E059FF4F28583F4F8491B3
:10062000A0910101B09102018C9380912D038F5F05
:1006300080932D033196E217F30789F70CC0C82F7A
:1006400080912E038F5F80932E0360E00E94F10261
:100650008C2F0E94FA02CF910895CF93DF93EC0183
:100660008881882331F021960E94FA0289918111B4
:10067000FBCFDF91CF9108950E94D20280E890E0F5
:10068000E0910101F091020110820197C9F70895EC
:10069000CF93C0E08C2F0E943C03CF5FC830D1F7CE
:1006A0000E94BC02CF9108950E9448030E94BC02A0
:1006B000089583EC91E09F938F930E946107E091EE
:1006C0000301F09104018EEA8083E0910301F0912F
:1006D000040181EA8083E0910301F09104018AED35
:1006E0008083E0910301F091040182E18083E09135
:1006F0000301F091040188EC8083E0910301F09103
:10070000040188EA8083E0910301F09104018FE302
:100710008083E0910301F091040185ED8083E091F5
:100720000301F091040180E88083E0910301F091DE
:10073000040181E88083E0910301F091040180E5E8
:100740008083E0910301F091040189ED8083E091C1
:100750000301F091040181E28083E0910301F091B3
:10076000040180E28083E0910301F091040182E0C2
:100770008083E0910301F09104018BED8083E0918F
:100780000301F091040180E38083E0910301F09183
:1007900004018DEA8083E0910301F091040110824D
:1007A000E0910301F091040184EA8083E091030168
:1007B000F091040186EA8083E0910301F091040145
:1007C0008FEA808383EE91E09F938F930E9461076D
:1007D0000F900F900F900F9008950F931F93CF934A
:1007E000DF93CDB7DEB728970FB6F894DEBF0FBE04
:1007F000CDBF09831A832B833C834D835E836F8334
:10080000788728E0FE013196DC0101900D922A954F
:10081000E1F7FC0111861086138612861586148670
:100820001786168628960FB6F894DEBF0FBECDBF8A
:10083000DF91CF911F910F910895CF93DF9360E0E7
:100840000E94F102C0E1D0E080E00E94B602219750
:10085000D9F7DF91CF910895CF93DF93EC01029701
:10086000039778F480910A0390E00E941D0460E0F1
:100870008C2F0E94F1028FE091E00E942D03C09323
:100880000A038FEF9FE724E0815090402040E1F77A
:1008900000C00000DF91CF910895CF93DF93EC016A
:1008A0000E944803D0932C03C0932B0382E08093D3
:1008B0000A0382E090E00E942C046AE080E00E943B
:1008C000F102888199810E942D0364E182E00E94F7
:1008D000F1028A819B810E942D0364E183E00E94E2
:1008E000F1028C819D810E942D0364E184E00E94CD
:1008F000F1028E819F810E942D032FEF8FE797E0F9
:10090000215080409040E1F700C00000DF91CF917E
:1009100008950F931F93CF93DF93CDB7DEB7E09782
:100920000FB6F894DEBF0FBECDBF0E9459030E94E0
:1009300048032FEF8FE797E0215080409040E1F788
:1009400000C000008BE991E0082F9A83898381E938
:1009500091E0282F9C838B8385E891E0482F9E832C
:100960008D838CE791E0682F98878F8383E791E0F0
:100970009A8789878CE691E09C878B8785E691E052
:100980009E878D878EE591E0988B8F8783E591E038
:100990009A8B898B8CE491E09C8B8B8B85E491E026
:1009A0009E8B8D8B8EE391E0988F8F8B85E391E00A
:1009B0009A8F898F89E291E09C8F8B8F8EE191E0F5
:1009C0009E8F8D8F82E191E098A38F8F1A813C8159
:1009D0005E817885CE0181960E94ED0380E1FE0163
:1009E000B196ABE0B3E001900D928A95E1F70985ED
:1009F0001A852B853C854D855E856F857889CE016E
:100A000081960E94ED0380E1FE01B196ABE1B3E077
:100A100001900D928A95E1F709891A892B893C8901
:100A20004D895E896F89788DCE0181960E94ED0394
:100A300080E1FE01B196AAEEB2E001900D928A9596
:100A4000E1F7098D1A8D2B8D3C8D4D8D5E8D6F8D4F
:100A500078A1CE0181960E94ED0380E1FE01B1965E
:100A6000AAEFB2E001900D928A95E1F7EBE0F3E096
:100A70002BE133E0338722878AEE92E095878487E3
:100A80004AEF52E057874687D9011996FC93EE93B7
:100A90001897DC011996FC93EE931897DA011996D2
:100AA000FC93EE931897CF010E944D04E0960FB689
:100AB000F894DEBF0FBECDBFDF91CF911F910F9194
:100AC0000895CF93DF9382E390E00E943802EC0117
:100AD0008130910539F480910A0390E001970E94DA
:100AE0002C0417C08230910539F480910A0390E0FC
:100AF00001960E942C0435C0049759F4E0912B0311
:100B0000F0912C0380859185009759F10E944D0446
:100B100028C0239731F580910A03833071F0843027
:100B2000B1F08230F1F4E0912B03F0912C03828537
:100B30009385009711F00E944D04E0912B03F091F2
:100B40002C0384859585009711F00E944D04E09157
:100B50002B03F0912C0386859785009711F00E9456
:100B60004D04DF91CF910895CF92DF92EF92FF92E3
:100B70000F931F93CF93DF9384E092E00E94770757
:100B80000E9406077C010E940B07C12CD12CC0E0FB
:100B9000D0E00AE112E00E940607F601F85E8083C9
:100BA00020812817A1F099279F938F931F922F934D
:100BB000DF92CF921F930F930E94610721968DB70A
:100BC0009EB708960FB6F8949EBF0FBE8DBF9FEFDD
:100BD000C91AD90AC11488E0D806E9F6C7010E94EB
:100BE0000B0700E010E0E12CF12C0F2EF3E5CF2EE7
:100BF000F2E0DF2EF02D0E940607F801F85E20815A
:100C00002817B1F099279F938F931F922F931F93CB
:100C10000F93DF92CF920E9461079FEFE91AF90AC2
:100C20008DB79EB708960FB6F8949EBF0FBE8DBFC6
:100C30000F5F1F4F011598E01907E9F6FF92EF9239
:100C4000DF93CF9380E992E09F938F930E94610797
:100C50000F900F900F900F900F900F90DF91CF910A
:100C60001F910F91FF90EF90DF90CF90089580EB50
:100C700087BB81E58DB908958FB9779BFECF8FB182
:100C80000895C4980895C49A08950E94410680EC7E
:100C90000E943C060E9443060895CF93C82F0E94ED
:100CA000410683E00E943C068C2F0E943C068C2F5C
:100CB0000E943C06C82F0E9443068C2FCF910895B6
:100CC0000E9437060E94450680E00895CF93DF9387
:100CD000D82FC62F0E94410682E00E943C068D2F2D
:100CE0000E943C068C2F0E943C060E944306DF9126
:100CF000CF910895CF93C82F0E944106C13041F093
:100D000018F0C23049F00BC081E80E943C0607C0D1
:100D100082E80E943C0603C084E80E943C06CF9112
:100D20000895CF930E94410680EA0E943C0680E02D
:100D30000E943C06C82F0E9443068C2FCF91089535
:100D40001F93CF93DF93182FD62FC42F0E944106F5
:100D500085E00E943C06812F0E943C068D2F0E9458
:100D60003C068C2F0E943C060E944306DF91CF91E7
:100D70001F9108958F929F92AF92BF92CF92DF9270
:100D8000EF92FF92CF93DF93EC01688179818A81A2
:100D90009B81611571058105910521F464E279ED6E
:100DA0008BE597E02DE133EF41E050E00E94750BB9
:100DB00049015A019B01AC01A7EAB1E40E94940BDE
:100DC0006B017C01ACEEB4EFA50194010E94A20B73
:100DD000DC01CB018C0D9D1DAE1DBF1DB7FF03C0F7
:100DE0000197A109B04888839983AA83BB839F7721
:100DF000DF91CF91FF90EF90DF90CF90BF90AF90B9
:100E00009F908F9008950E94BA06089585E091E022
:100E10000E94BA060895A0E0B0E080930501909387
:100E20000601A0930701B093080108950F931F9343
:100E3000CF93DF93009731F46115710519F480E0C9
:100E400090E03AC08B01EC016EE070E081E090E050
:100E50000E947909FC01892B91F380E883830115B5
:100E6000110571F01387028781E8838380912F0336
:100E700090913003892B21F4F0933003E0932F03FA
:100E80002097C9F0D187C087838182608383809156
:100E9000310390913203892B71F4F0933203E09384
:100EA00031038091330390913403892B21F4F09323
:100EB0003403E0933303CF01DF91CF911F910F9162
:100EC0000895A0E0B0E0E7E6F7E00C94B70BAE01C0
:100ED0004B5F5F4FFA0161917191AF0180913103D6
:100EE000909132030E94A707E2E00C94D30B0F937A
:100EF0001F93CF93DF93E0913103F091320323816D
:100F000021FF1BC08C01D0E0C0E0F80181918F016E
:100F10006091310370913203DB011896ED91FC91E1
:100F20001997882331F00995892B79F3DFEFCFEFFB
:100F3000ECCF8AE00995892B19F08FEF9FEF02C063
:100F40008D2F9C2FDF91CF911F910F910895ACE0D1
:100F5000B0E0EDEAF7E00C94A70B7C016B018A018D
:100F6000FC0117821682838181FFBDC1CE010196EB
:100F70004C01F7019381F60193FD859193FF8191D7
:100F80006F01882309F4ABC1853239F493FD859153
:100F900093FF81916F01853229F4B70190E00E949F
:100FA000DF0AE7CF512C312C20E02032A0F48B3225
:100FB00069F030F4803259F0833269F420612CC03A
:100FC0008D3239F0803339F4216026C022602460EC
:100FD00023C0286021C027FD27C030ED380F3A30EC
:100FE00078F426FF06C0FAE05F9E300D1124532EE0
:100FF00013C08AE0389E300D1124332E20620CC0BD
:101000008E3221F426FD6BC1206406C08C3611F4AB
:10101000206802C0883641F4F60193FD859193FF64
:1010200081916F018111C1CF982F9F7D955493308D
:1010300028F40C5F1F4FFFE3F9830DC0833631F0B6
:10104000833771F0833509F05BC022C0F8018081DD
:1010500089830E5F1F4F44244394512C540115C0C3
:101060003801F2E06F0E711CF801A080B18026FFFC
:1010700003C0652D70E002C06FEF7FEFC5012C87C4
:101080000E94D40A2C0183012C852F77222E17C0B1
:101090003801F2E06F0E711CF801A080B18026FFCC
:1010A00003C0652D70E002C06FEF7FEFC5012C8794
:1010B0000E94C20A2C012C852068222E830123FC69
:1010C0001BC0832D90E048165906B0F4B70180E2AA
:1010D00090E00E94DF0A3A94F4CFF50127FC859155
:1010E00027FE81915F01B70190E00E94DF0A311075
:1010F0003A94F1E04F1A51084114510471F7E5C0D8
:10110000843611F0893639F5F80127FF07C0608170
:101110007181828193810C5F1F4F08C06081718152
:10112000072E000C880B990B0E5F1F4F2F76722E27
:1011300097FF09C090958095709561957F4F8F4F6F
:101140009F4F2068722E2AE030E0A4010E94170B06
:10115000A82EA81844C0853729F42F7EB22E2AE085
:1011600030E025C0F22FF97FBF2E8F36C1F018F482
:10117000883579F0B4C0803719F0883721F0AFC0D6
:101180002F2F2061B22EB4FE0DC08B2D8460B82E9F
:1011900009C024FF0AC09F2F9660B92E06C028E020
:1011A00030E005C020E130E002C020E132E0F8018B
:1011B000B7FE07C060817181828193810C5F1F4FF0
:1011C00006C06081718180E090E00E5F1F4FA40136
:1011D0000E94170BA82EA818FB2DFF777F2E76FEF6
:1011E0000BC0372D3E7FA51450F474FE0AC072FC6C
:1011F00008C0372D3E7E05C0BA2C372D03C0BA2C4F
:1012000001C0B52C34FF0DC0FE01EA0DF11D808137
:10121000803311F4397E09C032FF06C0B394B39411
:1012200004C0832F867809F0B39433FD13C030FFD8
:1012300006C05A2CB31418F4530C5B18B32CB31417
:1012400068F4B70180E290E03C870E94DF0AB39423
:101250003C85F5CFB31410F43B1801C0312C34FF9A
:1012600012C0B70180E390E03C870E94DF0A3C8512
:1012700032FF17C031FD03C088E790E002C088E567
:1012800090E0B7010CC0832F867859F031FF02C07F
:101290008BE201C080E237FD8DE2B70190E00E9451
:1012A000DF0AA51438F4B70180E390E00E94DF0A5A
:1012B0005A94F7CFAA94F401EA0DF11D8081B70189
:1012C00090E00E94DF0AA110F5CF332009F451CE3F
:1012D000B70180E290E00E94DF0A3A94F6CFF7016E
:1012E0008681978102C08FEF9FEF2C96E2E10C94EC
:1012F000C30B0F931F93CF93DF93869F8001879F2C
:10130000100D969F100D1124C8010E949509EC0143
:10131000009729F0A80160E070E00E94CD0ACE019C
:10132000DF91CF911F910F910895CF93DF9382307A
:10133000910510F482E090E0E0913703F0913803DA
:1013400020E030E0C0E0D0E0309711F140815181E1
:1013500048175907C0F04817590761F482819381F3
:10136000209719F09B838A832BC090933803809336
:10137000370326C02115310519F04217530718F419
:101380009A01BE01DF01EF010280F381E02DDCCF85
:101390002115310509F1281B390B2430310590F452
:1013A00012968D919C9113976115710521F0FB01A7
:1013B0009383828304C09093380380933703FD01A5
:1013C000329644C0FD01E20FF31F819391932250A6
:1013D00031092D933C933AC0209135033091360367
:1013E000232B41F420910B0130910C0130933603F3
:1013F000209335032091090130910A01211531050F
:1014000041F42DB73EB740910D0150910E01241BC0
:10141000350BE0913503F0913603E217F307A0F4A2
:101420002E1B3F0B2817390778F0AC014E5F5F4F3A
:101430002417350748F04E0F5F1F50933603409333
:1014400035038193919302C0E0E0F0E0CF01DF919A
:10145000CF9108950F931F93CF93DF93009709F4D3
:101460008CC0FC01329713821282009137031091D5
:1014700038030115110581F420813181820F931FFA
:1014800020913503309136032817390779F5F09309
:101490003603E093350371C0D80140E050E0AE1749
:1014A000BF0750F412962D913C911397AD01211571
:1014B000310509F1D901F3CF9D01DA01338322838C
:1014C00060817181860F971F8217930769F4EC0181
:1014D00028813981260F371F2E5F3F4F31832083AC
:1014E0008A819B8193838283452B29F4F09338036F
:1014F000E093370342C01396FC93EE931297ED01ED
:10150000499159919E01240F351FE217F30771F499
:1015100080819181840F951F029611969C938E93E2
:101520008281938113969C938E931297E0E0F0E072
:10153000D80112968D919C911397009719F0F8019C
:101540008C01F6CF8D919C9198012E5F3F4F820FB9
:10155000931F20913503309136032817390769F41A
:10156000309729F4109238031092370302C0138287
:1015700012821093360300933503DF91CF911F91B0
:101580000F910895FC010590615070400110D8F74B
:10159000809590958E0F9F1F0895DC0101C06D937B
:1015A00041505040E0F70895FC01615070400190B7
:1015B0000110D8F7809590958E0F9F1F08950F9377
:1015C0001F93CF93DF93FB01238121FD03C08FEF96
:1015D0009FEF28C022FF16C04681578124813581A4
:1015E0004217530744F4A081B1819D012F5F3F4F03
:1015F000318320838C93268137812F5F3F4F378340
:10160000268310C0EB01092F182F0084F185E02DEF
:101610000995892BE1F68E819F8101969F838E83A8
:10162000812F902FDF91CF911F910F910895FA0193
:10163000AA27283051F1203181F1E8946F936E7F11
:101640006E5F7F4F8F4F9F4FAF4FB1E03ED0B4E002
:101650003CD0670F781F891F9A1FA11D680F791F43
:101660008A1F911DA11D6A0F711D811D911DA11D54
:1016700020D009F468943F912AE0269F1124301964
:10168000305D3193DEF6CF010895462F4770405DFF
:101690004193B3E00FD0C9F7F6CF462F4F70405DAE
:1016A0004A3318F0495D31FD4052419302D0A9F709
:1016B000EACFB4E0A6959795879577956795BA9503
:1016C000C9F700976105710508959B01AC010A2EC9
:1016D00006945795479537952795BA95C9F7620FA0
:1016E000731F841F951FA01D0895052E97FB1EF4E0
:1016F00000940E948C0B57FD07D00E94DE0B07FC64
:1017000003D04EF40C948C0B509540953095219558
:101710003F4F4F4F5F4F089590958095709561951D
:101720007F4F8F4F9F4F08950E94000CA59F900DF3
:10173000B49F900DA49F800D911D11240895B7FFB3
:101740000C94940B0E94940B821B930B08952F9280
:101750003F924F925F926F927F928F929F92AF9241
:10176000BF92CF92DF92EF92FF920F931F93CF938E
:10177000DF93CDB7DEB7CA1BDB0B0FB6F894DEBF25
:101780000FBECDBF09942A88398848885F846E844B
:101790007D848C849B84AA84B984C884DF80EE8095
:1017A000FD800C811B81AA81B981CE0FD11D0FB69E
:1017B000F894DEBF0FBECDBFED010895A1E21A2E51
:1017C000AA1BBB1BFD010DC0AA1FBB1FEE1FFF1FE5
:1017D000A217B307E407F50720F0A21BB30BE40B35
:1017E000F50B661F771F881F991F1A9469F760957C
:1017F0007095809590959B01AC01BD01CF01089536
:10180000A29FB001B39FC001A39F700D811D112441
:10181000911DB29F700D811D1124911D0895F894A2
:02182000FFCFF8
:101822000A00120010010000000000390320002D00
:101832003E00417765736F6D656E6573730042722A
:10184200696768746E6573730053656E7369746952
:10185200766974790053657474696E677300456DB7
:101862007074793300456D7074793200456D70740F
:101872007931004869676853636F72657300456D1B
:101882007074793300456D7074793200456D7074EF
:10189200793100506C617947616D650053657474EC
:1018A200696E677300486967682053636F72657376
:1018B20000506C61792047616D65004D61696E2051
:1018C2004D656E7500307825780D0A0055500D0073
:1018D200444F574E0D0052494748540D004C45465F
:1018E200540D005374617274696E67204F4C454405
:1018F20020496E697469616C697A696E672E2E2E51
:101902000A0D002E2E2E4F4C454420496E697469F3
:10191200616C697A696E6720436F6D706C6574657E
:10192200210A0D005374617274696E67205352412B
:101932004D20746573742E2E2E00577269746520C3
:101942007068617365206572726F723A206578748F
:101952005F72616D5B2534645D203D202530325815
:10196200202873686F756C642062652025303258B8
:10197200290A0052657472696576616C207068612B
:101982007365206572726F723A206578745F726156
:101992006D5B2534645D203D20253032582028734C
:1019A200686F756C642062652025303258290A0000
:1019B2005352414D207465737420636F6D706C6572
:1019C2007465642077697468200A2534642065721E
:1019D200726F727320696E20777269746520706805
:1019E20061736520616E64200A2534642065727219
:1019F2006F727320696E2072657472696576616CAC
:0A1A02002070686173650A0A000095
:00000001FF
