:100000000C94B4010C94D1010C94D1010C94D10145
:100010000C94D1010C94D1010C94D1010C94D10118
:100020000C94D1010C94D1010C94D1010C94D10108
:100030000C94D1010C94D1010C94D1010C94D101F8
:100040000C94D1010C94D1010C94D1010C94D101E8
:100050000C94D1010C94D1010C94D1010C94D101D8
:100060000C94D1010C94D1010C94D1010C94D101C8
:10007000000000000000000000065F5F06000000B6
:100080000007070007070000147F7F147F7F14001C
:10009000242E6B6B3A120000466630180C66620024
:1000A000307A4F5D377A48000407030000000000F3
:1000B000001C3E63410000000041633E1C00000044
:1000C000082A3E1C1C3E2A0808083E3E080800007C
:1000D00000A0E06000000000080808080808000010
:1000E00000006060000000006030180C0603010092
:1000F0003E7F594D7F3E000042427F7F40400000DE
:10010000627359496F660000226349497F360000D7
:10011000181C16137F7F1000276745457D390000A6
:100120003C7E4B4979300000036371190F070000D2
:10013000367F49497F360000064F49693F1E00005F
:1001400000006C6C0000000000A0EC6C00000000DF
:10015000081C366341000000141414141414000029
:10016000004163361C080000020351590F060000CD
:100170003E7F415D5D1F1E007C7E13137E7C000070
:10018000417F7F49497F36001C3E63414163220025
:10019000417F7F41637F1C00417F7F495D41630058
:1001A000417F7F491D0103001C3E63415173720072
:1001B0007F7F08087F7F000000417F7F41000000B3
:1001C000307040417F3F0100417F7F081C77630012
:1001D000417F7F41406070007F7F060C067F7F007B
:1001E0007F7F060C187F7F001C3E6341633E1C002E
:1001F000417F7F49090F06001E3F21717F5E00008D
:10020000417F7F19396F460026674D597B320000C8
:1002100003417F7F410300007F7F40407F7F0000DC
:100220001F3F60603F1F00007F7F3018307F7F00DE
:1002300063771C081C776300074F78784F0700002E
:100240006773594D47637100007F7F414100000093
:100250000103060C183060000041417F7F00000060
:10026000080C0603060C0800808080808080808057
:100270000000030704000000207454543C78400040
:10028000413F7F44447C3800387C44446C28000063
:10029000307848493F7F4000387C54545C18000057
:1002A000487E7F490302000098BCA4A4F87C0400A7
:1002B000417F7F08047C780000447D7D4000000081
:1002C00040C484FD7D000000417F7F10386C4400F5
:1002D00000417F7F400000007C7C0C180C7C780083
:1002E0007C7C04047C780000387C44447C3800002A
:1002F00084FCF8A4243C1800183C24A4F8FC8400D6
:10030000447C78441C180000485C54547424000059
:1003100000043E7F442400003C7C40403C7C400084
:100320001C3C60603C1C00003C7C6030607C3C00FD
:10033000446C3810386C44009CBCA0A0FC7C0000CD
:100340004C64745C4C64000008083E774141000036
:1003500000000077770000004141773E0808000068
:10036000020301030203010011241FBECFEFD4E0FA
:10037000DEBFCDBF11E0A0E0B1E0E0EEF3E102C0EE
:1003800005900D92A23EB107D9F722E0A2EEB1E0AE
:1003900001C01D92A133B207E1F70E94D3010C9472
:1003A000EE090C9400000E94E80185B7806885BFC3
:1003B0000E9452040E943505FDCF5D9BFECF8CB993
:1003C00080E090E008955F9BFECF8CB190E00895AF
:1003D00010BC8FE189B988E18AB98EE880BD63EEEF
:1003E00071E08DED91E00E948805089500C000C085
:1003F0000000E0E0F4E1808382E68A95F1F70000F6
:1004000080810895CF9385E090E00E94F601C82F87
:1004100084E090E00E94F601982F8C2FCF910895F0
:10042000CF9386E090E00E94F601C82F87E090E02D
:100430000E94F601982F8C2FCF910895CF93DF93D0
:10044000EC010E940202BE0161587F4F4FE750E06D
:100450004C1B5D0B292F30E04217530764F426171D
:1004600037074CF4E82FF0E04E175F07DCF4E6178F
:10047000F707C4F42CC0621773074CF4E82FF0E0C0
:100480004E175F077CF4E617F70764F423C02417C0
:10049000350744F4E82FF0E04E175F071CF4E61729
:1004A000F707DCF090E0681779073CF44217530730
:1004B0006CF42617370754F413C08417950734F4E7
:1004C000421753071CF4261737076CF00EC080E064
:1004D00090E00BC081E090E008C082E090E005C0B1
:1004E00083E090E002C084E090E0DF91CF91089536
:1004F000E0910301F091040180830895E0910101EE
:10050000F091020180830895E0910301F0910401CC
:100510001082E0910301F091040180E18083E09179
:100520000301F091040180EB80831092E3011092AB
:10053000E201089590EB980FE0910301F09104011E
:1005400090838093E3010895882394F0982F9F70FF
:10055000E0910301F09104019083982F92959F7090
:10056000905FE0910301F091040190838093E20198
:100570000895CF93C62F0E949A028C2F0E94A40246
:10058000CF910895CF939091E201973700F5282FEE
:10059000880F330B20523109220F331F220F331FD4
:1005A000220F331FF901E059FF4F28583F4F849124
:1005B000A0910101B09102018C938091E2018F5FC3
:1005C0008093E2013196E217F30789F70CC0C82F38
:1005D0008091E3018F5F8093E30160E00E94B902A4
:1005E0008C2F0E94C202CF910895CF93DF93EC012C
:1005F0008881882331F021960E94C202899181115D
:10060000FBCFDF91CF9108950E949A0280E890E09D
:10061000E0910101F091020110820197C9F708955C
:10062000CF93C0E08C2F0E940403CF5FC830D1F776
:100630000E948402CF9108950E9410030E948402B8
:10064000089581EA91E09F938F930E94D305E091F2
:100650000301F09104018EEA8083E0910301F0919F
:10066000040181EA8083E0910301F09104018AEDA5
:100670008083E0910301F091040182E18083E091A5
:100680000301F091040188EC8083E0910301F09173
:10069000040188EA8083E0910301F09104018FE373
:1006A0008083E0910301F091040185ED8083E09166
:1006B0000301F091040180E88083E0910301F0914F
:1006C000040181E88083E0910301F091040180E559
:1006D0008083E0910301F091040189ED8083E09132
:1006E0000301F091040181E28083E0910301F09124
:1006F000040180E28083E0910301F091040182E033
:100700008083E0910301F09104018BED8083E091FF
:100710000301F091040180E38083E0910301F091F3
:1007200004018DEA8083E0910301F09104011082BD
:10073000E0910301F091040184EA8083E0910301D8
:10074000F091040186EA8083E0910301F0910401B5
:100750008FEA808381EC91E09F938F930E94D30571
:100760000F900F900F900F9008950F931F93CF93BA
:10077000DF93CDB7DEB728970FB6F894DEBF0FBE74
:10078000CDBF09831A832B833C834D835E836F83A4
:10079000788728E0FE013196DC0101900D922A95C0
:1007A000E1F7FC01118610861386128615861486E1
:1007B0001786168628960FB6F894DEBF0FBECDBFFB
:1007C000DF91CF911F910F910895CF93DF9360E058
:1007D0000E94B902C0E1D0E080E090E00E947E0279
:1007E0002197D1F7DF91CF910895CF93DF93EC015B
:1007F0000297039778F48091040290E00E94E50349
:1008000060E08C2F0E94B9028BE091E00E94F5021B
:10081000C09304028FEF9FE724E081509040204076
:10082000E1F700C00000DF91CF910895CF93DF93EF
:10083000EC012FEF8FE797E0215080409040E1F7E7
:1008400000C000000E941003D0932602C09325022E
:1008500082E08093040282E090E00E94F5036AE067
:1008600080E00E94B902888199810E94F50264E1CA
:1008700082E00E94B9028A819B810E94F50264E1B4
:1008800083E00E94B9028C819D810E94F50264E19F
:1008900084E00E94B9028E819F810E94F502DF915F
:1008A000CF910895EF92FF920F931F93CF93DF9311
:1008B000CDB7DEB7E0970FB6F894DEBF0FBECDBF61
:1008C0000E9421030E9410032FEF8FE797E0215031
:1008D00080409040E1F700C0000087E991E0082FD8
:1008E0009A8389838DE891E0282F9C838B8381E80C
:1008F00091E0482F9E838D8388E791E0682F988749
:100900008F838FE691E09A87898788E691E09C87BC
:100910008B8781E691E09E878D878AE591E0988BB1
:100920008F878FE491E09A8B898B88E491E09C8B90
:100930008B8B81E491E09E8B8D8B8AE391E0988F85
:100940008F8B0F2EF5E0EF2EF2E0FF2EF02DF092C0
:100950002602E092250281E391E09A8F898F85E259
:1009600091E09C8F8B8F8AE191E09E8F8D8F8EE03E
:1009700091E098A38F8F1A813C815E817885CE01AA
:1009800081960E94B50380E1FE01B196D7010190E6
:100990000D928A95E1F709851A852B853C854D8551
:1009A0005E856F857889CE0181960E94B50380E1CE
:1009B000FE01B196A5E1B2E001900D928A95E1F7B2
:1009C00009891A892B893C894D895E896F89788DBF
:1009D000CE0181960E94B50380E1FE01B196A4EE9E
:1009E000B1E001900D928A95E1F7098D1A8D2B8D5A
:1009F0003C8D4D8D5E8D6F8D78A1CE0181960E94CC
:100A0000B50380E1FE01B196A4EFB1E001900D9233
:100A10008A95E1F785E192E0F70193878287A4EE5A
:100A2000B1E0B587A48724EF31E037872687FC0142
:100A3000F186E0861996FC92EE921897F901F186FC
:100A4000E086F0922602E0922502C7010E94160479
:100A5000E0960FB6F894DEBF0FBECDBFDF91CF9109
:100A60001F910F91FF90EF900895CF93DF9384E152
:100A700090E00E941E02EC018130910539F48091D2
:100A8000040290E001970E94F50317C0823091059F
:100A900039F48091040290E001960E94F50335C07C
:100AA000049759F4E0912502F09126028085918502
:100AB000009759F10E94160428C0239731F58091C0
:100AC0000402833071F08430B1F08230F1F4E091AF
:100AD0002502F091260282859385009711F00E94ED
:100AE0001604E0912502F0912602848595850097F1
:100AF00011F00E941604E0912502F09126028685ED
:100B00009785009711F00E941604DF91CF91089508
:100B10000F931F93CF93DF93009731F46115710505
:100B200019F480E090E03AC08B01EC016EE070E0D7
:100B300081E090E00E94BB07FC01892B91F380E8E3
:100B400083830115110571F01387028781E8838380
:100B50008091270290912802892B21F4F09328029A
:100B6000E09327022097C9F0D187C08783818260F4
:100B700083838091290290912A02892B71F4F0934A
:100B80002A02E093290280912B0290912C02892B5A
:100B900021F4F0932C02E0932B02CF01DF91CF914F
:100BA0001F910F910895A0E0B0E0E9EDF5E00C94FD
:100BB000C709AE014B5F5F4FFA0161917191AF01BF
:100BC0008091290290912A020E94E905E2E00C94AA
:100BD000E309ACE0B0E0EFEEF5E00C94B7097C017E
:100BE0006B018A01FC0117821682838181FFBDC1DE
:100BF000CE0101964C01F7019381F60193FD859199
:100C000093FF81916F01882309F4ABC1853239F4D8
:100C100093FD859193FF81916F01853229F4B7018E
:100C200090E00E942109E7CF512C312C20E02032A6
:100C3000A0F48B3269F030F4803259F0833269F4D9
:100C400020612CC08D3239F0803339F4216026C008
:100C50002260246023C0286021C027FD27C030ED1A
:100C6000380F3A3078F426FF06C0FAE05F9E300D68
:100C70001124532E13C08AE0389E300D1124332ED8
:100C800020620CC08E3221F426FD6BC1206406C0A8
:100C90008C3611F4206802C0883641F4F60193FDC9
:100CA000859193FF81916F018111C1CF982F9F7D15
:100CB0009554933028F40C5F1F4FFFE3F9830DC068
:100CC000833631F0833771F0833509F05BC022C081
:100CD000F801808189830E5F1F4F44244394512C77
:100CE000540115C03801F2E06F0E711CF801A080AC
:100CF000B18026FF03C0652D70E002C06FEF7FEF6B
:100D0000C5012C870E9416092C0183012C852F77A1
:100D1000222E17C03801F2E06F0E711CF801A0807E
:100D2000B18026FF03C0652D70E002C06FEF7FEF3A
:100D3000C5012C870E9404092C012C852068222ED5
:100D4000830123FC1BC0832D90E048165906B0F4A4
:100D5000B70180E290E00E9421093A94F4CFF501B6
:100D600027FC859127FE81915F01B70190E00E94E9
:100D7000210931103A94F1E04F1A510841145104FD
:100D800071F7E5C0843611F0893639F5F80127FF8F
:100D900007C060817181828193810C5F1F4F08C001
:100DA00060817181072E000C880B990B0E5F1F4F1D
:100DB0002F76722E97FF09C090958095709561955A
:100DC0007F4F8F4F9F4F2068722E2AE030E0A401A2
:100DD0000E945909A82EA81844C0853729F42F7EEF
:100DE000B22E2AE030E025C0F22FF97FBF2E8F36D9
:100DF000C1F018F4883579F0B4C0803719F088371D
:100E000021F0AFC02F2F2061B22EB4FE0DC08B2D6C
:100E10008460B82E09C024FF0AC09F2F9660B92EA7
:100E200006C028E030E005C020E130E002C020E14B
:100E300032E0F801B7FE07C0608171818281938141
:100E40000C5F1F4F06C06081718180E090E00E5FF3
:100E50001F4FA4010E945909A82EA818FB2DFF7747
:100E60007F2E76FE0BC0372D3E7FA51450F474FE06
:100E70000AC072FC08C0372D3E7E05C0BA2C372D43
:100E800003C0BA2C01C0B52C34FF0DC0FE01EA0D21
:100E9000F11D8081803311F4397E09C032FF06C014
:100EA000B394B39404C0832F867809F0B39433FDD0
:100EB00013C030FF06C05A2CB31418F4530C5B183F
:100EC000B32CB31468F4B70180E290E03C870E9431
:100ED0002109B3943C85F5CFB31410F43B1801C03D
:100EE000312C34FF12C0B70180E390E03C870E94B0
:100EF00021093C8532FF17C031FD03C088E790E02F
:100F000002C088E590E0B7010CC0832F867859F0C5
:100F100031FF02C08BE201C080E237FD8DE2B701F4
:100F200090E00E942109A51438F4B70180E390E015
:100F30000E9421095A94F7CFAA94F401EA0DF11DF9
:100F40008081B70190E00E942109A110F5CF3320E4
:100F500009F451CEB70180E290E00E9421093A9451
:100F6000F6CFF7018681978102C08FEF9FEF2C9615
:100F7000E2E10C94D3090F931F93CF93DF93869FE5
:100F80008001879F100D969F100D1124C8010E94AB
:100F9000D707EC01009729F0A80160E070E00E94FB
:100FA0000F09CE01DF91CF911F910F910895CF933B
:100FB000DF938230910510F482E090E0E0912F02FF
:100FC000F091300220E030E0C0E0D0E0309711F145
:100FD0004081518148175907C0F04817590761F4FB
:100FE00082819381209719F09B838A832BC09093F1
:100FF000300280932F0226C02115310519F04217C7
:10100000530718F49A01BE01DF01EF010280F3815A
:10101000E02DDCCF2115310509F1281B390B2430D7
:10102000310590F412968D919C911397611571057D
:1010300021F0FB019383828304C09093300280935C
:101040002F02FD01329644C0FD01E20FF31F819390
:101050009193225031092D933C933AC020912D0257
:1010600030912E02232B41F4209107013091080189
:1010700030932E0220932D0220910501309106011C
:101080002115310541F42DB73EB74091090150912A
:101090000A01241B350BE0912D02F0912E02E2177C
:1010A000F307A0F42E1B3F0B2817390778F0AC018B
:1010B0004E5F5F4F2417350748F04E0F5F1F509368
:1010C0002E0240932D028193919302C0E0E0F0E064
:1010D000CF01DF91CF9108950F931F93CF93DF93AB
:1010E000009709F48CC0FC013297138212820091A0
:1010F0002F02109130020115110581F420813181F8
:10110000820F931F20912D0230912E02281739074C
:1011100079F5F0932E02E0932D0271C0D80140E0E2
:1011200050E0AE17BF0750F412962D913C911397E3
:10113000AD012115310509F1D901F3CF9D01DA0186
:101140003383228360817181860F971F82179307F3
:1011500069F4EC0128813981260F371F2E5F3F4F3C
:10116000318320838A819B8193838283452B29F459
:10117000F0933002E0932F0242C01396FC93EE935B
:101180001297ED01499159919E01240F351FE217E5
:10119000F30771F480819181840F951F0296119657
:1011A0009C938E938281938113969C938E93129736
:1011B000E0E0F0E0D80112968D919C911397009792
:1011C00019F0F8018C01F6CF8D919C9198012E5F5A
:1011D0003F4F820F931F20912D0230912E0228172E
:1011E000390769F4309729F41092300210922F02D7
:1011F00002C01382128210932E0200932D02DF91FF
:10120000CF911F910F910895FC010590615070409E
:101210000110D8F7809590958E0F9F1F0895DC01DF
:1012200001C06D9341505040E0F70895FC016150BA
:10123000704001900110D8F7809590958E0F9F1FF8
:1012400008950F931F93CF93DF93FB01238121FD1B
:1012500003C08FEF9FEF28C022FF16C04681578141
:10126000248135814217530744F4A081B1819D0147
:101270002F5F3F4F318320838C93268137812F5FEF
:101280003F4F3783268310C0EB01092F182F0084AE
:10129000F185E02D0995892BE1F68E819F810196DC
:1012A0009F838E83812F902FDF91CF911F910F917C
:1012B0000895FA01AA27283051F1203181F1E894EC
:1012C0006F936E7F6E5F7F4F8F4F9F4FAF4FB1E039
:1012D0003ED0B4E03CD0670F781F891F9A1FA11D34
:1012E000680F791F8A1F911DA11D6A0F711D811D35
:1012F000911DA11D20D009F468943F912AE0269FFA
:1013000011243019305D3193DEF6CF010895462F58
:101310004770405D4193B3E00FD0C9F7F6CF462F39
:101320004F70405D4A3318F0495D31FD40524193A2
:1013300002D0A9F7EACFB4E0A6959795879577955F
:101340006795BA95C9F700976105710508959B01E6
:10135000AC010A2E06945795479537952795BA956F
:10136000C9F7620F731F841F951FA01D08952F9248
:101370003F924F925F926F927F928F929F92AF9225
:10138000BF92CF92DF92EF92FF920F931F93CF9372
:10139000DF93CDB7DEB7CA1BDB0B0FB6F894DEBF09
:1013A0000FBECDBF09942A88398848885F846E842F
:1013B0007D848C849B84AA84B984C884DF80EE8079
:1013C000FD800C811B81AA81B981CE0FD11D0FB682
:1013D000F894DEBF0FBECDBFED010895F894FFCFA6
:1013E0000A001200100000310220002D3E0041775B
:1013F00065736F6D656E65737300427269676874BB
:101400006E6573730053656E736974697669747978
:101410000053657474696E677300456D7074793339
:1014200000456D7074793200456D707479310048F3
:1014300069676853636F72657300456D70747933C3
:1014400000456D7074793200456D707479310050CB
:101450006C617947616D650053657474696E67737B
:1014600000486967682053636F72657300506C6150
:10147000792047616D65004D61696E204D656E751F
:10148000005374617274696E67204F4C4544204963
:101490006E697469616C697A696E672E2E2E0A0D09
:1014A000002E2E2E4F4C454420496E697469616CA4
:1014B000697A696E6720436F6D706C657465210A87
:0214C0000D001D
:00000001FF
