:100000000C94B4010C94D1010C94D1010C94D10145
:100010000C94D1010C94D1010C94D1010C94D10118
:100020000C94D1010C94D1010C94D1010C94D10108
:100030000C94D1010C94D1010C94D1010C94D101F8
:100040000C94D1010C94D1010C94D1010C94D101E8
:100050000C94D1010C94D1010C94D1010C94D101D8
:100060000C94D1010C94D1010C94D1010C94D101C8
:10007000000000000000000000065F5F06000000B6
:100080000007070007070000147F7F147F7F14001C
:10009000242E6B6B3A120000466630180C66620024
:1000A000307A4F5D377A48000407030000000000F3
:1000B000001C3E63410000000041633E1C00000044
:1000C000082A3E1C1C3E2A0808083E3E080800007C
:1000D00000A0E06000000000080808080808000010
:1000E00000006060000000006030180C0603010092
:1000F0003E7F594D7F3E000042427F7F40400000DE
:10010000627359496F660000226349497F360000D7
:10011000181C16137F7F1000276745457D390000A6
:100120003C7E4B4979300000036371190F070000D2
:10013000367F49497F360000064F49693F1E00005F
:1001400000006C6C0000000000A0EC6C00000000DF
:10015000081C366341000000141414141414000029
:10016000004163361C080000020351590F060000CD
:100170003E7F415D5D1F1E007C7E13137E7C000070
:10018000417F7F49497F36001C3E63414163220025
:10019000417F7F41637F1C00417F7F495D41630058
:1001A000417F7F491D0103001C3E63415173720072
:1001B0007F7F08087F7F000000417F7F41000000B3
:1001C000307040417F3F0100417F7F081C77630012
:1001D000417F7F41406070007F7F060C067F7F007B
:1001E0007F7F060C187F7F001C3E6341633E1C002E
:1001F000417F7F49090F06001E3F21717F5E00008D
:10020000417F7F19396F460026674D597B320000C8
:1002100003417F7F410300007F7F40407F7F0000DC
:100220001F3F60603F1F00007F7F3018307F7F00DE
:1002300063771C081C776300074F78784F0700002E
:100240006773594D47637100007F7F414100000093
:100250000103060C183060000041417F7F00000060
:10026000080C0603060C0800808080808080808057
:100270000000030704000000207454543C78400040
:10028000413F7F44447C3800387C44446C28000063
:10029000307848493F7F4000387C54545C18000057
:1002A000487E7F490302000098BCA4A4F87C0400A7
:1002B000417F7F08047C780000447D7D4000000081
:1002C00040C484FD7D000000417F7F10386C4400F5
:1002D00000417F7F400000007C7C0C180C7C780083
:1002E0007C7C04047C780000387C44447C3800002A
:1002F00084FCF8A4243C1800183C24A4F8FC8400D6
:10030000447C78441C180000485C54547424000059
:1003100000043E7F442400003C7C40403C7C400084
:100320001C3C60603C1C00003C7C6030607C3C00FD
:10033000446C3810386C44009CBCA0A0FC7C0000CD
:100340004C64745C4C64000008083E774141000036
:1003500000000077770000004141773E0808000068
:10036000020301030203010011241FBECFEFD4E0FA
:10037000DEBFCDBF12E0A0E0B1E0E8EEF6E102C0E2
:1003800005900D92A43CB107D9F722E0A4ECB2E0AD
:1003900001C01D92A03DB207E1F70E94D3010C9469
:1003A000720B0C940000CF93DF9300D01F92CDB757
:1003B000DEB70E94050285B7806885BF0E941302E0
:1003C00081E692E6A0E089839A83AB830E94D904F8
:1003D0000E9428040E941704CE0101960E94FC038B
:1003E0002FEF8FE797E0215080409040E1F700C069
:1003F0000000F6CF5D9BFECF8CB980E090E00895C1
:100400005F9BFECF8CB190E0089510BC8FE189B95D
:1004100088E18AB98EE880BD60E072E08AEF91E001
:100420000E9479060895CF92DF92EF92FF920F9388
:100430001F93CF93DF938FE091E00E94DA060E9432
:1004400069067C010E946E06C12CD12CC0E0D0E070
:1004500005E211E00E946906F601F85E80832081C2
:100460002817A1F099279F938F931F922F93DF92C4
:10047000CF921F930F930E94C40621968DB79EB70B
:1004800008960FB6F8949EBF0FBE8DBF9FEFC91A96
:10049000D90AC11488E0D806E9F6C7010E946E06A1
:1004A00000E010E0E12CF12C0F2EFEE5CF2EF1E064
:1004B000DF2EF02D0E946906F801F85E20812817D2
:1004C000B1F099279F938F931F922F931F930F93B0
:1004D000DF92CF920E94C4069FEFE91AF90A8DB706
:1004E0009EB708960FB6F8949EBF0FBE8DBF0F5FE4
:1004F0001F4F011598E01907E9F6FF92EF92DF937D
:10050000CF938BE991E09F938F930E94C4060F9045
:100510000F900F900F900F900F90DF91CF911F9140
:100520000F91FF90EF90DF90CF90089500C000C032
:100530000000E0E0F4E1808382E68A95F1F70000B4
:1005400080810895CF9385E090E00E949602C82FA5
:1005500084E090E00E949602982F8C2FCF9108950E
:10056000CF9386E090E00E949602C82F87E090E04B
:100570000E949602982F8C2FCF910895CF93DF93EE
:10058000EC010E94A202BE0161587F4F4FE750E08C
:100590004C1B5D0B292F30E042175307B4F426178C
:1005A00037079CF4E82FF0E04E175F07D4F5E61705
:1005B000F707BCF584EF91E09F938F930E94C406E8
:1005C0000F900F9080E090E097C0621773079CF443
:1005D000E82FF0E04E175F0724F5E617F7070CF554
:1005E0008DEF91E09F938F930E94C4060F900F9020
:1005F00081E090E081C0241735079CF4E82FF0E0FB
:100600004E175F0774F4E617F7075CF481E092E099
:100610009F938F930E94C4060F900F9082E090E00A
:100620006BC090E0681779079CF4421753070CF0F1
:100630005BC0261737070CF057C08FE192E09F93FD
:100640008F930E94C4060F900F9083E090E054C0F7
:10065000841795074CF5421753070CF049C026172D
:1006600037070CF045C08BE292E09F938F930E9476
:10067000C4060F900F9084E090E03EC087E092E0C7
:100680009F938F930E94C4060F900F9085E090E097
:1006900033C081E192E09F938F930E94C4060F9034
:1006A0000F9086E090E028C024173507E4F468171F
:1006B00079075CF48AE192E09F938F930E94C406CD
:1006C0000F900F9087E090E017C0841795075CF4B7
:1006D00086E292E09F938F930E94C4060F900F9042
:1006E00088E090E009C008C0621773073CF2DCCFD5
:1006F0006217730774F2D8CFDF91CF910895E0911C
:100700000301F091040180830895E0910101F091CB
:10071000020180830895E0910301F09104011082A9
:10072000E0910301F091040180E18083E0910301F5
:10073000F091040180EB80831092C5021092C402F4
:10074000089590EB980FE0910301F09104019083DC
:100750008093C5020895882394F0982F9F70E091AC
:100760000301F09104019083982F92959F70905F00
:10077000E0910301F091040190838093C4020895F5
:10078000CF93C62F0E94A1038C2F0E94AB03CF9161
:100790000895CF939091C402973700F5282F880FC2
:1007A000330B20523109220F331F220F331F220F28
:1007B000331FF901E059FF4F28583F4F8491A09112
:1007C0000101B09102018C938091C4028F5F8093EC
:1007D000C4023196E217F30789F70CC0C82F809145
:1007E000C5028F5F8093C50260E00E94C0038C2F1A
:1007F0000E94C903CF910895CF93DF93EC018881C4
:10080000882331F021960E94C90389918111FBCF81
:10081000DF91CF9108950E94A10380E890E0E091DC
:100820000101F091020110820197C9F70895CF9359
:10083000C0E08C2F0E940B04CF5FC830D1F70E941C
:100840008B03CF9108950E9417040E948B03089593
:1008500081E392E09F938F930E94C406E09103018D
:10086000F09104018EEA8083E0910301F09104018C
:1008700081EA8083E0910301F09104018AED808395
:10088000E0910301F091040182E18083E091030192
:10089000F091040188EC8083E0910301F091040160
:1008A00088EA8083E0910301F09104018FE3808363
:1008B000E0910301F091040185ED8083E091030153
:1008C000F091040180E88083E0910301F09104013C
:1008D00081E88083E0910301F091040180E5808349
:1008E000E0910301F091040189ED8083E09103011F
:1008F000F091040181E28083E0910301F091040111
:1009000080E28083E0910301F091040182E0808322
:10091000E0910301F09104018BED8083E0910301EC
:10092000F091040180E38083E0910301F0910401E0
:100930008DEA8083E0910301F09104011082E0913F
:100940000301F091040184EA8083E0910301F091B6
:10095000040186EA8083E0910301F09104018FEAAB
:10096000808381E592E09F938F930E94C4060F904D
:100970000F900F900F900895CF93DF93CDB7DEB710
:1009800020E4FE013596DC0101900D922A95E1F7F5
:10099000FC01E05CFF4F11821082329611821082BE
:1009A000329611821082329611821082DF91CF919D
:1009B0000895CF93DF93CDB7DEB7C052D2400FB6C4
:1009C000F894DEBF0FBECDBF0E9428040E9417041A
:1009D0008AE0E2E7F2E0DE01119601900D928A953D
:1009E000E1F78AE0ECE7F2E0DE01519601900D922A
:1009F0008A95E1F78CE0E6E8F2E0DE01919601905D
:100A00000D928A95E1F789E0E2E9F2E0DE01D19604
:100A100001900D928A95E1F786E0EBE9F2E0DE01C4
:100A2000AF5BBF4F01900D928A95E1F7A1E4B0E072
:100A3000AC0FBD1F509686E0EBE9F2E001900D92FD
:100A40008A95E1F7A1E4B0E0AC0FBD1F909686E077
:100A5000EBE9F2E001900D928A95E1F7A1E4B0E0B4
:100A6000AC0FBD1FD09686E0EBE9F2E001900D924D
:100A70008A95E1F786E0EBE9F2E0DE01AF57BF4F80
:100A800001900D928A95E1F7A1E8B0E0AC0FBD1F8F
:100A9000509686E0EBE9F2E001900D928A95E1F73D
:100AA000A1E8B0E0AC0FBD1F909686E0EBE9F2E064
:100AB00001900D928A95E1F7A1E8B0E0AC0FBD1F5F
:100AC000D09686E0EBE9F2E001900D928A95E1F78D
:100AD00089E0E2E9F2E0DE01AF53BF4F01900D92F1
:100AE0008A95E1F7A1ECB0E0AC0FBD1F50968CE009
:100AF000E1EAF2E001900D928A95E1F7A1ECB0E015
:100B0000AC0FBD1F90968BE0EDEAF2E001900D92E4
:100B10008A95E1F7A1ECB0E0AC0FBD1FD0968CE058
:100B2000E8EBF2E001900D928A95E1F78DB79EB760
:100B3000805491090FB6F8949EBF0FBE8DBFADB71C
:100B4000BEB7119680E4FE01319601900D928A9510
:100B5000E1F7CE018F5F9E4F0E94BC048DB79EB718
:100B6000805C9F4F0FB6F894DEBF0FBECDBF8054A0
:100B700091090FB6F8949EBF0FBE8DBFADB7BEB73B
:100B8000119680E4FE01EF5BFF4F01900D928A9574
:100B9000E1F7CE01875B9E4F0E94BC048DB79EB7E4
:100BA000805C9F4F0FB6F894DEBF0FBECDBF805460
:100BB00091090FB6F8949EBF0FBE8DBFADB7BEB7FB
:100BC000119680E4FE01EF57FF4F01900D928A9538
:100BD000E1F7CE018F569E4F0E94BC048DB79EB7A1
:100BE000805C9F4F0FB6F894DEBF0FBECDBF805420
:100BF00091090FB6F8949EBF0FBE8DBFADB7BEB7BB
:100C0000119680E4FE01EF53FF4F01900D928A95FB
:100C1000E1F7CE0187529E4F0E94BC040FB6F894B4
:100C2000DEBF0FBECDBFC05EDD4F0FB6F894DEBF96
:100C30000FBECDBFDF91CF9108958F929F92AF925B
:100C4000BF92CF92DF92EF92FF92CF93DF93EC01AE
:100C5000688179818A819B81611571058105910582
:100C600021F464E279ED8BE597E02DE133EF41E08B
:100C700050E00E94D80A49015A019B01AC01A7EA41
:100C8000B1E40E94F70A6B017C01ACEEB4EFA50160
:100C900094010E94050BDC01CB018C0D9D1DAE1D46
:100CA000BF1DB7FF03C00197A109B048888399838E
:100CB000AA83BB839F77DF91CF91FF90EF90DF9066
:100CC000CF90BF90AF909F908F9008950E941D0687
:100CD000089585E091E00E941D060895A0E0B0E02F
:100CE0008093050190930601A0930701B09308013A
:100CF00008950F931F93CF93DF93009731F46115FD
:100D0000710519F480E090E03AC08B01EC016EE0CF
:100D100070E081E090E00E94DC08FC01892B91F3F7
:100D200080E883830115110571F01387028781E83C
:100D300083838091C6029091C702892B21F4F0939E
:100D4000C702E093C6022097C9F0D187C08783818C
:100D5000826083838091C8029091C902892B71F4CB
:100D6000F093C902E093C8028091CA029091CB022D
:100D7000892B21F4F093CB02E093CA02CF01DF91DB
:100D8000CF911F910F910895A0E0B0E0EAECF6E05A
:100D90000C941A0BAE014B5F5F4FFA016191719198
:100DA000AF018091C8029091C9020E940A07E2E057
:100DB0000C94360B0F931F93CF93DF93E091C802EF
:100DC000F091C902238121FF1BC08C01D0E0C0E05B
:100DD000F80181918F016091C8027091C902DB0115
:100DE0001896ED91FC911997882331F00995892B7C
:100DF00079F3DFEFCFEFECCF8AE00995892B19F07B
:100E00008FEF9FEF02C08D2F9C2FDF91CF911F910D
:100E10000F910895ACE0B0E0E0E1F7E00C940A0B2C
:100E20007C016B018A01FC0117821682838181FF9C
:100E3000BDC1CE0101964C01F7019381F60193FDEE
:100E4000859193FF81916F01882309F4ABC18532AD
:100E500039F493FD859193FF81916F01853229F4D7
:100E6000B70190E00E94420AE7CF512C312C20E0DC
:100E70002032A0F48B3269F030F4803259F08332A2
:100E800069F420612CC08D3239F0803339F421604F
:100E900026C02260246023C0286021C027FD27C00F
:100EA00030ED380F3A3078F426FF06C0FAE05F9E46
:100EB000300D1124532E13C08AE0389E300D1124BA
:100EC000332E20620CC08E3221F426FD6BC12064CB
:100ED00006C08C3611F4206802C0883641F4F60151
:100EE00093FD859193FF81916F018111C1CF982F5F
:100EF0009F7D9554933028F40C5F1F4FFFE3F983D7
:100F00000DC0833631F0833771F0833509F05BC053
:100F100022C0F801808189830E5F1F4F44244394CF
:100F2000512C540115C03801F2E06F0E711CF8010C
:100F3000A080B18026FF03C0652D70E002C06FEF76
:100F40007FEFC5012C870E94370A2C0183012C8575
:100F50002F77222E17C03801F2E06F0E711CF801B6
:100F6000A080B18026FF03C0652D70E002C06FEF46
:100F70007FEFC5012C870E94250A2C012C85206853
:100F8000222E830123FC1BC0832D90E048165906B6
:100F9000B0F4B70180E290E00E94420A3A94F4CFA4
:100FA000F50127FC859127FE81915F01B70190E053
:100FB0000E94420A31103A94F1E04F1A510841144C
:100FC000510471F7E5C0843611F0893639F5F8011E
:100FD00027FF07C060817181828193810C5F1F4F61
:100FE00008C060817181072E000C880B990B0E5F81
:100FF0001F4F2F76722E97FF09C0909580957095A0
:1010000061957F4F8F4F9F4F2068722E2AE030E00E
:10101000A4010E947A0AA82EA81844C0853729F492
:101020002F7EB22E2AE030E025C0F22FF97FBF2EAE
:101030008F36C1F018F4883579F0B4C0803719F0D4
:10104000883721F0AFC02F2F2061B22EB4FE0DC023
:101050008B2D8460B82E09C024FF0AC09F2F966094
:10106000B92E06C028E030E005C020E130E002C023
:1010700020E132E0F801B7FE07C060817181828112
:1010800093810C5F1F4F06C06081718180E090E00A
:101090000E5F1F4FA4010E947A0AA82EA818FB2DEC
:1010A000FF777F2E76FE0BC0372D3E7FA51450F4C0
:1010B00074FE0AC072FC08C0372D3E7E05C0BA2CF3
:1010C000372D03C0BA2C01C0B52C34FF0DC0FE0172
:1010D000EA0DF11D8081803311F4397E09C032FFA1
:1010E00006C0B394B39404C0832F867809F0B394F8
:1010F00033FD13C030FF06C05A2CB31418F4530C40
:101100005B18B32CB31468F4B70180E290E03C871D
:101110000E94420AB3943C85F5CFB31410F43B18F7
:1011200001C0312C34FF12C0B70180E390E03C874E
:101130000E94420A3C8532FF17C031FD03C088E798
:1011400090E002C088E590E0B7010CC0832F86785C
:1011500059F031FF02C08BE201C080E237FD8DE221
:10116000B70190E00E94420AA51438F4B70180E369
:1011700090E00E94420A5A94F7CFAA94F401EA0D33
:10118000F11D8081B70190E00E94420AA110F5CFC5
:10119000332009F451CEB70180E290E00E94420A68
:1011A0003A94F6CFF7018681978102C08FEF9FEFC7
:1011B0002C96E2E10C94260B0F931F93CF93DF93B1
:1011C000869F8001879F100D969F100D1124C801E6
:1011D0000E94F808EC01009729F0A80160E070E097
:1011E0000E94300ACE01DF91CF911F910F91089597
:1011F000CF93DF938230910510F482E090E0E0918C
:10120000CE02F091CF0220E030E0C0E0D0E0309795
:1012100011F14081518148175907C0F0481759070B
:1012200061F482819381209719F09B838A832BC07C
:101230009093CF028093CE0226C02115310519F07C
:101240004217530718F49A01BE01DF01EF01028033
:10125000F381E02DDCCF2115310509F1281B390B75
:101260002430310590F412968D919C91139761155D
:10127000710521F0FB019383828304C09093CF0218
:101280008093CE02FD01329644C0FD01E20FF31FB0
:1012900081939193225031092D933C933AC0209130
:1012A000CC023091CD02232B41F420910B013091DF
:1012B0000C013093CD022093CC0220910901309192
:1012C0000A012115310541F42DB73EB740910D01BA
:1012D00050910E01241B350BE091CC02F091CD0210
:1012E000E217F307A0F42E1B3F0B2817390778F0FD
:1012F000AC014E5F5F4F2417350748F04E0F5F1F5C
:101300005093CD024093CC028193919302C0E0E0D0
:10131000F0E0CF01DF91CF9108950F931F93CF930A
:10132000DF93009709F48CC0FC013297138212827C
:101330000091CE021091CF020115110581F4208198
:101340003181820F931F2091CC023091CD0228175A
:10135000390779F5F093CD02E093CC0271C0D80142
:1013600040E050E0AE17BF0750F412962D913C912B
:101370001397AD012115310509F1D901F3CF9D0175
:10138000DA013383228360817181860F971F821770
:10139000930769F4EC0128813981260F371F2E5FEE
:1013A0003F4F318320838A819B8193838283452BA6
:1013B00029F4F093CF02E093CE0242C01396FC933F
:1013C000EE931297ED01499159919E01240F351F1B
:1013D000E217F30771F480819181840F951F0296C3
:1013E00011969C938E938281938113969C938E93F6
:1013F0001297E0E0F0E0D80112968D919C9113973E
:10140000009719F0F8018C01F6CF8D919C9198010D
:101410002E5F3F4F820F931F2091CC023091CD025F
:101420002817390769F4309729F41092CF021092E7
:10143000CE0202C0138212821093CD020093CC021E
:10144000DF91CF911F910F910895FC01059061509C
:1014500070400110D8F7809590958E0F9F1F0895CA
:10146000DC0101C06D9341505040E0F70895FC014C
:101470006150704001900110D8F7809590958E0FC3
:101480009F1F08950F931F93CF93DF93FB01238139
:1014900021FD03C08FEF9FEF28C022FF16C04681B9
:1014A0005781248135814217530744F4A081B181CB
:1014B0009D012F5F3F4F318320838C93268137819D
:1014C0002F5F3F4F3783268310C0EB01092F182F62
:1014D0000084F185E02D0995892BE1F68E819F81AD
:1014E00001969F838E83812F902FDF91CF911F9143
:1014F0000F910895FA01AA27283051F1203181F186
:10150000E8946F936E7F6E5F7F4F8F4F9F4FAF4F0B
:10151000B1E03ED0B4E03CD0670F781F891F9A1F1E
:10152000A11D680F791F8A1F911DA11D6A0F711DD2
:10153000811D911DA11D20D009F468943F912AE0DE
:10154000269F11243019305D3193DEF6CF010895C6
:10155000462F4770405D4193B3E00FD0C9F7F6CFF7
:10156000462F4F70405D4A3318F0495D31FD4052BF
:10157000419302D0A9F7EACFB4E0A6959795879555
:1015800077956795BA95C9F7009761057105089534
:101590009B01AC010A2E06945795479537952795E0
:1015A000BA95C9F7620F731F841F951FA01D089578
:1015B000052E97FB1EF400940E94EF0A57FD07D0FA
:1015C0000E94410B07FC03D04EF40C94EF0A509597
:1015D0004095309521953F4F4F4F5F4F089590951F
:1015E0008095709561957F4F8F4F9F4F08950E9412
:1015F000630BA59F900DB49F900DA49F800D911D2E
:1016000011240895B7FF0C94F70A0E94F70A821B71
:10161000930B08952F923F924F925F926F927F9219
:101620008F929F92AF92BF92CF92DF92EF92FF92F2
:101630000F931F93CF93DF93CDB7DEB7CA1BDB0B9E
:101640000FB6F894DEBF0FBECDBF09942A88398843
:1016500048885F846E847D848C849B84AA84B9844A
:10166000C884DF80EE80FD800C811B81AA81B98156
:10167000CE0FD11D0FB6F894DEBF0FBECDBFED016A
:101680000895A1E21A2EAA1BBB1BFD010DC0AA1FC3
:10169000BB1FEE1FFF1FA217B307E407F50720F0DB
:1016A000A21BB30BE40BF50B661F771F881F991F56
:1016B0001A9469F760957095809590959B01AC019F
:1016C000BD01CF010895A29FB001B39FC001A39FA8
:1016D000700D811D1124911DB29F700D811D11246B
:0816E000911D0895F894FFCF5D
:1016E8000A00120010010000000000D00220005380
:1016F80074617274696E67205352414D207465732A
:10170800742E2E2E00577269746520706861736597
:10171800206572726F723A206578745F72616D5BD2
:101728002534645D203D2025303258202873686FA9
:10173800756C642062652025303258290A0052658C
:101748007472696576616C20706861736520657272
:10175800726F723A206578745F72616D5B253464CC
:101768005D203D2025303258202873686F756C64E1
:101778002062652025303258290A005352414D20F5
:101788007465737420636F6D706C6574656420771D
:10179800697468200A253464206572726F72732038
:1017A800696E20777269746520706861736520615D
:1017B8006E64200A253464206572726F7273206922
:1017C8006E2072657472696576616C2070686173E9
:1017D800650A0A004E45555452414C0D0055500DAE
:1017E80000444F574E0D0055502D52494748540D4F
:1017F8000055502D4C4546540D00444F574E2D5220
:10180800494748540D00444F574E2D4C4546540DFA
:10181800005374617274696E67204F4C45442049C7
:101828006E697469616C697A696E672E2E2E0A0D6D
:10183800002E2E2E4F4C454420496E697469616C08
:10184800697A696E6720436F6D706C657465210AEB
:101858000D004D61696E204D656E7500506C6179A3
:101868002047616D6500486967682053636F72653A
:10187800730053657474696E677300456D7074798D
:101888000053656E73697469766974790042726988
:101898006768746E65737300417765736F6D656E05
:0418A80065737300F1
:00000001FF
