:100000000C94B4010C94D1010C94D1010C94D10145
:100010000C94D1010C94D1010C94D1010C94D10118
:100020000C94D1010C94D1010C94D1010C94D10108
:100030000C94D1010C94D1010C94D1010C94D101F8
:100040000C94D1010C94D1010C94D1010C94D101E8
:100050000C94D1010C94D1010C94D1010C94D101D8
:100060000C94D1010C94D1010C94D1010C94D101C8
:10007000000000000000000000065F5F06000000B6
:100080000007070007070000147F7F147F7F14001C
:10009000242E6B6B3A120000466630180C66620024
:1000A000307A4F5D377A48000407030000000000F3
:1000B000001C3E63410000000041633E1C00000044
:1000C000082A3E1C1C3E2A0808083E3E080800007C
:1000D00000A0E06000000000080808080808000010
:1000E00000006060000000006030180C0603010092
:1000F0003E7F594D7F3E000042427F7F40400000DE
:10010000627359496F660000226349497F360000D7
:10011000181C16137F7F1000276745457D390000A6
:100120003C7E4B4979300000036371190F070000D2
:10013000367F49497F360000064F49693F1E00005F
:1001400000006C6C0000000000A0EC6C00000000DF
:10015000081C366341000000141414141414000029
:10016000004163361C080000020351590F060000CD
:100170003E7F415D5D1F1E007C7E13137E7C000070
:10018000417F7F49497F36001C3E63414163220025
:10019000417F7F41637F1C00417F7F495D41630058
:1001A000417F7F491D0103001C3E63415173720072
:1001B0007F7F08087F7F000000417F7F41000000B3
:1001C000307040417F3F0100417F7F081C77630012
:1001D000417F7F41406070007F7F060C067F7F007B
:1001E0007F7F060C187F7F001C3E6341633E1C002E
:1001F000417F7F49090F06001E3F21717F5E00008D
:10020000417F7F19396F460026674D597B320000C8
:1002100003417F7F410300007F7F40407F7F0000DC
:100220001F3F60603F1F00007F7F3018307F7F00DE
:1002300063771C081C776300074F78784F0700002E
:100240006773594D47637100007F7F414100000093
:100250000103060C183060000041417F7F00000060
:10026000080C0603060C0800808080808080808057
:100270000000030704000000207454543C78400040
:10028000413F7F44447C3800387C44446C28000063
:10029000307848493F7F4000387C54545C18000057
:1002A000487E7F490302000098BCA4A4F87C0400A7
:1002B000417F7F08047C780000447D7D4000000081
:1002C00040C484FD7D000000417F7F10386C4400F5
:1002D00000417F7F400000007C7C0C180C7C780083
:1002E0007C7C04047C780000387C44447C3800002A
:1002F00084FCF8A4243C1800183C24A4F8FC8400D6
:10030000447C78441C180000485C54547424000059
:1003100000043E7F442400003C7C40403C7C400084
:100320001C3C60603C1C00003C7C6030607C3C00FD
:10033000446C3810386C44009CBCA0A0FC7C0000CD
:100340004C64745C4C64000008083E774141000036
:1003500000000077770000004141773E0808000068
:10036000020301030203010011241FBECFEFD4E0FA
:10037000DEBFCDBF12E0A0E0B1E0EEEDF3E102C0E0
:1003800005900D92AA37B107D9F722E0AAE7B2E0AB
:1003900001C01D92A638B207E1F70E94D3010C9468
:1003A000ED090C940000CF93DF93CDB7DEB727970C
:1003B0000FB6F894DEBF0FBECDBF0E94170285B7FF
:1003C000806885BF0E9425020E9404042FEF8FE7FA
:1003D00097E0215080409040E1F700C000000E946B
:1003E0009D030E94F5030E949D0387E0EFE0F1E08A
:1003F000DE01119601900D928A95E1F72FEF8FE7BC
:1004000097E0215080409040E1F700C00000CE010D
:1004100001960E94D203F2CF5D9BFECF8CB980E0A3
:1004200090E008955F9BFECF8CB190E0089510BCE2
:100430008FE189B988E18AB98EE880BD62E172E016
:100440008CE092E00E94F4040895CF92DF92EF9244
:10045000FF920F931F93CF93DF9386E191E00E9469
:1004600055050E94E4047C010E94E904C12CD12CB2
:10047000C0E0D0E00CE211E00E94E404F601F85E76
:10048000808320812817A1F099279F938F931F9233
:100490002F93DF92CF921F930F930E943F052196D7
:1004A0008DB79EB708960FB6F8949EBF0FBE8DBF4E
:1004B0009FEFC91AD90AC11488E0D806E9F6C70126
:1004C0000E94E90400E010E0E12CF12C0F2EF5E68B
:1004D000CF2EF1E0DF2EF02D0E94E404F801F85E4B
:1004E00020812817B1F099279F938F931F922F9304
:1004F0001F930F93DF92CF920E943F059FEFE91A5F
:10050000F90A8DB79EB708960FB6F8949EBF0FBE36
:100510008DBF0F5F1F4F011598E01907E9F6FF9295
:10052000EF92DF93CF9382EA91E09F938F930E94A3
:100530003F050F900F900F900F900F900F90DF914D
:10054000CF911F910F91FF90EF90DF90CF90089582
:1005500000C000C00000E0E0F4E1808382E68A95FC
:10056000F1F7000080810895CF9385E090E00E942C
:10057000A802C82F84E090E00E94A802982F8C2F38
:10058000CF910895CF9386E090E00E94A802C82FF3
:1005900087E090E00E94A802982F8C2FCF910895B9
:1005A000CF93DF93EC010E94B402BE0161587F4FEC
:1005B0004FE750E04C1B5D0B292F30E042175307EB
:1005C000B4F4261737079CF4E82FF0E04E175F07C6
:1005D000D4F5E617F707BCF58BEF91E09F938F9367
:1005E0000E943F050F900F9080E090E097C0621747
:1005F00073079CF4E82FF0E04E175F0724F5E61729
:10060000F7070CF584E092E09F938F930E943F05DB
:100610000F900F9081E090E081C0241735079CF483
:10062000E82FF0E04E175F0774F4E617F7075CF465
:1006300088E092E09F938F930E943F050F900F9068
:1006400082E090E06BC090E0681779079CF4421755
:1006500053070CF05BC0261737070CF057C086E233
:1006600092E09F938F930E943F050F900F9083E03D
:1006700090E054C0841795074CF5421753070CF0CF
:1006800049C0261737070CF045C082E392E09F93DC
:100690008F930E943F050F900F9084E090E03EC042
:1006A0008EE092E09F938F930E943F050F900F90F2
:1006B00085E090E033C088E192E09F938F930E94A1
:1006C0003F050F900F9086E090E028C02417350773
:1006D000E4F4681779075CF481E292E09F938F93CA
:1006E0000E943F050F900F9087E090E017C084179D
:1006F00095075CF48DE292E09F938F930E943F05F3
:100700000F900F9088E090E009C008C0621773074F
:100710003CF2DCCF6217730774F2D8CFDF91CF9130
:100720000895E0910301F091040180830895E09120
:100730000101F091020180830895E0910301F0919D
:1007400004011082E0910301F091040184E18083AF
:10075000E0910301F091040180EB808310927B0211
:1007600010927A020895082E000C990B8097880F3A
:10077000991F880F991F880F991FFC01E059FF4F9F
:1007800088589F4F2491A0910101B09102012C93B0
:100790003196E817F907B1F780917A028F5F80935D
:1007A0007A020895CF93DF93EC018881882331F09A
:1007B00021960E94B30389918111FBCFDF91CF91E4
:1007C00008958055E0910301F0910401808308951C
:1007D00008950E94E10380E890E0E0910101F0912A
:1007E000020110820197C9F70895CF93C0E08C2FC2
:1007F0000E94E903CF5FC830D1F7CF9108950E94DE
:10080000F5030E949D03089588E392E09F938F93E0
:100810000E943F05E0910301F09104018EEA80837C
:10082000E0910301F091040181EA8083E0910301EA
:10083000F09104018AED8083E0910301F0910401BD
:1008400082E18083E0910301F091040188EC8083D0
:10085000E0910301F091040188EA8083E0910301B3
:10086000F09104018FE38083E0910301F091040192
:1008700085ED8083E0910301F091040180E880839D
:10088000E0910301F091040181E88083E09103018C
:10089000F091040180E58083E0910301F09104016F
:1008A00089ED8083E0910301F091040181E280836E
:1008B000E0910301F091040180E28083E091030163
:1008C000F091040182E08083E0910301F091040142
:1008D0008BED8083E0910301F091040180E380833C
:1008E000E0910301F09104018DEA8083E09103011E
:1008F000F09104011082E0910301F091040184EA77
:100900008083E0910301F091040186EA8083E09105
:100910000301F09104018FEA808388E592E09F93C0
:100920008F930E943F050F900F900F900F900895A6
:100930008F929F92AF92BF92CF92DF92EF92FF92EF
:10094000CF93DF93EC01688179818A819B81611566
:1009500071058105910521F464E279ED8BE597E05D
:100960002DE133EF41E050E00E94530949015A0163
:100970009B01AC01A7EAB1E40E9472096B017C0102
:10098000ACEEB4EFA50194010E948009DC01CB011B
:100990008C0D9D1DAE1DBF1DB7FF03C00197A109A2
:1009A000B04888839983AA83BB839F77DF91CF91D7
:1009B000FF90EF90DF90CF90BF90AF909F908F907F
:1009C00008950E949804089585E091E00E9498049B
:1009D0000895A0E0B0E08093050190930601A093F4
:1009E0000701B093080108950F931F93CF93DF93EE
:1009F000009731F46115710519F480E090E03AC078
:100A00008B01EC016EE070E081E090E00E945707FE
:100A1000FC01892B91F380E883830115110571F0A6
:100A20001387028781E8838380917C0290917D0205
:100A3000892B21F4F0937D02E0937C022097C9F08A
:100A4000D187C08783818260838380917E02909169
:100A50007F02892B71F4F0937F02E0937E028091F4
:100A6000800290918102892B21F4F0938102E0931E
:100A70008002CF01DF91CF911F910F910895A0E0E7
:100A8000B0E0E5E4F5E00C949509AE014B5F5F4FF3
:100A9000FA0161917191AF0180917E0290917F0284
:100AA0000E948505E2E00C94B1090F931F93CF9348
:100AB000DF93E0917E02F0917F02238121FF1BC032
:100AC0008C01D0E0C0E0F80181918F0160917E023D
:100AD00070917F02DB011896ED91FC9119978823A4
:100AE00031F00995892B79F3DFEFCFEFECCF8AE076
:100AF0000995892B19F08FEF9FEF02C08D2F9C2F46
:100B0000DF91CF911F910F910895ACE0B0E0EBE839
:100B1000F5E00C9485097C016B018A01FC011782C8
:100B20001682838181FFBDC1CE0101964C01F70180
:100B30009381F60193FD859193FF81916F01882345
:100B400009F4ABC1853239F493FD859193FF81910E
:100B50006F01853229F4B70190E00E94BD08E7CF0C
:100B6000512C312C20E02032A0F48B3269F030F48B
:100B7000803259F0833269F420612CC08D3239F013
:100B8000803339F4216026C02260246023C02860AD
:100B900021C027FD27C030ED380F3A3078F426FF0A
:100BA00006C0FAE05F9E300D1124532E13C08AE078
:100BB000389E300D1124332E20620CC08E3221F469
:100BC00026FD6BC1206406C08C3611F4206802C07B
:100BD000883641F4F60193FD859193FF81916F0171
:100BE0008111C1CF982F9F7D9554933028F40C5FCD
:100BF0001F4FFFE3F9830DC0833631F0833771F067
:100C0000833509F05BC022C0F801808189830E5FC3
:100C10001F4F44244394512C540115C03801F2E075
:100C20006F0E711CF801A080B18026FF03C0652DF6
:100C300070E002C06FEF7FEFC5012C870E94B20801
:100C40002C0183012C852F77222E17C03801F2E06A
:100C50006F0E711CF801A080B18026FF03C0652DC6
:100C600070E002C06FEF7FEFC5012C870E94A008E3
:100C70002C012C852068222E830123FC1BC0832D90
:100C800090E048165906B0F4B70180E290E00E9467
:100C9000BD083A94F4CFF50127FC859127FE819198
:100CA0005F01B70190E00E94BD0831103A94F1E075
:100CB0004F1A51084114510471F7E5C0843611F000
:100CC000893639F5F80127FF07C06081718182817B
:100CD00093810C5F1F4F08C060817181072E000C4B
:100CE000880B990B0E5F1F4F2F76722E97FF09C04E
:100CF00090958095709561957F4F8F4F9F4F20689D
:100D0000722E2AE030E0A4010E94F508A82EA8184F
:100D100044C0853729F42F7EB22E2AE030E025C06A
:100D2000F22FF97FBF2E8F36C1F018F4883579F095
:100D3000B4C0803719F0883721F0AFC02F2F206161
:100D4000B22EB4FE0DC08B2D8460B82E09C024FFD6
:100D50000AC09F2F9660B92E06C028E030E005C07B
:100D600020E130E002C020E132E0F801B7FE07C028
:100D700060817181828193810C5F1F4F06C0608109
:100D8000718180E090E00E5F1F4FA4010E94F50882
:100D9000A82EA818FB2DFF777F2E76FE0BC0372DCF
:100DA0003E7FA51450F474FE0AC072FC08C0372DB3
:100DB0003E7E05C0BA2C372D03C0BA2C01C0B52C1D
:100DC00034FF0DC0FE01EA0DF11D8081803311F466
:100DD000397E09C032FF06C0B394B39404C0832F98
:100DE000867809F0B39433FD13C030FF06C05A2C47
:100DF000B31418F4530C5B18B32CB31468F4B70194
:100E000080E290E03C870E94BD08B3943C85F5CF1A
:100E1000B31410F43B1801C0312C34FF12C0B701D9
:100E200080E390E03C870E94BD083C8532FF17C0FC
:100E300031FD03C088E790E002C088E590E0B7018B
:100E40000CC0832F867859F031FF02C08BE201C0BD
:100E500080E237FD8DE2B70190E00E94BD08A51445
:100E600038F4B70180E390E00E94BD085A94F7CFB0
:100E7000AA94F401EA0DF11D8081B70190E00E946F
:100E8000BD08A110F5CF332009F451CEB70180E29F
:100E900090E00E94BD083A94F6CFF70186819781D1
:100EA00002C08FEF9FEF2C96E2E10C94A1090F9303
:100EB0001F93CF93DF93869F8001879F100D969F8E
:100EC000100D1124C8010E947307EC01009729F04E
:100ED000A80160E070E00E94AB08CE01DF91CF91E5
:100EE0001F910F910895CF93DF938230910510F4F5
:100EF00082E090E0E0918402F091850220E030E011
:100F0000C0E0D0E0309711F1408151814817590776
:100F1000C0F04817590761F482819381209719F036
:100F20009B838A832BC0909385028093840226C082
:100F30002115310519F04217530718F49A01BE0123
:100F4000DF01EF010280F381E02DDCCF21153105B7
:100F500009F1281B390B2430310590F412968D913C
:100F60009C9113976115710521F0FB019383828396
:100F700004C09093850280938402FD01329644C0A0
:100F8000FD01E20FF31F81939193225031092D93BC
:100F90003C933AC02091820230918302232B41F48A
:100FA00020910B0130910C01309383022093820237
:100FB0002091090130910A012115310541F42DB725
:100FC0003EB740910D0150910E01241B350BE0916D
:100FD0008202F0918302E217F307A0F42E1B3F0B6D
:100FE0002817390778F0AC014E5F5F4F241735079B
:100FF00048F04E0F5F1F509383024093820281930B
:10100000919302C0E0E0F0E0CF01DF91CF9108952D
:101010000F931F93CF93DF93009709F48CC0FC01CB
:101020003297138212820091840210918502011579
:10103000110581F420813181820F931F209182025A
:10104000309183022817390779F5F0938302E093F2
:10105000820271C0D80140E050E0AE17BF0750F4E3
:1010600012962D913C911397AD012115310509F18F
:10107000D901F3CF9D01DA0133832283608171812D
:10108000860F971F8217930769F4EC012881398135
:10109000260F371F2E5F3F4F318320838A819B812C
:1010A00093838283452B29F4F0938502E093840295
:1010B00042C01396FC93EE931297ED01499159911A
:1010C0009E01240F351FE217F30771F4808191818F
:1010D000840F951F029611969C938E938281938123
:1010E00013969C938E931297E0E0F0E0D80112964D
:1010F0008D919C911397009719F0F8018C01F6CF10
:101100008D919C9198012E5F3F4F820F931F2091EC
:101110008202309183022817390769F4309729F445
:10112000109285021092840202C0138212821093E0
:10113000830200938202DF91CF911F910F91089556
:10114000FC010590615070400110D8F78095909592
:101150008E0F9F1F0895DC0101C06D9341505040D8
:10116000E0F70895FC016150704001900110D8F73C
:10117000809590958E0F9F1F08950F931F93CF9387
:10118000DF93FB01238121FD03C08FEF9FEF28C078
:1011900022FF16C0468157812481358142175307AB
:1011A00044F4A081B1819D012F5F3F4F31832083A3
:1011B0008C93268137812F5F3F4F3783268310C062
:1011C000EB01092F182F0084F185E02D0995892B5B
:1011D000E1F68E819F8101969F838E83812F902FD0
:1011E000DF91CF911F910F910895FA01AA2728301E
:1011F00051F1203181F1E8946F936E7F6E5F7F4FE4
:101200008F4F9F4FAF4FB1E03ED0B4E03CD0670F5F
:10121000781F891F9A1FA11D680F791F8A1F911DB2
:10122000A11D6A0F711D811D911DA11D20D009F402
:1012300068943F912AE0269F11243019305D319344
:10124000DEF6CF010895462F4770405D4193B3E02D
:101250000FD0C9F7F6CF462F4F70405D4A3318F0D4
:10126000495D31FD4052419302D0A9F7EACFB4E085
:10127000A6959795879577956795BA95C9F700973D
:101280006105710508959B01AC010A2E06945795DE
:10129000479537952795BA95C9F7620F731F841F35
:1012A000951FA01D0895052E97FB1EF400940E9423
:1012B0006A0957FD07D00E94BC0907FC03D04EF411
:1012C0000C946A0950954095309521953F4F4F4FAA
:1012D0005F4F089590958095709561957F4F8F4FE2
:1012E0009F4F08950E94DE09A59F900DB49F900D19
:1012F000A49F800D911D11240895B7FF0C947209CD
:101300000E947209821B930B08952F923F924F9275
:101310005F926F927F928F929F92AF92BF92CF9285
:10132000DF92EF92FF920F931F93CF93DF93CDB78E
:10133000DEB7CA1BDB0B0FB6F894DEBF0FBECDBF06
:1013400009942A88398848885F846E847D848C84D7
:101350009B84AA84B984C884DF80EE80FD800C81E0
:101360001B81AA81B981CE0FD11D0FB6F894DEBFC3
:101370000FBECDBFED010895A1E21A2EAA1BBB1B23
:10138000FD010DC0AA1FBB1FEE1FFF1FA217B30751
:10139000E407F50720F0A21BB30BE40BF50B661F67
:1013A000771F881F991F1A9469F76095709580952B
:1013B00090959B01AC01BD01CF010895A29FB001A2
:1013C000B39FC001A39F700D811D1124911DB29F79
:0E13D000700D811D1124911D0895F894FFCF1A
:1013DE000A001200100100000000008602200048E2
:1013EE00656C6C6F20005374617274696E67205364
:1013FE0052414D20746573742E2E2E0057726974EF
:10140E0065207068617365206572726F723A20652F
:10141E0078745F72616D5B2534645D203D202530EC
:10142E003258202873686F756C64206265202530F1
:10143E003258290A0052657472696576616C2070A3
:10144E0068617365206572726F723A206578745F99
:10145E0072616D5B2534645D203D2025303258204D
:10146E002873686F756C64206265202530325829A8
:10147E000A005352414D207465737420636F6D7072
:10148E006C657465642077697468200A253464205D
:10149E006572726F727320696E207772697465203F
:1014AE00706861736520616E64200A25346420655E
:1014BE0072726F727320696E2072657472696576CE
:1014CE00616C2070686173650A0A004E455554526E
:1014DE00414C0D0055500D00444F574E0D005550C8
:1014EE002D52494748540D0055502D4C4546540D2C
:1014FE0000444F574E2D52494748540D00444F5704
:10150E004E2D4C4546540D005374617274696E67CE
:10151E00204F4C454420496E697469616C697A6943
:10152E006E672E2E2E0A0D002E2E2E4F4C45442069
:10153E00496E697469616C697A696E6720436F6D73
:0A154E00706C657465210A0D000041
:00000001FF
