:100000000C9476000C9497000C9497000C9450027A
:100010000C9497000C9497000C9497000C94970004
:100020000C9497000C9497000C9497000C949700F4
:100030000C9497000C9497000C9497000C949700E4
:100040000C9497000C9497000C9497000C949700D4
:100050000C9497000C9497000C9497000C949700C4
:100060000C9497000C9497000C9497000C949700B4
:100070000C9497000C9497000C9497000C949700A4
:100080000C9497000C9497000C9497000C94970094
:100090000C9497000C9497000C9497000C94970084
:1000A0000C9497000C9497000C9497000C94970074
:1000B0000C9497000C9497000C9497000C94970064
:1000C0000C9497000C9497000C9497000C94970054
:1000D0000C9497000C9497000C9497000C94970044
:1000E0000C9497000C94D5000C94CB0011241FBEE7
:1000F000CFEFD1E2DEBFCDBF00E00CBF12E0A0E049
:10010000B2E0ECEDFDE000E00BBF02C007900D9205
:10011000AA30B107D9F722E0AAE0B2E001C01D92EF
:10012000A431B207E1F70E9499000C94EC060C94FC
:100130000000CF93DF93CDB7DEB72B970FB6F894BF
:10014000DEBF0FBECDBF0E94DE006A98F894EA9829
:10015000E9E6F0E080818F7E808380818062808309
:10016000E29AEA9A78940E946F0181E491E09A837E
:10017000898381E08B8386E08C83CE0101960E9487
:100180007C012FEF83ED90E3215080409040E1F718
:1001900000C00000FFCFE0ECF0E0908195FFFDCFC4
:1001A0008093C60080E090E00895E0ECF0E080816C
:1001B0008823ECF78091C60090E008951092C50066
:1001C00087E68093C40088E18093C1008EE080932D
:1001D000C20065ED70E08BEC90E00E9496020895FD
:1001E00084B1876884B981E58CBD08958EBD0DB456
:1001F00007FEFDCF8EB508952F9808952F9A089584
:100200000E94FC0080EC0E94F6000E94FE0008950F
:10021000CF93C82F0E94FC0083E00E94F6008C2F31
:100220000E94F6008C2F0E94F600C82F0E94FE004C
:100230008C2FCF9108950E94F0000E9400018FEF53
:100240009FE20197F1F700C0000080E00895CF938E
:10025000DF93D82FC62F0E94FC0082E00E94F60098
:100260008D2F0E94F6008C2F0E94F6000E94FE0047
:10027000DF91CF910895CF93C82F0E94FC008C2F5F
:100280000E94F6000E94FE00CF910895CF930E9435
:10029000FC0080EA0E94F60080E00E94F600C82F71
:1002A0000E94FE008C2FCF9108951F93CF93DF9370
:1002B000182FD62FC42F0E94FC0085E00E94F60064
:1002C000812F0E94F6008D2F0E94F6008C2F0E9435
:1002D000F6000E94FE00DF91CF911F9108950E94C9
:1002E0001B0140E460EE8FE00E94550143E063E0B3
:1002F0008BE20E94550108950F931F93CF938C01B9
:10030000FC014081518156954795569547955695E4
:1003100047956FEF81E30E945501F80140814295B6
:10032000440F407E6FEF82E30E945501F801428145
:100330006FE085E30E945501F8018281882379F0FE
:10034000C0E0F801EC0FF11D43816FEF86E38C0FE5
:100350000E945501CF5FF8018281C81790F381E8B0
:100360000E943B01CF911F910F9108959F92AF92F0
:10037000BF92CF92DF92EF92FF920F931F93CF9392
:10038000DF93CDB7DEB72B970FB6F894DEBF0FBE65
:10039000CDBF5C018CE20E94080180FF31C081E684
:1003A0000E940801E82E82E60E9408018295869547
:1003B0008770F12CEE0CFF1CEE0CFF1CEE0CFF1CEA
:1003C000E82A85E60E940801082F0F7099F06E0157
:1003D00084E0C80ED11C0F2EF6E69F2EF02D900E55
:1003E00016E6812F0E940801F60181936F011F5FBD
:1003F0001911F7CF40E061E08CE20E94550132C054
:1004000081FF30C081E70E940801E82E82E70E9448
:100410000801829586958770F12CEE0CFF1CEE0C7E
:10042000FF1CEE0CFF1CE82A85E70E940801082F3C
:100430000F7099F06E01F4E0CF0ED11C0F2EF6E78D
:100440009F2EF02D900E16E7812F0E940801F601D5
:1004500081936F011F5F1911F7CF40E062E08CE2DA
:100460000E945501FA82E9820B838BE0FE013196EE
:10047000D50101900D928A95E1F7C5012B960FB633
:10048000F894DEBF0FBECDBFDF91CF911F910F91CA
:10049000FF90EF90DF90CF90BF90AF909F90089526
:1004A0001F920F920FB60F9211240BB60F922F933B
:1004B0003F934F935F936F937F938F939F93AF93EC
:1004C000BF93EF93FF93CF93DF93CDB7DEB72B9717
:1004D000DEBFCDBFCE0101960E94B6018C811F9276
:1004E0008F9386E092E09F938F930E94E1020F909A
:1004F0000F900F900F902B960FB6F894DEBF0FBEA3
:10050000CDBFDF91CF91FF91EF91BF91AF919F91BF
:100510008F917F916F915F914F913F912F910F90AC
:100520000BBE0F900FBE0F901F9018950F931F9347
:10053000CF93DF93009731F46115710519F480E0D2
:1005400090E03AC08B01EC016EE070E081E090E059
:100550000E94F004FC01892B91F380E8838301154C
:10056000110571F01387028781E8838380910A0265
:1005700090910B02892B21F4F0930B02E0930A0275
:100580002097C9F0D187C08783818260838380915F
:100590000C0290910D02892B71F4F0930D02E093FF
:1005A0000C0280910E0290910F02892B21F4F0939E
:1005B0000F02E0930E02CF01DF91CF911F910F91B7
:1005C0000895CF93DF93CDB7DEB7AE014A5F5F4F9B
:1005D000FA0161917191AF0180910C0290910D022D
:1005E0000E94F502DF91CF9108952F923F924F9292
:1005F0005F926F927F928F929F92AF92BF92CF92B3
:10060000DF92EF92FF920F931F93CF93DF93CDB7BB
:10061000DEB72C970FB6F894DEBF0FBECDBF7C01BE
:100620006B018A01FC0117821682838181FFBDC1A3
:10063000CE0101964C01F7019381F60193FD85915E
:1006400093FF81916F01882309F4ABC1853239F49E
:1006500093FD859193FF81916F01853229F4B70154
:1006600090E00E945606E7CF512C312C20E020323A
:10067000A0F48B3269F030F4803259F0833269F49F
:1006800020612CC08D3239F0803339F4216026C0CE
:100690002260246023C0286021C027FD27C030EDE0
:1006A000380F3A3078F426FF06C0FAE05F9E300D2E
:1006B0001124532E13C08AE0389E300D1124332E9E
:1006C00020620CC08E3221F426FD6BC1206406C06E
:1006D0008C3611F4206802C0883641F4F60193FD8F
:1006E000859193FF81916F018111C1CF982F9F7DDB
:1006F0009554933028F40C5F1F4FFFE3F9830DC02E
:10070000833631F0833771F0833509F05BC022C046
:10071000F801808189830E5F1F4F44244394512C3C
:10072000540115C03801F2E06F0E711CF801A08071
:10073000B18026FF03C0652D70E002C06FEF7FEF30
:10074000C5012C870E944B062C0183012C852F7735
:10075000222E17C03801F2E06F0E711CF801A08044
:10076000B18026FF03C0652D70E002C06FEF7FEF00
:10077000C5012C870E9439062C012C852068222E69
:10078000830123FC1BC0832D90E048165906B0F46A
:10079000B70180E290E00E9456063A94F4CFF5014A
:1007A00027FC859127FE81915F01B70190E00E94AF
:1007B000560631103A94F1E04F1A51084114510491
:1007C00071F7E5C0843611F0893639F5F80127FF55
:1007D00007C060817181828193810C5F1F4F08C0C7
:1007E00060817181072E000C880B990B0E5F1F4FE3
:1007F0002F76722E97FF09C0909580957095619520
:100800007F4F8F4F9F4F2068722E2AE030E0A40167
:100810000E948E06A82EA81844C0853729F42F7E82
:10082000B22E2AE030E025C0F22FF97FBF2E8F369E
:10083000C1F018F4883579F0B4C0803719F08837E2
:1008400021F0AFC02F2F2061B22EB4FE0DC08B2D32
:100850008460B82E09C024FF0AC09F2F9660B92E6D
:1008600006C028E030E005C020E130E002C020E111
:1008700032E0F801B7FE07C0608171818281938107
:100880000C5F1F4F06C06081718180E090E00E5FB9
:100890001F4FA4010E948E06A82EA818FB2DFF77DB
:1008A0007F2E76FE0BC0372D3E7FA51450F474FECC
:1008B0000AC072FC08C0372D3E7E05C0BA2C372D09
:1008C00003C0BA2C01C0B52C34FF0DC0FE01EA0DE7
:1008D000F11D8081803311F4397E09C032FF06C0DA
:1008E000B394B39404C0832F867809F0B39433FD96
:1008F00013C030FF06C05A2CB31418F4530C5B1805
:10090000B32CB31468F4B70180E290E03C870E94F6
:100910005606B3943C85F5CFB31410F43B1801C0D0
:10092000312C34FF12C0B70180E390E03C870E9475
:1009300056063C8532FF17C031FD03C088E790E0C2
:1009400002C088E590E0B7010CC0832F867859F08B
:1009500031FF02C08BE201C080E237FD8DE2B701BA
:1009600090E00E945606A51438F4B70180E390E0A9
:100970000E9456065A94F7CFAA94F401EA0DF11D8D
:100980008081B70190E00E945606A110F5CF332078
:1009900009F451CEB70180E290E00E9456063A94E5
:1009A000F6CFF7018681978102C08FEF9FEF2C96DB
:1009B0000FB6F894DEBF0FBECDBFDF91CF911F9170
:1009C0000F91FF90EF90DF90CF90BF90AF909F90EE
:1009D0008F907F906F905F904F903F902F900895F1
:1009E0000F931F93CF93DF93869F8001879F100DF6
:1009F000969F100D1124C8010E940C05EC01009770
:100A000029F0A80160E070E00E944406CE01DF9169
:100A1000CF911F910F910895CF93DF93823091056D
:100A200010F482E090E0E0911202F091130220E0D5
:100A300030E0C0E0D0E0309711F14081518148179B
:100A40005907C0F04817590761F4828193812097B4
:100A500019F09B838A832BC0909313028093120218
:100A600026C02115310519F04217530718F49A01D1
:100A7000BE01DF01EF010280F381E02DDCCF211503
:100A8000310509F1281B390B2430310590F41296F9
:100A90008D919C9113976115710521F0FB01938352
:100AA000828304C09093130280931202FD01329658
:100AB00044C0FD01E20FF31F81939193225031094D
:100AC0002D933C933AC02091100230911102232BB8
:100AD00041F42091020230910302309311022093DD
:100AE000100220910002309101022115310541F4DC
:100AF0002DB73EB74091040250910502241B350BDF
:100B0000E0911002F0911102E217F307A0F42E1BFE
:100B10003F0B2817390778F0AC014E5F5F4F241761
:100B2000350748F04E0F5F1F50931102409310029B
:100B30008193919302C0E0E0F0E0CF01DF91CF918B
:100B400008950F931F93CF93DF93009709F48CC000
:100B5000FC0132971382128200911202109113024B
:100B60000115110581F420813181820F931F20919D
:100B70001002309111022817390779F5F09311020C
:100B8000E093100271C0D80140E050E0AE17BF07FB
:100B900050F412962D913C911397AD01211531051A
:100BA00009F1D901F3CF9D01DA01338322836081FA
:100BB0007181860F971F8217930769F4EC012881D2
:100BC0003981260F371F2E5F3F4F318320838A8163
:100BD0009B8193838283452B29F4F0931302E09346
:100BE000120242C01396FC93EE931297ED014991C5
:100BF00059919E01240F351FE217F30771F480818C
:100C00009181840F951F029611969C938E938281F9
:100C1000938113969C938E931297E0E0F0E0D801B5
:100C200012968D919C911397009719F0F8018C0101
:100C3000F6CF8D919C9198012E5F3F4F820F931FAD
:100C400020911002309111022817390769F430976A
:100C500029F4109213021092120202C0138212821F
:100C60001093110200931002DF91CF911F910F9109
:100C70000895FC010590615070400110D8F78095EF
:100C800090958E0F9F1F0895DC0101C06D93415018
:100C90005040E0F70895FC01615070400190011050
:100CA000D8F7809590958E0F9F1F08950F931F93EF
:100CB000CF93DF93FB01238121FD03C08FEF9FEFD3
:100CC00028C022FF16C046815781248135814217F2
:100CD000530744F4A081B1819D012F5F3F4F3183C1
:100CE00020838C93268137812F5F3F4F3783268364
:100CF00010C0EB01092F182F0084F185E02D199504
:100D0000892BE1F68E819F8101969F838E83812FAF
:100D1000902FDF91CF911F910F910895FA01AA278B
:100D2000283051F1203181F1E8946F936E7F6E5F2E
:100D30007F4F8F4F9F4FAF4FB1E03ED0B4E03CD0DC
:100D4000670F781F891F9A1FA11D680F791F8A1FBF
:100D5000911DA11D6A0F711D811D911DA11D20D026
:100D600009F468943F912AE0269F11243019305DE0
:100D70003193DEF6CF010895462F4770405D4193D1
:100D8000B3E00FD0C9F7F6CF462F4F70405D4A331E
:100D900018F0495D31FD4052419302D0A9F7EACFE6
:100DA000B4E0A6959795879577956795BA95C9F715
:100DB00000976105710508959B01AC010A2E069408
:100DC0005795479537952795BA95C9F7620F731FC1
:0C0DD000841F951FA01D0895F894FFCF0C
:0A0DDC0000001402200025640A0044
:00000001FF
