:100000000C94D5000C94F6000C94F6000C94790135
:100010000C94F6000C94F6000C94F6000C94F60088
:100020000C94F6000C94F6000C94F6000C94F60078
:100030000C94F6000C94F6000C94F6000C94F60068
:100040000C94F6000C94F6000C94F6000C94F60058
:100050000C9488010C94F6000C94F6000C94F600B5
:100060000C94F6000C94F6000C94F6000C94F60038
:100070000C94F6000C94F6000C94F6000C94F60028
:100080000C94F6000C94F6000C94F6000C94F60018
:100090000C94F6000C94F6000C94F6000C94740486
:1000A0000C94F6000C94F6000C94F6000C94F600F8
:1000B0000C94F6000C94F6000C94F6000C94F600E8
:1000C0000C94F6000C94F6000C94F6000C94F600D8
:1000D0000C94F6000C94F6000C94F6000C94F600C8
:1000E0000C94F6009304E504E504E504E504E50456
:1000F000E504E5049304E504E504E504E504E5040A
:10010000E504E5049504E504E504E504E504E504F7
:10011000E504E504E504E504E504E504E504E50497
:10012000E504E5049504E504E504E504E504E504D7
:10013000E504E504E504E504E504E504E504E50477
:10014000E504E504E104E504E504E504E504E5046B
:10015000E504E504BE04E504E504E504E504E5047E
:10016000E504E504E504E504E504E504E504E50447
:10017000E504E504B204E504E504E504E504E5046A
:10018000E504E504D0040C94B2040C9495040C949A
:10019000E1040C94E5040C94BE040C9493040C94B8
:1001A000D0040C94A1010C94970111241FBECFEF31
:1001B000D1E2DEBFCDBF00E00CBF12E0A0E0B2E0B4
:1001C000EAE9FCE100E00BBF02C007900D92AA37FC
:1001D000B107D9F722E0AAE7B2E001C01D92A03929
:1001E000B207E1F70E94F8000C944B0E0C9400004B
:1001F000CF93DF93CDB7DEB7E2970FB6F894DEBFAB
:100200000FBECDBF0E94AA010E943B020E9435038F
:100210000E94770383E00E94AA030E94FB040E94CD
:1002200020050E94E50382E090E09A83898381E0C3
:100230008B830E942603FF24F3940AE710E0809149
:100240007C02882301F110927C02CE010C960E9460
:100250008C0287E092E00E94240A80917D02811145
:100260000CC0F0927D028FE092E00E94240ABE0151
:10027000695E7F4F8A890E9426068F850E945E03F1
:1002800089890E94F00380917B02882381F080910C
:100290007D02882361F088E192E00E94240A109296
:1002A0007B02BE01695E7F4F88890E9471050E94B2
:1002B000AD0380937A0280917A02882309F4BFCF3C
:1002C0001C82F80180818F7B8083CE0101960E9481
:1002D0005202FFEF29E688E1F15020408040E1F72B
:1002E00000C0000010927C0210927D020E943B022E
:1002F000A6CF1F920F920FB60F9211248F9381E019
:1003000080937C028F910F900FBE0F901F901895D5
:100310001F920F920FB60F9211248F9381E080935A
:100320007B028F910F900FBE0F901F901895E0ECFD
:10033000F0E0908195FFFDCF8093C60080E090E0D3
:100340000895E0ECF0E080818823ECF78091C6000E
:1003500090E008951092C50087E68093C40088E17C
:100360008093C1008EE08093C20061EA71E087E96A
:1003700091E00E94C509089584B1876884B981E538
:100380008CBD08958EBD0DB407FEFDCF8EB50895CA
:100390002F9808952F9A08950E94C80180EC0E941A
:1003A000C2010E94CA010895CF93C82F0E94C801BC
:1003B00083E00E94C2018C2F0E94C2018C2F0E94F8
:1003C000C201C82F0E94CA018C2FCF9108950E94AC
:1003D000BC010E94CC018FE39CE90197F1F700C0BA
:1003E000000080E00895CF93DF93D82FC62F0E949E
:1003F000C80182E00E94C2018D2F0E94C2018C2F91
:100400000E94C2010E94CA01DF91CF910895CF934B
:10041000C82F0E94C8018C2F0E94C2010E94CA01ED
:10042000CF910895CF930E94C80180EA0E94C20133
:1004300080E00E94C201C82F0E94CA018C2FCF9178
:1004400008951F93CF93DF93182FD62FC42F0E94A8
:10045000C80185E00E94C201812F0E94C2018D2F38
:100460000E94C2018C2F0E94C2010E94CA01DF912A
:10047000CF911F9108950E94E70140E060EE8FE068
:100480000E94210243E063E08BE20E94210240E6E9
:1004900060E680E60E94210240E064E080E60E947F
:1004A000210208950F931F93CF938C01FC0140818B
:1004B00051815695479556954795569547956FEFB7
:1004C00081E30E942102F80140814295440F407E61
:1004D0006FEF82E30E942102F80142816FE085E321
:1004E0000E942102F8018281882379F0C0E0F8019E
:1004F000EC0FF11D43816FEF86E38C0F0E94210208
:10050000CF5FF8018281C81790F381E80E9407024B
:10051000CF911F910F9108959F92AF92BF92CF926A
:10052000DF92EF92FF920F931F93CF93DF93CDB79C
:10053000DEB72B970FB6F894DEBF0FBECDBF5C01C0
:100540008CE20E94D40180FF31C081E60E94D40178
:10055000E82E82E60E94D401829586958770F12C60
:10056000EE0CFF1CEE0CFF1CEE0CFF1CE82A85E6CF
:100570000E94D401082F0F7099F06E0184E0C80E1C
:10058000D11C0F2EF6E69F2EF02D900E16E6812F31
:100590000E94D401F60181936F011F5F1911F7CFFB
:1005A00040E061E08CE20E94210232C081FF30C055
:1005B00081E70E94D401E82E82E70E94D40182954F
:1005C00086958770F12CEE0CFF1CEE0CFF1CEE0CD8
:1005D000FF1CE82A85E70E94D401082F0F7099F0CC
:1005E0006E01F4E0CF0ED11C0F2EF6E79F2EF02DFA
:1005F000900E16E7812F0E94D401F60181936F01BE
:100600001F5F1911F7CF40E062E08CE20E942102E7
:10061000FA82E9820B838BE0FE013196D5010190CD
:100620000D928A95E1F7C5012B960FB6F894DEBFBF
:100630000FBECDBFDF91CF911F910F91FF90EF9033
:10064000DF90CF90BF90AF909F9008956A98F894F4
:10065000EA98E9E6F0E080818F7E80838081806285
:100660008083E29AEA9A78940895E0E9F0E0808144
:100670008E7F8083808182608083A1E9B0E08C914D
:1006800088618C9380818F7B808380818068808368
:100690008C9182608C938C918A7F8C938CE980936F
:1006A00097008FE3809396008BE08093990088EB0E
:1006B000809398008DB188638DB90895282F37EF06
:1006C0003203C001112488599F4E893620E19207D8
:1006D00038F4883037E0930728F488E097E002C0C8
:1006E00088E690E190939900809398000895EAE756
:1006F000F0E0808180688083808187608083ECE780
:10070000F0E08081806480838081806280830895AE
:10071000CF93DF93ECE7F0E0808187608083EBE7A5
:10072000F0E08081877F8083EAE7F0E08081806469
:100730008083808186FF09C0CAE7D0E081E292E031
:100740000E94240A888186FDF9CF80917900DF918B
:10075000CF9108958093850208950E948803803484
:1007600090F5809185028150809385021F928F932E
:1007700084E392E09F938F930E94100A0F900F9052
:100780000F900F908091850281110EC08FE592E04D
:100790009F938F930E94100A8EE692E00E94240A93
:1007A0000F900F9081E008952FEF83ED90E321509B
:1007B00080409040E1F700C000000E948803803430
:1007C000E0F380E0089580E00895EAE0F1E08081C0
:1007D00081608083EBE0F1E0808181608083089517
:1007E000811106C0EBE0F1E0808181608083089593
:1007F000813071F4EBE0F1E080818E7F80832FEF18
:1008000089EF90E0215080409040E1F700C0000067
:1008100008958CE08093B8008FEF8093BB0084E054
:100820008093BC0008958091BC0081700895ECEB2A
:10083000F0E0808180FDFDCF809100020895CF938C
:10084000DF93EC01ECEBF0E0908190FDFDCF609345
:10085000800298819093810290FD13C0623088F0ED
:10086000FE013196A2E8B2E06250262F30E02E5F02
:100870003F4FCE01820F931F21912D93E817F90767
:10088000D9F710927E0288EF8093000285EA809368
:10089000BC00DF91CF910895ECEBF0E0808180FD0A
:1008A000FDCF10927E0288EF8093000285EA80934C
:1008B000BC000895ECEBF0E0208120FDFDCF2091FD
:1008C0007E0220FF0DC0662359F021E832E0A82FF8
:1008D000B92FF90181918D938E2F821B8617D0F34A
:1008E00080917E02817008951F920F920FB60F9231
:1008F00011240BB60F922F933F938F939F93AF9337
:10090000BF93EF93FF93E091B9008E2F90E0FC012D
:100910003897E135F10508F058C08827EE58FF4FA9
:100920008F4F0C947C0710927F02E0917F028091A0
:100930008002E81770F481E08E0F80937F02F0E070
:10094000EF57FD4F80818093BB0085E88093BC000A
:1009500043C080917E02816080937E0284E980930F
:10096000BC003AC0E0917F0281E08E0F80937F024D
:100970008091BB00F0E0EF57FD4F808320917F0214
:1009800030E08091800290E001972817390724F425
:1009900085EC8093BC0020C085E88093BC001CC01F
:1009A0008091BB00E0917F02F0E0EF57FD4F808324
:1009B00080917E02816080937E0284E98093BC00F6
:1009C0000BC085EA8093BC0007C08091B90080937A
:1009D000000284E08093BC00FF91EF91BF91AF9142
:1009E0009F918F913F912F910F900BBE0F900FBE53
:1009F0000F901F9018950E9409040895CF93DF93DC
:100A000000D0CDB7DEB79EE5998397E09A838B83BC
:100A100063E0CE0101960E941F040F900F900F908B
:100A2000DF91CF910895E2E0F1E080818F7B8083B8
:100A30008AE68A95F1F700C08081806480830895FA
:100A4000F894E1E0F1E080818A678083E2E0F1E000
:100A50008081826180830E9413050895282F392F99
:100A6000A90141505F4F4F3F510578F4E2E0F1E0BA
:100A7000208122602083282F33231CF43195219577
:100A80003109822F0E94FE040895215031092F3F21
:100A9000310538F4E2E0F1E090819D7F90830E947F
:100AA000FE040895E2E0F1E080818F7D8083808103
:100AB000877F808325ED2A95F1F70000A6E0B1E05D
:100AC0008C9190E0982F882720812860208325ED45
:100AD0002A95F1F700003C91208120622083832B2E
:100AE0000895EF92FF920F931F93CF93C82F7B012E
:100AF0000E9452058C01C0952C2F30E0A1EBB4E28E
:100B00000E9484072FEF30E040E050E00E945D0734
:100B1000DA01C901A701B8010E947C060E942E05D6
:100B2000CF911F910F91FF90EF9008954F925F9298
:100B30006F927F928F929F92AF92BF92CF92DF92ED
:100B4000EF92FF920F931F93CF93DF9329013A0106
:100B500047015801E60120E030E040E053E40E9404
:100B600058096B017C01688379838A839B8320E029
:100B700030E040E053E4C301B2010E9458092B0168
:100B80003C016C837D838E839F8320E030E040E0D6
:100B900053E4C501B4010E945809688779878A87A0
:100BA0009B871C861D861E861F86188A198A1A8AAC
:100BB0001B8A20E030E040E85FE3C701B6010E94F5
:100BC000B6079B01AC0160E070E080E09FE40E940A
:100BD00022080E9494086C8B7D8B8E8B9F8B20E06B
:100BE00030E040E85FE3C301B2010E94B6079B0119
:100BF000AC0160E070E080E89EE40E9422080E9460
:100C00009408688F798F8A8F9B8FDF91CF911F9186
:100C10000F91FF90EF90DF90CF90BF90AF909F909B
:100C20008F907F906F905F904F900895F8941092FE
:100C30008000E1E8F0E0808182608083EFE6F0E010
:100C4000808181608083B098789408958F929F927C
:100C5000AF92BF92CF92DF92EF92FF920F931F93CA
:100C60006B018130C9F018F0823031F134C01AE0E4
:100C7000E12E17EDF12E03E21CE32FE632E143E80B
:100C80005AE30F2EF8E58F2EF9E39F2EF4EBAF2EEB
:100C9000FCE3BF2EF02D1FC0E12CF12C8701A80131
:100CA00097010F2EF8E58F2EF9E39F2EF4EBAF2E70
:100CB000FCE3BF2EF02D0FC0E12CF12C8701A80121
:100CC00097010F2EF7E18F2EF7EB9F2EF1E5AF2E58
:100CD000F9E3BF2EF02DC501B4010E9496050E94D4
:100CE00016061F910F91FF90EF90DF90CF90BF906D
:100CF000AF909F908F9008954F925F926F927F92E6
:100D00008F929F92AF92BF92CF92DF92EF92FF921B
:100D10000F931F93CF93DF936B01EA017C01E61AD7
:100D2000F70A27010F2C000C66087708C301B201EF
:100D30000E94CC08288139814A815B810E94580930
:100D40000E9494084B015C01488959896A897B8912
:100D500004E0400E511C611C711C19E04116510445
:100D60006104710468F0C701FF0CAA0BBB0B8A0178
:100D70009B01080F191F2A1F3B1FC901B80107C09B
:100D8000188A198A1A8A1B8A60E070E0CB01488CA5
:100D9000598C6A8C7B8C46165706680679064CF48B
:100DA000488A598A6A8A7B8A6FEF7FEF8FEF9FE3C9
:100DB00024C07094609450944094411C511C611C58
:100DC000711C64157505860597054CF4488A598A87
:100DD0006A8A7B8A61E070E080E090EC0EC0688BEC
:100DE000798B8A8B9B8B0E94CC082C813D814E8114
:100DF0005F810E9458090E9494080D2C000CEE0897
:100E0000FF08860E971EA81EB91E8C859D85AE858F
:100E1000BF85BC01CD016C197D098E099F090E9417
:100E2000CC08288539854A855B850E9458090E942F
:100E30009408860E971EA81EB91ED501C401BB20BA
:100E400024F481589F4FAF4FBF4F689416F8B59563
:100E5000A795979587951694D1F7813010E891075B
:100E60001FEFA107B10724F481E090E8AFEFBFEFD7
:100E7000CC86DD86EE86FF86811520E89207A105E7
:100E8000B10524F08FEF9FE7A0E0B0E0DF91CF91B4
:100E90001F910F91FF90EF90DF90CF90BF90AF9098
:100EA0009F908F907F906F905F904F900895FC017E
:100EB000108A118A128A138A0895052E97FB1EF450
:100EC00000940E94740757FD07D00E94930707FC07
:100ED00003D04EF40C9474075095409530952195AD
:100EE0003F4F4F4F5F4F0895909580957095619556
:100EF0007F4F8F4F9F4F0895EE0FFF1F881F8BBFAF
:100F00000790F691E02D1994A29FB001B39FC00104
:100F1000A39F700D811D1124911DB29F700D811D25
:100F20001124911D0895A1E21A2EAA1BBB1BFD01DD
:100F30000DC0AA1FBB1FEE1FFF1FA217B307E407B8
:100F4000F50720F0A21BB30BE40BF50B661F771F10
:100F5000881F991F1A9469F76095709580959095F0
:100F60009B01AC01BD01CF0108955058BB27AA27B2
:100F70000E94CD070C941E090E94100938F00E94AF
:100F8000170920F039F49F3F19F426F40C940D0949
:100F90000EF4E095E7FB0C940709E92F0E942F0956
:100FA00058F3BA17620773078407950720F079F49E
:100FB000A6F50C9451090EF4E0950B2EBA2FA02D36
:100FC0000B01B90190010C01CA01A0011124FF27F6
:100FD000591B99F0593F50F4503E68F11A16F040F1
:100FE000A22F232F342F4427585FF3CF46953795F0
:100FF0002795A795F0405395C9F77EF41F16BA0BB5
:10100000620B730B840BBAF09150A1F0FF0FBB1F62
:10101000661F771F881FC2F70EC0BA0F621F731FAB
:10102000841F48F4879577956795B795F7959E3F08
:1010300008F0B0CF9395880F08F09927EE0F979599
:10104000879508950E9436080C941E090E9417097E
:1010500058F00E94100940F029F45F3F29F00C94E9
:10106000070951110C9452090C940D090E942F0983
:1010700068F39923B1F3552391F3951B550BBB27C7
:10108000AA2762177307840738F09F5F5F4F220F0C
:10109000331F441FAA1FA9F335D00E2E3AF0E0E803
:1010A00032D091505040E695001CCAF72BD0FE2F4D
:1010B00029D0660F771F881FBB1F261737074807E1
:1010C000AB07B0E809F0BB0B802DBF01FF27935899
:1010D0005F4F3AF09E3F510578F00C9407090C944D
:1010E00052095F3FE4F3983ED4F386957795679570
:1010F000B795F7959F5FC9F7880F911D96958795CE
:1011000097F90895E1E0660F771F881FBB1F6217EC
:1011100073078407BA0720F0621B730B840BBA0BAA
:10112000EE1F88F7E09508950E949B086894B1111E
:101130000C94520908950E94370988F09F5798F03F
:10114000B92F9927B751B0F0E1F0660F771F881FCC
:10115000991F1AF0BA95C9F714C0B13091F00E94E6
:101160005109B1E008950C945109672F782F882711
:10117000B85F39F0B93FCCF3869577956795B3950D
:10118000D9F73EF490958095709561957F4F8F4F7C
:101190009F4F0895E89409C097FB3EF49095809581
:1011A000709561957F4F8F4F9F4F9923A9F0F92F2D
:1011B00096E9BB279395F695879577956795B795AB
:1011C000F111F8CFFAF4BB0F11F460FF1BC06F5F91
:1011D0007F4F8F4F9F4F16C0882311F096E911C0A3
:1011E000772321F09EE8872F762F05C0662371F0C4
:1011F00096E8862F70E060E02AF09A95660F771FD8
:10120000881FDAF7880F9695879597F9089597F9CB
:101210009F6780E870E060E008959FEF80EC08959C
:1012200000240A94161617061806090608950024C5
:101230000A9412161306140605060895092E03943F
:10124000000C11F4882352F0BB0F40F4BF2B11F4B3
:1012500060FF04C06F5F7F4F8F4F9F4F089557FD12
:101260009058440F551F59F05F3F71F04795880F14
:1012700097FB991F61F09F3F79F0879508951216AB
:1012800013061406551FF2CF4695F1DF08C0161657
:1012900017061806991FF1CF869571056105089408
:1012A0000895E894BB2766277727CB0197F908951F
:1012B0000E946B090C941E090E94100938F00E94CC
:1012C000170920F0952311F00C9407090C940D09CF
:1012D00011240C9452090E942F0970F3959FC1F3B9
:1012E000950F50E0551F629FF001729FBB27F00DD4
:1012F000B11D639FAA27F00DB11DAA1F649F662729
:10130000B00DA11D661F829F2227B00DA11D621F77
:10131000739FB00DA11D621F839FA00D611D221F31
:10132000749F3327A00D611D231F849F600D211D15
:10133000822F762F6A2F11249F5750409AF0F1F098
:1013400088234AF0EE0FFF1FBB1F661F771F881F01
:1013500091505040A9F79E3F510580F00C94070929
:101360000C9452095F3FE4F3983ED4F38695779549
:101370006795B795F795E7959F5FC1F7FE2B880FA7
:10138000911D9695879597F908950F931F93CF9385
:10139000DF93009731F46115710519F480E090E056
:1013A0003AC08B01EC016EE070E081E090E00E94B9
:1013B0004F0CFC01892B91F380E883830115110503
:1013C00071F01387028781E8838380918602909170
:1013D0008702892B21F4F0938702E09386022097FD
:1013E000C9F0D187C087838182608383809188021E
:1013F00090918902892B71F4F0938902E09388021D
:1014000080918A0290918B02892B21F4F0938B02B8
:10141000E0938A02CF01DF91CF911F910F91089540
:10142000CF93DF93CDB7DEB7AE014A5F5F4FFA01CE
:1014300061917191AF0180918802909189020E941F
:10144000540ADF91CF9108950F931F93CF93DF93A9
:10145000E0918802F0918902238121FF1BC08C0159
:10146000D0E0C0E0F80181918F0160918802709115
:101470008902DB011896ED91FC911997882331F0D0
:101480001995892B79F3DFEFCFEFECCF8AE019952F
:10149000892B19F08FEF9FEF02C08D2F9C2FDF91CA
:1014A000CF911F910F9108952F923F924F925F928B
:1014B0006F927F928F929F92AF92BF92CF92DF9264
:1014C000EF92FF920F931F93CF93DF93CDB7DEB7C9
:1014D0002C970FB6F894DEBF0FBECDBF7C016B0119
:1014E0008A01FC0117821682838181FFBDC1CE0172
:1014F00001964C01F7019381F60193FD859193FFCD
:1015000081916F01882309F4ABC1853239F493FDD1
:10151000859193FF81916F01853229F4B70190E0A5
:101520000E94B50DE7CF512C312C20E02032A0F4E1
:101530008B3269F030F4803259F0833269F42061E3
:101540002CC08D3239F0803339F4216026C02260FE
:10155000246023C0286021C027FD27C030ED380F4C
:101560003A3078F426FF06C0FAE05F9E300D112471
:10157000532E13C08AE0389E300D1124332E206282
:101580000CC08E3221F426FD6BC1206406C08C365F
:1015900011F4206802C0883641F4F60193FD85916C
:1015A00093FF81916F018111C1CF982F9F7D955439
:1015B000933028F40C5F1F4FFFE3F9830DC083368F
:1015C00031F0833771F0833509F05BC022C0F80138
:1015D000808189830E5F1F4F44244394512C540112
:1015E00015C03801F2E06F0E711CF801A080B180C7
:1015F00026FF03C0652D70E002C06FEF7FEFC501CD
:101600002C870E94AA0D2C0183012C852F77222E76
:1016100017C03801F2E06F0E711CF801A080B18094
:1016200026FF03C0652D70E002C06FEF7FEFC5019C
:101630002C870E94980D2C012C852068222E830176
:1016400023FC1BC0832D90E048165906B0F4B70167
:1016500080E290E00E94B50D3A94F4CFF50127FCAA
:10166000859127FE81915F01B70190E00E94B50D41
:1016700031103A94F1E04F1A51084114510471F7B6
:10168000E5C0843611F0893639F5F80127FF07C027
:1016900060817181828193810C5F1F4F08C06081DE
:1016A0007181072E000C880B990B0E5F1F4F2F7650
:1016B000722E97FF09C090958095709561957F4F28
:1016C0008F4F9F4F2068722E2AE030E0A4010E94C5
:1016D000ED0DA82EA81844C0853729F42F7EB22E10
:1016E0002AE030E025C0F22FF97FBF2E8F36C1F0FF
:1016F00018F4883579F0B4C0803719F0883721F0B4
:10170000AFC02F2F2061B22EB4FE0DC08B2D846090
:10171000B82E09C024FF0AC09F2F9660B92E06C0BC
:1017200028E030E005C020E130E002C020E132E0F6
:10173000F801B7FE07C060817181828193810C5FDF
:101740001F4F06C06081718180E090E00E5F1F4FE7
:10175000A4010E94ED0DA82EA818FB2DFF777F2E67
:1017600076FE0BC0372D3E7FA51450F474FE0AC0E0
:1017700072FC08C0372D3E7E05C0BA2C372D03C041
:10178000BA2C01C0B52C34FF0DC0FE01EA0DF11DCD
:101790008081803311F4397E09C032FF06C0B394D2
:1017A000B39404C0832F867809F0B39433FD13C03B
:1017B00030FF06C05A2CB31418F4530C5B18B32C2A
:1017C000B31468F4B70180E290E03C870E94B50D45
:1017D000B3943C85F5CFB31410F43B1801C0312C01
:1017E00034FF12C0B70180E390E03C870E94B50D42
:1017F0003C8532FF17C031FD03C088E790E002C08E
:1018000088E590E0B7010CC0832F867859F031FF4E
:1018100002C08BE201C080E237FD8DE2B70190E0AB
:101820000E94B50DA51438F4B70180E390E00E9442
:10183000B50D5A94F7CFAA94F401EA0DF11D8081F9
:10184000B70190E00E94B50DA110F5CF332009F447
:1018500051CEB70180E290E00E94B50D3A94F6CFE8
:10186000F7018681978102C08FEF9FEF2C960FB60C
:10187000F894DEBF0FBECDBFDF91CF911F910F91C6
:10188000FF90EF90DF90CF90BF90AF909F908F90A0
:101890007F906F905F904F903F902F9008950F939F
:1018A0001F93CF93DF93869F8001879F100D969F94
:1018B000100D1124C8010E946B0CEC01009729F057
:1018C000A80160E070E00E94A30DCE01DF91CF91EE
:1018D0001F910F910895CF93DF938230910510F4FB
:1018E00082E090E0E0918E02F0918F0220E030E003
:1018F000C0E0D0E0309711F140815181481759077D
:10190000C0F04817590761F482819381209719F03C
:101910009B838A832BC090938F0280938E0226C074
:101920002115310519F04217530718F49A01BE0129
:10193000DF01EF010280F381E02DDCCF21153105BD
:1019400009F1281B390B2430310590F412968D9142
:101950009C9113976115710521F0FB01938382839C
:1019600004C090938F0280938E02FD01329644C092
:10197000FD01E20FF31F81939193225031092D93C2
:101980003C933AC020918C0230918D02232B41F47C
:10199000209103023091040230938D0220938C0237
:1019A00020910102309102022115310541F42DB739
:1019B0003EB74091050250910602241B350BE09181
:1019C0008C02F0918D02E217F307A0F42E1B3F0B5F
:1019D0002817390778F0AC014E5F5F4F24173507A1
:1019E00048F04E0F5F1F50938D0240938C028193FD
:1019F000919302C0E0E0F0E0CF01DF91CF91089534
:101A00000F931F93CF93DF93009709F48CC0FC01D1
:101A100032971382128200918E0210918F0201156B
:101A2000110581F420813181820F931F20918C0256
:101A300030918D022817390779F5F0938D02E093E4
:101A40008C0271C0D80140E050E0AE17BF0750F4DF
:101A500012962D913C911397AD012115310509F195
:101A6000D901F3CF9D01DA01338322836081718133
:101A7000860F971F8217930769F4EC01288139813B
:101A8000260F371F2E5F3F4F318320838A819B8132
:101A900093838283452B29F4F0938F02E0938E0287
:101AA00042C01396FC93EE931297ED014991599120
:101AB0009E01240F351FE217F30771F48081918195
:101AC000840F951F029611969C938E938281938129
:101AD00013969C938E931297E0E0F0E0D801129653
:101AE0008D919C911397009719F0F8018C01F6CF16
:101AF0008D919C9198012E5F3F4F820F931F2091F3
:101B00008C0230918D022817390769F4309729F437
:101B100010928F0210928E0202C0138212821093D2
:101B20008D0200938C02DF91CF911F910F91089548
:101B3000FC010590615070400110D8F78095909598
:101B40008E0F9F1F0895DC0101C06D9341505040DE
:101B5000E0F70895FC016150704001900110D8F742
:101B6000809590958E0F9F1F08950F931F93CF938D
:101B7000DF93FB01238121FD03C08FEF9FEF28C07E
:101B800022FF16C0468157812481358142175307B1
:101B900044F4A081B1819D012F5F3F4F31832083A9
:101BA0008C93268137812F5F3F4F3783268310C068
:101BB000EB01092F182F0084F185E02D1995892B51
:101BC000E1F68E819F8101969F838E83812F902FD6
:101BD000DF91CF911F910F910895FA01AA27283024
:101BE00051F1203181F1E8946F936E7F6E5F7F4FEA
:101BF0008F4F9F4FAF4FB1E03ED0B4E03CD0670F66
:101C0000781F891F9A1FA11D680F791F8A1F911DB8
:101C1000A11D6A0F711D811D911DA11D20D009F408
:101C200068943F912AE0269F11243019305D31934A
:101C3000DEF6CF010895462F4770405D4193B3E033
:101C40000FD0C9F7F6CF462F4F70405D4A3318F0DA
:101C5000495D31FD4052419302D0A9F7EACFB4E08B
:101C6000A6959795879577956795BA95C9F7009743
:101C70006105710508959B01AC010A2E06945795E4
:101C8000479537952795BA95C9F7620F731F841F3B
:0A1C9000951FA01D0895F894FFCFE2
:101C9A00F800009002200048454C4C4F4F4F004836
:101CAA00454C4C4F4F4F310048454C4C4F4F4F32EB
:101CBA000048454C4C4F4F4F2046524F4D2041440F
:101CCA0043495200596F75206C6F73742061206C00
:101CDA00696665210A0D43757272656E74206C69B6
:101CEA00766573206C6566743A2025640A0D004F88
:101CFA007574206F66206C697665730A0D0047411A
:0A1D0A004D45204F564552210000C0
:00000001FF
