:100000000C94D5000C94F6000C94F6000C94A3010B
:100010000C94F6000C94F6000C94F6000C94F60088
:100020000C94F6000C94F6000C94F6000C94F60078
:100030000C94F6000C94F6000C94F6000C94F60068
:100040000C94F6000C94F6000C94F6000C94F60058
:100050000C94B2010C94F6000C94F6000C94F6008B
:100060000C94F6000C94F6000C94F6000C94F60038
:100070000C94F6000C94F6000C94F6000C94F60028
:100080000C94F6000C94F6000C94F6000C94F60018
:100090000C94F6000C94F6000C94F6000C941005E9
:1000A0000C94F6000C94F6000C94F6000C94F600F8
:1000B0000C94F6000C94F6000C94F6000C94F600E8
:1000C0000C94F6000C94F6000C94F6000C94F600D8
:1000D0000C94F6000C94F6000C94F6000C94F600C8
:1000E0000C94F6002F0581058105810581058105A8
:1000F000810581052F058105810581058105810522
:10010000810581053105810581058105810581050F
:1001100081058105810581058105810581058105AF
:1001200081058105310581058105810581058105EF
:10013000810581058105810581058105810581058F
:10014000810581057D058105810581058105810583
:10015000810581055A058105810581058105810596
:10016000810581058105810581058105810581055F
:10017000810581054E058105810581058105810582
:10018000810581056C050C947D050C9417020C9477
:100190005A050C944E050C942F050C9431050C94C3
:1001A0000D020C946C050C94810511241FBECFEF39
:1001B000D1E2DEBFCDBF00E00CBF12E0A0E0B2E0B4
:1001C000ECE5FEE100E00BBF02C007900D92A836FF
:1001D000B107D9F722E0A8E6B2E001C01D92A2382B
:1001E000B207E1F70E94F8000C942C0F0C94000069
:1001F000CF93DF93CDB7DEB7E4970FB6F894DEBFA9
:100200000FBECDBF0E9420020E94B1020E94AB032C
:100210000E94FC0383E00E9422040E949C030E942F
:1002200097050E9403060E94810482E090E09A8371
:1002300089838B831BAA1CAA10E00F2EFBE0EF2EF4
:10024000FF24F394F02DAA24A3940F2EFAE7CF2EC7
:10025000D12CF02D012F80916E028823F1F01093A4
:100260006E02CE010C960E940203BA8880916F0242
:1002700081110CC0A0926F02F70180818860808399
:10028000BE01695E7F4F8B2D0E94E3066B2D8F852B
:100290000E94D40389890E948C0480916D02882376
:1002A00061F080916F02882341F010936D02BE01CE
:1002B000695E7F4F88890E942E06CE01C3960E94F8
:1002C0002D048CA9882381F080916C02081710F40A
:1002D00000916C0210936C021092680210926902F5
:1002E00010926A0210926B028BA9882309F4B3CF93
:1002F0001C830D83F60180818F7B8083CE01019664
:100300000E94C802FFEF29E688E1F15020408040BA
:10031000E1F700C0000010936E0210936F02F70126
:100320008081877F808383E00E9422040E94B10243
:1003300010936C02109268021092690210926A0285
:1003400010926B0287CF1F920F920FB60F9211245B
:100350008F9381E080936E028F910F900FBE0F906C
:100360001F9018951F920F920FB60F9211240BB683
:100370000F922F933F934F935F936F937F938F933E
:100380009F93AF93BF93EF93FF9381E080936D02B0
:100390008091680290916902A0916A02B0916B020B
:1003A0000196A11DB11D8093680290936902A093EC
:1003B0006A02B0936B0280916D028823D9F080911C
:1003C0006F028823B9F06091680270916902809190
:1003D0006A0290916B022FE130E040E050E00E9411
:1003E0003E08672B682B692B29F480916C028F5F84
:1003F00080936C02FF91EF91BF91AF919F918F918C
:100400007F916F915F914F913F912F910F900BBE14
:100410000F900FBE0F901F901895E0ECF0E09081C8
:1004200095FFFDCF8093C60080E090E00895E0EC5A
:10043000F0E080818823ECF78091C60090E0089579
:100440001092C50087E68093C40088E18093C100C4
:100450008EE08093C20067E172E08DE092E00E943E
:10046000A60A089584B1876884B981E58CBD089592
:100470008EBD0DB407FEFDCF8EB508952F9808955B
:100480002F9A08950E943E0280EC0E9438020E943A
:1004900040020895CF93C82F0E943E0283E00E943D
:1004A00038028C2F0E9438028C2F0E943802C82FED
:1004B0000E9440028C2FCF9108950E9432020E9428
:1004C00042028FE39CE90197F1F700C0000080E051
:1004D0000895CF93DF93D82FC62F0E943E0282E06B
:1004E0000E9438028D2F0E9438028C2F0E94380201
:1004F0000E944002DF91CF910895CF93C82F0E94B0
:100500003E028C2F0E9438020E944002CF91089533
:10051000CF930E943E0280EA0E94380280E00E944F
:100520003802C82F0E9440028C2FCF9108951F934C
:10053000CF93DF93182FD62FC42F0E943E0285E061
:100540000E943802812F0E9438028D2F0E943802AB
:100550008C2F0E9438020E944002DF91CF911F91A0
:1005600008950E945D0240E060EE8FE00E949702D5
:1005700043E063E08BE20E94970240E660E680E69B
:100580000E94970240E064E080E60E94970208958E
:100590000F931F93CF938C01FC014081518156959D
:1005A000479556954795569547956FEF81E30E947D
:1005B0009702F80140814295440F407E6FEF82E33D
:1005C0000E949702F80142816FE085E30E94970242
:1005D000F8018281882379F0C0E0F801EC0FF11D69
:1005E00043816FEF86E38C0F0E949702CF5FF80183
:1005F0008281C81790F381E80E947D02CF911F91FC
:100600000F9108959F92AF92BF92CF92DF92EF9297
:10061000FF920F931F93CF93DF93CDB7DEB72B9746
:100620000FB6F894DEBF0FBECDBF5C018CE20E9416
:100630004A0280FF31C081E60E944A02E82E82E62B
:100640000E944A02829586958770F12CEE0CFF1C61
:10065000EE0CFF1CEE0CFF1CE82A85E60E944A0205
:10066000082F0F7099F06E0184E0C80ED11C0F2E78
:10067000F6E69F2EF02D900E16E6812F0E944A027C
:10068000F60181936F011F5F1911F7CF40E061E020
:100690008CE20E94970232C081FF30C081E70E9445
:1006A0004A02E82E82E70E944A0282958695877068
:1006B000F12CEE0CFF1CEE0CFF1CEE0CFF1CE82ACC
:1006C00085E70E944A02082F0F7099F06E01F4E04E
:1006D000CF0ED11C0F2EF6E79F2EF02D900E16E7B1
:1006E000812F0E944A02F60181936F011F5F191149
:1006F000F7CF40E062E08CE20E949702FA82E98242
:100700000B838BE0FE013196D50101900D928A9505
:10071000E1F7C5012B960FB6F894DEBF0FBECDBF33
:10072000DF91CF911F910F91FF90EF90DF90CF90CD
:10073000BF90AF909F9008956A98F894EA98E9E680
:10074000F0E080818F7E8083808180628083E29A66
:10075000EA9A78940895E0E9F0E080818E7F8083C2
:10076000808182608083A1E9B0E08C9188618C9364
:1007700080818F7B80838081806880838C91826080
:100780008C938C918A7F8C938CE9809397008FE374
:10079000809396008BE08093990088EB809398007B
:1007A0008DB188638DB90895623069F490E09C0141
:1007B000220F331F220F331F220F331F820F931F6D
:1007C000885F984F07C0282F37EF3203C0011124EC
:1007D00088599F4E893620E1920738F4883037E0F7
:1007E000930728F488E097E002C088E690E19093B0
:1007F0009900809398000895EAE7F0E0808180688E
:100800008083808187608083ECE7F0E08081806472
:1008100080838081806280830895ECE7F0E08081AE
:1008200087608083EBE7F0E08081877F8083EAE761
:10083000F0E0808180648083808186FDFDCF80919F
:100840007900089580937702EAE0F1E08081826088
:1008500080838081886080830895CF93DF93EC014B
:10086000188219820E940D04803208F047C08091DE
:100870007702815080937702EBE0F1E08081826023
:100880008083809177021F928F9387E092E09F93FD
:100890008F930E94F10A0F900F900F900F9080910C
:1008A0007702811117C080E392E09F938F930E949B
:1008B000F10A8FE392E00E94050B0F900F900E94C7
:1008C0000D048032E0F3EBE0F1E080818D7F8083E6
:1008D00081E088832FEF87EA91E6215080409040A5
:1008E000E1F700C000000E940D048032E0F3EBE06D
:1008F000F1E080818D7F808381E08983DF91CF91DA
:100900000895EAE0F1E0808181608083EBE0F1E02E
:100910008081816080830895811106C0EBE0F1E061
:100920008081816080830895813071F4EBE0F1E093
:1009300080818E7F80832FEF89EF90E0215080406F
:100940009040E1F700C0000008958CE08093B8006B
:100950008FEF8093BB0084E08093BC00089580916A
:10096000BC0081700895ECEBF0E0808180FDFDCF4C
:10097000809100020895CF93DF93EC01ECEBF0E05F
:10098000908190FDFDCF60937202988190937302E5
:1009900090FD13C0623088F0FE013196A4E7B2E00A
:1009A0006250262F30E02E5F3F4FCE01820F931F03
:1009B00021912D93E817F907D9F71092700288EF6B
:1009C0008093000285EA8093BC00DF91CF91089567
:1009D000ECEBF0E0808180FDFDCF1092700288EF9B
:1009E0008093000285EA8093BC000895ECEBF0E070
:1009F000208120FDFDCF2091700220FF0DC06623D5
:100A000059F023E732E0A82FB92FF90181918D9396
:100A10008E2F821B8617D0F380917002817008950B
:100A20001F920F920FB60F9211240BB60F922F93B5
:100A30003F938F939F93AF93BF93EF93FF93E09177
:100A4000B9008E2F90E0FC013897E135F10508F0F0
:100A500058C08827EE58FF4F8F4F0C947F08109294
:100A60007102E091710280917202E81770F481E0E6
:100A70008E0F80937102F0E0ED58FD4F80818093DE
:100A8000BB0085E88093BC0043C080917002816008
:100A90008093700284E98093BC003AC0E0917102B7
:100AA00081E08E0F809371028091BB00F0E0ED58E1
:100AB000FD4F80832091710230E08091720290E0BE
:100AC00001972817390724F485EC8093BC0020C0D7
:100AD00085E88093BC001CC08091BB00E09171024E
:100AE000F0E0ED58FD4F808380917002816080932B
:100AF000700284E98093BC000BC085EA8093BC003F
:100B000007C08091B9008093000284E08093BC000C
:100B1000FF91EF91BF91AF919F918F913F912F9155
:100B20000F900BBE0F900FBE0F901F9018950E9454
:100B3000A5040895CF93DF9300D0CDB7DEB79EE52F
:100B4000998397E09A838B8363E0CE0101960E949C
:100B5000BB040F900F900F90DF91CF9108958AE41E
:100B600092E00E94050BE2E0F1E080818F7B8083C0
:100B70008AE68A95F1F700C08081806480830895B9
:100B8000282F392FA90141505F4F4F3F510578F46D
:100B9000E2E0F1E0208122602083282F33231CF43F
:100BA000319521953109822F0E949A05089521508F
:100BB00031092F3F310538F4E2E0F1E090819D7F6B
:100BC00090830E949A050895E2E0F1E080818F7D94
:100BD00080838081877F808325ED2A95F1F700004F
:100BE000A6E0B1E08C9190E0982F882720812860C2
:100BF000208325ED2A95F1F700003C9120812062A9
:100C00002083832B0895CF93DF93E1E0F1E080818F
:100C10008A678083E2E0F1E08081826180830E94C4
:100C2000AF0585EB9FEF0E94C0050E94E405EC0133
:100C30002FEF83EC99E0215080409040E1F700C015
:100C400000000E94E405C817D90779F780E00E94E8
:100C50009A050E94AF05DF91CF910895EF92FF9220
:100C60000F931F93CF93C82F7B010E94E4058C0143
:100C7000C0952C2F30E0A1EBB4E20E9487082FEF43
:100C800030E040E050E00E946008DA01C901A701AD
:100C9000B8010E9443070E94C005CF911F910F9198
:100CA000FF90EF9008954F925F926F927F928F9294
:100CB0009F92AF92BF92CF92DF92EF92FF920F93EB
:100CC0001F93CF93DF9329013A0147015801E601B1
:100CD00020E030E040E053E40E94390A6B017C01DF
:100CE000688379838A839B8320E030E040E053E48B
:100CF000C301B2010E94390A2B013C016C837D8340
:100D00008E839F8320E030E040E053E4C501B401CE
:100D10000E94390A688779878A879B871C861D8687
:100D20001E861F86188A198A1A8A1B8A20E030E0DC
:100D300040E85FE3C701B6010E9497089B01AC0140
:100D400060E070E080E09FE40E9403090E94750962
:100D50006C8B7D8B8E8B9F8B20E030E040E85FE3D7
:100D6000C301B2010E9497089B01AC0160E070E0F2
:100D700080E89EE40E9403090E947509688F798FBC
:100D80008A8F9B8FDF91CF911F910F91FF90EF90F2
:100D9000DF90CF90BF90AF909F908F907F906F909B
:100DA0005F904F900895F89410928000E1E8F0E091
:100DB000808182608083EFE6F0E0808181608083C3
:100DC000B098789408954F925F926F927F928F922D
:100DD0009F92AF92BF92CF92DF92EF92FF920F93CA
:100DE0001F93CF93C82F6B011F928F9380E592E0E2
:100DF0009F938F930E94F10A0F900F900F900F9086
:100E0000C130C1F010F0C23011F50F2EFAE04F2EB4
:100E1000F7ED5F2EF3E26F2EFCE37F2EF02D0F2E09
:100E2000FFE68F2EF2E19F2EF3E8AF2EFAE3BF2EFE
:100E3000F02D0DC081E692E09F938F930E94F10AFE
:100E40000F900F90412C512C32015301420183012C
:100E50007201A501940168E579E384EB9CE30E94AB
:100E600053060E94D306CF911F910F91FF90EF90F0
:100E7000DF90CF90BF90AF909F908F907F906F90BA
:100E80005F904F9008954F925F926F927F928F92F2
:100E90009F92AF92BF92CF92DF92EF92FF920F9309
:100EA0001F93CF93DF936B01EA018C01061B170B95
:100EB0002801012E000C660877088C899D89AE896F
:100EC000BF8984159505A605B705DCF0B095A095FA
:100ED000909581959F4FAF4FBF4F481659066A06B0
:100EE0007B06C4F0C301B2010E94AD09288139819B
:100EF0004A815B810E94390A0E9475094B015C019D
:100F00000FC00F2E88248A94982CA82CFFE7BF2EA0
:100F1000F02D06C0812C912C540183946894B7F86D
:100F200088899989AA89BB89012E000C220B330B71
:100F30000C5F1F4F2F4F3F4F093011052105310521
:100F400038F0BC01CD01640D751D861D971D07C0CD
:100F5000188A198A1A8A1B8A60E070E0CB01088D12
:100F6000198D2A8D3B8D06171707280739074CF472
:100F7000088B198B2A8B3B8B6FEF7FEF8FEF9FE3F3
:100F800023C030952095109501951F4F2F4F3F4F4F
:100F900060177107820793074CF4088B198B2A8B13
:100FA0003B8B61E070E080E090EC0EC0688B798B49
:100FB0008A8B9B8B0E94AD092C813D814E815F8184
:100FC0000E94390A0E9475090D2C000CEE08FF08DA
:100FD000860E971EA81EB91E8C859D85AE85BF8581
:100FE000BC01CD016C197D098E099F090E94AD09D4
:100FF000288539854A855B850E94390A0E947509D2
:10100000860E971EA81EB91ED501C401BB2024F46C
:1010100081589F4FAF4FBF4F689416F8B595A7956D
:10102000979587951694D1F7813020E892072FEF96
:10103000A207B20724F481E090E8AFEFBFEFCC86BF
:10104000DD86EE86FF86811520E89207A105B105B1
:1010500024F08FEF9FE7A0E0B0E0DF91CF911F91E8
:101060000F91FF90EF90DF90CF90BF90AF909F9047
:101070008F907F906F905F904F900895A1E21A2E0D
:10108000AA1BBB1BFD010DC0AA1FBB1FEE1FFF1F2C
:10109000A217B307E407F50720F0A21BB30BE40B7C
:1010A000F50B661F771F881F991F1A9469F76095C3
:1010B0007095809590959B01AC01BD01CF0108957D
:1010C000052E97FB1EF400940E94770857FD07D069
:1010D0000E943E0807FC03D04EF40C94770850950C
:1010E0004095309521953F4F4F4F5F4F0895909514
:1010F0008095709561957F4F8F4F9F4F0895EE0FAC
:10110000FF1F881F8BBF0790F691E02D1994A29FB7
:10111000B001B39FC001A39F700D811D1124911DCB
:10112000B29F700D811D1124911D08955058BB2749
:10113000AA270E94AE080C94FF090E94F10938F01A
:101140000E94F80920F039F49F3F19F426F40C941A
:10115000EE090EF4E095E7FB0C94E809E92F0E94F4
:10116000100A58F3BA17620773078407950720F02F
:1011700079F4A6F50C94320A0EF4E0950B2EBA2FF2
:10118000A02D0B01B90190010C01CA01A00111248D
:10119000FF27591B99F0593F50F4503E68F11A1639
:1011A000F040A22F232F342F4427585FF3CF4695CA
:1011B00037952795A795F0405395C9F77EF41F16EC
:1011C000BA0B620B730B840BBAF09150A1F0FF0FB6
:1011D000BB1F661F771F881FC2F70EC0BA0F621FA2
:1011E000731F841F48F4879577956795B795F79592
:1011F0009E3F08F0B0CF9395880F08F09927EE0F27
:101200009795879508950E9417090C94FF090E94ED
:10121000F80958F00E94F10940F029F45F3F29F0E5
:101220000C94E80951110C94330A0C94EE090E94B5
:10123000100A68F39923B1F3552391F3951B550BCD
:10124000BB27AA2762177307840738F09F5F5F4F99
:10125000220F331F441FAA1FA9F335D00E2E3AF0D8
:10126000E0E832D091505040E695001CCAF72BD0F0
:10127000FE2F29D0660F771F881FBB1F2617370741
:101280004807AB07B0E809F0BB0B802DBF01FF2773
:1012900093585F4F3AF09E3F510578F00C94E8095F
:1012A0000C94330A5F3FE4F3983ED4F38695779528
:1012B0006795B795F7959F5FC9F7880F911D96952C
:1012C000879597F90895E1E0660F771F881FBB1F88
:1012D000621773078407BA0720F0621B730B840B35
:1012E000BA0BEE1F88F7E09508950E947C09689478
:1012F000B1110C94330A08950E94180A88F09F5780
:1013000098F0B92F9927B751B0F0E1F0660F771F29
:10131000881F991F1AF0BA95C9F714C0B13091F01F
:101320000E94320AB1E008950C94320A672F782F98
:101330008827B85F39F0B93FCCF3869577956795E4
:10134000B395D9F73EF490958095709561957F4F50
:101350008F4F9F4F0895E89409C097FB3EF49095F6
:101360008095709561957F4F8F4F9F4F9923A9F07E
:10137000F92F96E9BB279395F6958795779567950D
:10138000B795F111F8CFFAF4BB0F11F460FF1BC051
:101390006F5F7F4F8F4F9F4F16C0882311F096E9E4
:1013A00011C0772321F09EE8872F762F05C0662392
:1013B00071F096E8862F70E060E02AF09A95660F4B
:1013C000771F881FDAF7880F9695879597F9089504
:1013D00097F99F6780E870E060E008959FEF80ECE8
:1013E000089500240A94161617061806090608958B
:1013F00000240A9412161306140605060895092EF1
:101400000394000C11F4882352F0BB0F40F4BF2B5F
:1014100011F460FF04C06F5F7F4F8F4F9F4F08959F
:1014200057FD9058440F551F59F05F3F71F0479595
:10143000880F97FB991F61F09F3F79F0879508957A
:10144000121613061406551FF2CF4695F1DF08C099
:10145000161617061806991FF1CF869571056105B6
:1014600008940895E894BB2766277727CB0197F95E
:1014700008950E944C0A0C94FF090E94F10938F06B
:101480000E94F80920F0952311F00C94E8090C94BF
:10149000EE0911240C94330A0E94100A70F3959FF0
:1014A000C1F3950F50E0551F629FF001729FBB275B
:1014B000F00DB11D639FAA27F00DB11DAA1F649FF7
:1014C0006627B00DA11D661F829F2227B00DA11DAA
:1014D000621F739FB00DA11D621F839FA00D611D30
:1014E000221F749F3327A00D611D231F849F600D51
:1014F000211D822F762F6A2F11249F5750409AF07A
:10150000F1F088234AF0EE0FFF1FBB1F661F771F05
:10151000881F91505040A9F79E3F510580F00C94D0
:10152000E8090C94330A5F3FE4F3983ED4F38695C0
:1015300077956795B795F795E7959F5FC1F7FE2B70
:10154000880F911D9695879597F908950F931F938E
:10155000CF93DF93009731F46115710519F480E0A2
:1015600090E03AC08B01EC016EE070E081E090E029
:101570000E94300DFC01892B91F380E883830115D3
:10158000110571F01387028781E8838380917802C7
:1015900090917902892B21F4F0937902E0937802FB
:1015A0002097C9F0D187C08783818260838380912F
:1015B0007A0290917B02892B71F4F0937B02E09385
:1015C0007A0280917C0290917D02892B21F4F09324
:1015D0007D02E0937C02CF01DF91CF911F910F91AB
:1015E0000895CF93DF93CDB7DEB7AE014A5F5F4F6B
:1015F000FA0161917191AF0180917A0290917B0221
:101600000E94350BDF91CF9108950F931F93CF93D5
:10161000DF93E0917A02F0917B02238121FF1BC0CE
:101620008C01D0E0C0E0F80181918F0160917A02D5
:1016300070917B02DB011896ED91FC91199788233C
:1016400031F01995892B79F3DFEFCFEFECCF8AE0FA
:101650001995892B19F08FEF9FEF02C08D2F9C2FCA
:10166000DF91CF911F910F9108952F923F924F924A
:101670005F926F927F928F929F92AF92BF92CF9222
:10168000DF92EF92FF920F931F93CF93DF93CDB72B
:10169000DEB72C970FB6F894DEBF0FBECDBF7C012E
:1016A0006B018A01FC0117821682838181FFBDC113
:1016B000CE0101964C01F7019381F60193FD8591CE
:1016C00093FF81916F01882309F4ABC1853239F40E
:1016D00093FD859193FF81916F01853229F4B701C4
:1016E00090E00E94960EE7CF512C312C20E0203262
:1016F000A0F48B3269F030F4803259F0833269F40F
:1017000020612CC08D3239F0803339F4216026C03D
:101710002260246023C0286021C027FD27C030ED4F
:10172000380F3A3078F426FF06C0FAE05F9E300D9D
:101730001124532E13C08AE0389E300D1124332E0D
:1017400020620CC08E3221F426FD6BC1206406C0DD
:101750008C3611F4206802C0883641F4F60193FDFE
:10176000859193FF81916F018111C1CF982F9F7D4A
:101770009554933028F40C5F1F4FFFE3F9830DC09D
:10178000833631F0833771F0833509F05BC022C0B6
:10179000F801808189830E5F1F4F44244394512CAC
:1017A000540115C03801F2E06F0E711CF801A080E1
:1017B000B18026FF03C0652D70E002C06FEF7FEFA0
:1017C000C5012C870E948B0E2C0183012C852F775D
:1017D000222E17C03801F2E06F0E711CF801A080B4
:1017E000B18026FF03C0652D70E002C06FEF7FEF70
:1017F000C5012C870E94790E2C012C852068222E91
:10180000830123FC1BC0832D90E048165906B0F4D9
:10181000B70180E290E00E94960E3A94F4CFF50171
:1018200027FC859127FE81915F01B70190E00E941E
:10183000960E31103A94F1E04F1A510841145104B8
:1018400071F7E5C0843611F0893639F5F80127FFC4
:1018500007C060817181828193810C5F1F4F08C036
:1018600060817181072E000C880B990B0E5F1F4F52
:101870002F76722E97FF09C090958095709561958F
:101880007F4F8F4F9F4F2068722E2AE030E0A401D7
:101890000E94CE0EA82EA81844C0853729F42F7EAA
:1018A000B22E2AE030E025C0F22FF97FBF2E8F360E
:1018B000C1F018F4883579F0B4C0803719F0883752
:1018C00021F0AFC02F2F2061B22EB4FE0DC08B2DA2
:1018D0008460B82E09C024FF0AC09F2F9660B92EDD
:1018E00006C028E030E005C020E130E002C020E181
:1018F00032E0F801B7FE07C0608171818281938177
:101900000C5F1F4F06C06081718180E090E00E5F28
:101910001F4FA4010E94CE0EA82EA818FB2DFF7702
:101920007F2E76FE0BC0372D3E7FA51450F474FE3B
:101930000AC072FC08C0372D3E7E05C0BA2C372D78
:1019400003C0BA2C01C0B52C34FF0DC0FE01EA0D56
:10195000F11D8081803311F4397E09C032FF06C049
:10196000B394B39404C0832F867809F0B39433FD05
:1019700013C030FF06C05A2CB31418F4530C5B1874
:10198000B32CB31468F4B70180E290E03C870E9466
:10199000960EB3943C85F5CFB31410F43B1801C0F8
:1019A000312C34FF12C0B70180E390E03C870E94E5
:1019B000960E3C8532FF17C031FD03C088E790E0EA
:1019C00002C088E590E0B7010CC0832F867859F0FB
:1019D00031FF02C08BE201C080E237FD8DE2B7012A
:1019E00090E00E94960EA51438F4B70180E390E0D1
:1019F0000E94960E5A94F7CFAA94F401EA0DF11DB5
:101A00008081B70190E00E94960EA110F5CF33209F
:101A100009F451CEB70180E290E00E94960E3A940C
:101A2000F6CFF7018681978102C08FEF9FEF2C964A
:101A30000FB6F894DEBF0FBECDBFDF91CF911F91DF
:101A40000F91FF90EF90DF90CF90BF90AF909F905D
:101A50008F907F906F905F904F903F902F90089560
:101A60000F931F93CF93DF93869F8001879F100D65
:101A7000969F100D1124C8010E944C0DEC01009797
:101A800029F0A80160E070E00E94840ECE01DF9191
:101A9000CF911F910F910895CF93DF9382309105DD
:101AA00010F482E090E0E0918002F091810220E069
:101AB00030E0C0E0D0E0309711F14081518148170B
:101AC0005907C0F04817590761F482819381209724
:101AD00019F09B838A832BC09093810280938002AC
:101AE00026C02115310519F04217530718F49A0141
:101AF000BE01DF01EF010280F381E02DDCCF211573
:101B0000310509F1281B390B2430310590F4129668
:101B10008D919C9113976115710521F0FB019383C1
:101B2000828304C09093810280938002FD013296EB
:101B300044C0FD01E20FF31F8193919322503109BC
:101B40002D933C933AC020917E0230917F02232B4B
:101B500041F4209103023091040230937F022093DC
:101B60007E0220910102309102022115310541F4DB
:101B70002DB73EB74091050250910602241B350B4C
:101B8000E0917E02F0917F02E217F307A0F42E1B92
:101B90003F0B2817390778F0AC014E5F5F4F2417D1
:101BA000350748F04E0F5F1F50937F0240937E022F
:101BB0008193919302C0E0E0F0E0CF01DF91CF91FB
:101BC00008950F931F93CF93DF93009709F48CC070
:101BD000FC013297138212820091800210918102DF
:101BE0000115110581F420813181820F931F20910D
:101BF0007E0230917F022817390779F5F0937F0232
:101C0000E0937E0271C0D80140E050E0AE17BF07FC
:101C100050F412962D913C911397AD012115310589
:101C200009F1D901F3CF9D01DA0133832283608169
:101C30007181860F971F8217930769F4EC01288141
:101C40003981260F371F2E5F3F4F318320838A81D2
:101C50009B8193838283452B29F4F0938102E09347
:101C6000800242C01396FC93EE931297ED014991C6
:101C700059919E01240F351FE217F30771F48081FB
:101C80009181840F951F029611969C938E93828169
:101C9000938113969C938E931297E0E0F0E0D80125
:101CA00012968D919C911397009719F0F8018C0171
:101CB000F6CF8D919C9198012E5F3F4F820F931F1D
:101CC00020917E0230917F022817390769F43097FE
:101CD00029F4109281021092800202C013821282B3
:101CE00010937F0200937E02DF91CF911F910F919D
:101CF0000895FC010590615070400110D8F780955F
:101D000090958E0F9F1F0895DC0101C06D93415087
:101D10005040E0F70895FC016150704001900110BF
:101D2000D8F7809590958E0F9F1F08950F931F935E
:101D3000CF93DF93FB01238121FD03C08FEF9FEF42
:101D400028C022FF16C04681578124813581421761
:101D5000530744F4A081B1819D012F5F3F4F318330
:101D600020838C93268137812F5F3F4F37832683D3
:101D700010C0EB01092F182F0084F185E02D199573
:101D8000892BE1F68E819F8101969F838E83812F1F
:101D9000902FDF91CF911F910F910895FA01AA27FB
:101DA000283051F1203181F1E8946F936E7F6E5F9E
:101DB0007F4F8F4F9F4FAF4FB1E03ED0B4E03CD04C
:101DC000670F781F891F9A1FA11D680F791F8A1F2F
:101DD000911DA11D6A0F711D811D911DA11D20D096
:101DE00009F468943F912AE0269F11243019305D50
:101DF0003193DEF6CF010895462F4770405D419341
:101E0000B3E00FD0C9F7F6CF462F4F70405D4A338D
:101E100018F0495D31FD4052419302D0A9F7EACF55
:101E2000B4E0A6959795879577956795BA95C9F784
:101E300000976105710508959B01AC010A2E069477
:101E40005795479537952795BA95C9F7620F731F30
:0C1E5000841F951FA01D0895F894FFCF7B
:101E5C00F8000082022000596F75206C6F7374209B
:101E6C0061206C696665212043757272656E742001
:101E7C006C69766573206C6566743A2025640A007B
:101E8C004F7574206F66206C69766573212000474E
:101E9C00414D45204F5645522100726573657400C3
:101EAC00446966666963756C7479203A2025640A06
:081EBC000043415345203100B1
:00000001FF
