:100000000C9476000C9497000C9497000C94E400E8
:100010000C9497000C9497000C9497000C94970004
:100020000C9497000C9497000C9497000C949700F4
:100030000C9497000C9497000C9497000C949700E4
:100040000C9497000C9497000C9497000C949700D4
:100050000C9497000C9497000C9497000C949700C4
:100060000C9497000C9497000C9497000C949700B4
:100070000C9497000C9497000C9497000C949700A4
:100080000C9497000C9497000C9497000C94970094
:100090000C9497000C9497000C9497000C94970084
:1000A0000C9497000C9497000C9497000C94970074
:1000B0000C9497000C9497000C9497000C94970064
:1000C0000C9497000C9497000C9497000C94970054
:1000D0000C9497000C9497000C9497000C94970044
:1000E0000C9497000C94FD000C94F30011241FBE97
:1000F000CFEFD1E2DEBFCDBF00E00CBF12E0A0E049
:10010000B2E0E2E4FEE000E00BBF02C007900D9217
:10011000A632B107D9F722E0A6E2B2E001C01D92F3
:10012000A133B207E1F70E9499000C941F070C94C9
:100130000000CF93DF93CDB7DEB766970FB6F89484
:10014000DEBF0FBECDBF0E9406010E9478020E9452
:1001500097010E94870281E491E09A83898381E07C
:100160008B8386E08C83CE0101960E94A4012FEF41
:1001700080E792E0215080409040E1F700C000000D
:100180000F2EF6E0EF2EF2E0FF2EF02D80912602EA
:100190008823E1F310922602CE010C960E94DE0124
:1001A0001F85812F0E94B00288891F928F931F9212
:1001B0001F93FF92EF920E9414030F900F900F90E5
:1001C0000F900F900F90E2CF1F920F920FB60F92E9
:1001D00011248F9381E0809326028F910F900FBEA0
:1001E0000F901F901895E0ECF0E0908195FFFDCF07
:1001F0008093C60080E090E00895E0ECF0E080811C
:100200008823ECF78091C60090E008951092C50015
:1002100087E68093C40088E18093C1008EE08093DC
:10022000C2006DEF70E083EF90E00E94C902089574
:1002300084B1876884B981E58CBD08958EBD0DB405
:1002400007FEFDCF8EB508952F9808952F9A089533
:100250000E94240180EC0E941E010E942601089544
:10026000CF93C82F0E94240183E00E941E018C2F8F
:100270000E941E018C2F0E941E01C82F0E94260181
:100280008C2FCF9108950E9418010E9428018FE3BE
:100290009CE90197F1F700C0000080E00895CF933A
:1002A000DF93D82FC62F0E94240182E00E941E01F6
:1002B0008D2F0E941E018C2F0E941E010E9426017C
:1002C000DF91CF910895CF93C82F0E9424018C2FE6
:1002D0000E941E010E942601CF910895CF930E9493
:1002E000240180EA0E941E0180E00E941E01C82FA6
:1002F0000E9426018C2FCF9108951F93CF93DF93F7
:10030000182FD62FC42F0E94240185E00E941E01C1
:10031000812F0E941E018D2F0E941E018C2F0E9492
:100320001E010E942601DF91CF911F9108950E9426
:10033000430140E060EE8FE00E947D0143E063E016
:100340008BE20E947D0108950F931F93CF938C0140
:10035000FC01408151815695479556954795569594
:1003600047956FEF81E30E947D01F801408142953E
:10037000440F407E6FEF82E30E947D01F8014281CD
:100380006FE085E30E947D01F8018281882379F086
:10039000C0E0F801EC0FF11D43816FEF86E38C0F95
:1003A0000E947D01CF5FF8018281C81790F381E838
:1003B0000E946301CF911F910F9108959F92AF9278
:1003C000BF92CF92DF92EF92FF920F931F93CF9342
:1003D000DF93CDB7DEB72B970FB6F894DEBF0FBE15
:1003E000CDBF5C018CE20E94300180FF31C081E60C
:1003F0000E943001E82E82E60E94300182958695A7
:100400008770F12CEE0CFF1CEE0CFF1CEE0CFF1C99
:10041000E82A85E60E943001082F0F7099F06E01DE
:1004200084E0C80ED11C0F2EF6E69F2EF02D900E04
:1004300016E6812F0E943001F60181936F011F5F44
:100440001911F7CF40E061E08CE20E947D0132C0DB
:1004500081FF30C081E70E943001E82E82E70E94D0
:100460003001829586958770F12CEE0CFF1CEE0C06
:10047000FF1CEE0CFF1CE82A85E70E943001082FC4
:100480000F7099F06E01F4E0CF0ED11C0F2EF6E73D
:100490009F2EF02D900E16E7812F0E943001F6015D
:1004A00081936F011F5F1911F7CF40E062E08CE28A
:1004B0000E947D01FA82E9820B838BE0FE01319676
:1004C000D50101900D928A95E1F7C5012B960FB6E3
:1004D000F894DEBF0FBECDBFDF91CF911F910F917A
:1004E000FF90EF90DF90CF90BF90AF909F900895D6
:1004F0006A98F894EA98E9E6F0E080818F7E80833C
:10050000808180628083E29AEA9A78940895E0E993
:10051000F0E080818E7F8083808182608083A1E98A
:10052000B0E08C9188618C9380818F7B8083808107
:10053000806880838C9182608C938C918A7F8C936D
:100540008CE9809397008FE3809396008BE08093F3
:10055000990088EB809398008DB188638DB90895D8
:10056000282F37EF3203C001112488599F4E893656
:1005700020E1920738F4883037E0930728F488E0C8
:1005800097E002C088E690E19093990080939800EC
:1005900008950F931F93CF93DF93009731F4611564
:1005A000710519F480E090E03AC08B01EC016EE037
:1005B00070E081E090E00E942305FC01892B91F31B
:1005C00080E883830115110571F01387028781E8A4
:1005D00083838091270290912802892B21F4F09344
:1005E0002802E09327022097C9F0D187C087838132
:1005F000826083838091290290912A02892B71F471
:10060000F0932A02E093290280912B0290912C0210
:10061000892B21F4F0932C02E0932B02CF01DF9180
:10062000CF911F910F910895CF93DF93CDB7DEB790
:10063000AE014A5F5F4FFA0161917191AF01809104
:10064000290290912A020E942803DF91CF910895F8
:100650002F923F924F925F926F927F928F929F92D2
:10066000AF92BF92CF92DF92EF92FF920F931F93C0
:10067000CF93DF93CDB7DEB72C970FB6F894DEBFDC
:100680000FBECDBF7C016B018A01FC01178216826F
:10069000838181FFBDC1CE0101964C01F701938199
:1006A000F60193FD859193FF81916F01882309F4F1
:1006B000ABC1853239F493FD859193FF81916F0130
:1006C000853229F4B70190E00E948906E7CF512CCA
:1006D000312C20E02032A0F48B3269F030F48032EB
:1006E00059F0833269F420612CC08D3239F08033A7
:1006F00039F4216026C02260246023C0286021C014
:1007000027FD27C030ED380F3A3078F426FF06C0B9
:10071000FAE05F9E300D1124532E13C08AE0389EFC
:10072000300D1124332E20620CC08E3221F426FDB0
:100730006BC1206406C08C3611F4206802C0883674
:1007400041F4F60193FD859193FF81916F01811131
:10075000C1CF982F9F7D9554933028F40C5F1F4F85
:10076000FFE3F9830DC0833631F0833771F08335B1
:1007700009F05BC022C0F801808189830E5F1F4FA2
:1007800044244394512C540115C03801F2E06F0EFB
:10079000711CF801A080B18026FF03C0652D70E0B8
:1007A00002C06FEF7FEFC5012C870E947E062C01EF
:1007B00083012C852F77222E17C03801F2E06F0EAF
:1007C000711CF801A080B18026FF03C0652D70E088
:1007D00002C06FEF7FEFC5012C870E946C062C01D1
:1007E0002C852068222E830123FC1BC0832D90E0E2
:1007F00048165906B0F4B70180E290E00E948906DD
:100800003A94F4CFF50127FC859127FE81915F0191
:10081000B70190E00E94890631103A94F1E04F1A36
:1008200051084114510471F7E5C0843611F089363E
:1008300039F5F80127FF07C06081718182819381BA
:100840000C5F1F4F08C060817181072E000C880B60
:10085000990B0E5F1F4F2F76722E97FF09C0909550
:100860008095709561957F4F8F4F9F4F2068722EB6
:100870002AE030E0A4010E94C106A82EA81844C0B6
:10088000853729F42F7EB22E2AE030E025C0F22FE2
:10089000F97FBF2E8F36C1F018F4883579F0B4C0D7
:1008A000803719F0883721F0AFC02F2F2061B22E8A
:1008B000B4FE0DC08B2D8460B82E09C024FF0AC081
:1008C0009F2F9660B92E06C028E030E005C020E1D9
:1008D00030E002C020E132E0F801B7FE07C06081DD
:1008E0007181828193810C5F1F4F06C0608171818D
:1008F00080E090E00E5F1F4FA4010E94C106A82E69
:10090000A818FB2DFF777F2E76FE0BC0372D3E7F7C
:10091000A51450F474FE0AC072FC08C0372D3E7E48
:1009200005C0BA2C372D03C0BA2C01C0B52C34FF3A
:100930000DC0FE01EA0DF11D8081803311F4397E76
:1009400009C032FF06C0B394B39404C0832F8678E5
:1009500009F0B39433FD13C030FF06C05A2CB31412
:1009600018F4530C5B18B32CB31468F4B70180E28D
:1009700090E03C870E948906B3943C85F5CFB31480
:1009800010F43B1801C0312C34FF12C0B70180E3D2
:1009900090E03C870E9489063C8532FF17C031FDFC
:1009A00003C088E790E002C088E590E0B7010CC082
:1009B000832F867859F031FF02C08BE201C080E2BC
:1009C00037FD8DE2B70190E00E948906A51438F446
:1009D000B70180E390E00E9489065A94F7CFAA9469
:1009E000F401EA0DF11D8081B70190E00E948906B3
:1009F000A110F5CF332009F451CEB70180E290E089
:100A00000E9489063A94F6CFF7018681978102C049
:100A10008FEF9FEF2C960FB6F894DEBF0FBECDBFC1
:100A2000DF91CF911F910F91FF90EF90DF90CF90CA
:100A3000BF90AF909F908F907F906F905F904F90FE
:100A40003F902F9008950F931F93CF93DF93869F2E
:100A50008001879F100D969F100D1124C8010E94E0
:100A60003F05EC01009729F0A80160E070E00E94CA
:100A70007706CE01DF91CF911F910F910895CF930B
:100A8000DF938230910510F482E090E0E0912F0234
:100A9000F091300220E030E0C0E0D0E0309711F17A
:100AA0004081518148175907C0F04817590761F430
:100AB00082819381209719F09B838A832BC0909326
:100AC000300280932F0226C02115310519F04217FC
:100AD000530718F49A01BE01DF01EF010280F38190
:100AE000E02DDCCF2115310509F1281B390B24300D
:100AF000310590F412968D919C91139761157105B3
:100B000021F0FB019383828304C090933002809391
:100B10002F02FD01329644C0FD01E20FF31F8193C5
:100B20009193225031092D933C933AC020912D028C
:100B300030912E02232B41F42091020230910302C6
:100B400030932E0220932D02209100023091010259
:100B50002115310541F42DB73EB740910402509163
:100B60000502241B350BE0912D02F0912E02E217B5
:100B7000F307A0F42E1B3F0B2817390778F0AC01C0
:100B80004E5F5F4F2417350748F04E0F5F1F50939D
:100B90002E0240932D028193919302C0E0E0F0E099
:100BA000CF01DF91CF9108950F931F93CF93DF93E0
:100BB000009709F48CC0FC013297138212820091D5
:100BC0002F02109130020115110581F4208131812D
:100BD000820F931F20912D0230912E022817390782
:100BE00079F5F0932E02E0932D0271C0D80140E018
:100BF00050E0AE17BF0750F412962D913C91139719
:100C0000AD012115310509F1D901F3CF9D01DA01BB
:100C10003383228360817181860F971F8217930728
:100C200069F4EC0128813981260F371F2E5F3F4F71
:100C3000318320838A819B8193838283452B29F48E
:100C4000F0933002E0932F0242C01396FC93EE9390
:100C50001297ED01499159919E01240F351FE2171A
:100C6000F30771F480819181840F951F029611968C
:100C70009C938E938281938113969C938E9312976B
:100C8000E0E0F0E0D80112968D919C9113970097C7
:100C900019F0F8018C01F6CF8D919C9198012E5F8F
:100CA0003F4F820F931F20912D0230912E02281763
:100CB000390769F4309729F41092300210922F020C
:100CC00002C01382128210932E0200932D02DF9134
:100CD000CF911F910F910895FC01059061507040D4
:100CE0000110D8F7809590958E0F9F1F0895DC0115
:100CF00001C06D9341505040E0F70895FC016150F0
:100D0000704001900110D8F7809590958E0F9F1F2D
:100D100008950F931F93CF93DF93FB01238121FD50
:100D200003C08FEF9FEF28C022FF16C04681578176
:100D3000248135814217530744F4A081B1819D017C
:100D40002F5F3F4F318320838C93268137812F5F24
:100D50003F4F3783268310C0EB01092F182F0084E3
:100D6000F185E02D1995892BE1F68E819F81019601
:100D70009F838E83812F902FDF91CF911F910F91B1
:100D80000895FA01AA27283051F1203181F1E89421
:100D90006F936E7F6E5F7F4F8F4F9F4FAF4FB1E06E
:100DA0003ED0B4E03CD0670F781F891F9A1FA11D69
:100DB000680F791F8A1F911DA11D6A0F711D811D6A
:100DC000911DA11D20D009F468943F912AE0269F2F
:100DD00011243019305D3193DEF6CF010895462F8E
:100DE0004770405D4193B3E00FD0C9F7F6CF462F6F
:100DF0004F70405D4A3318F0495D31FD40524193D8
:100E000002D0A9F7EACFB4E0A69597958795779594
:100E10006795BA95C9F700976105710508959B011B
:100E2000AC010A2E06945795479537952795BA95A4
:100E3000C9F7620F731F841F951FA01D0895F894B2
:020E4000FFCFE2
:100E42000000310220005820706F736974696F6E60
:100E52003A2025642C205920706F736974696F6E73
:060E62003A2025640A009D
:00000001FF
